{
  "_format": "hh-sol-artifact-1",
  "contractName": "Market",
  "sourceName": "contracts/main/Market.sol",
  "abi": [
    {
      "inputs": [
        {
          "internalType": "address",
          "name": "tokensAddress",
          "type": "address"
        }
      ],
      "stateMutability": "nonpayable",
      "type": "constructor"
    },
    {
      "inputs": [
        {
          "internalType": "uint256",
          "name": "tokenID",
          "type": "uint256"
        }
      ],
      "name": "buy",
      "outputs": [],
      "stateMutability": "payable",
      "type": "function"
    },
    {
      "inputs": [
        {
          "internalType": "uint256",
          "name": "tokenID",
          "type": "uint256"
        },
        {
          "internalType": "uint256",
          "name": "price",
          "type": "uint256"
        }
      ],
      "name": "list",
      "outputs": [],
      "stateMutability": "nonpayable",
      "type": "function"
    },
    {
      "inputs": [
        {
          "internalType": "uint256",
          "name": "",
          "type": "uint256"
        }
      ],
      "name": "listings",
      "outputs": [
        {
          "internalType": "address",
          "name": "owner",
          "type": "address"
        },
        {
          "internalType": "uint256",
          "name": "buyoutPrice",
          "type": "uint256"
        }
      ],
      "stateMutability": "view",
      "type": "function"
    },
    {
      "inputs": [
        {
          "internalType": "uint256",
          "name": "id",
          "type": "uint256"
        }
      ],
      "name": "unlist",
      "outputs": [],
      "stateMutability": "nonpayable",
      "type": "function"
    }
  ],
  "bytecode": "0x608060405234801561001057600080fd5b50604051610b0a380380610b0a8339818101604052810190610032919061008e565b80600160006101000a81548173ffffffffffffffffffffffffffffffffffffffff021916908373ffffffffffffffffffffffffffffffffffffffff16021790555050610100565b600081519050610088816100e9565b92915050565b6000602082840312156100a057600080fd5b60006100ae84828501610079565b91505092915050565b60006100c2826100c9565b9050919050565b600073ffffffffffffffffffffffffffffffffffffffff82169050919050565b6100f2816100b7565b81146100fd57600080fd5b50565b6109fb8061010f6000396000f3fe60806040526004361061003f5760003560e01c806350fd736714610044578063bf5a4dd31461006d578063d96a094a14610096578063de74e57b146100b2575b600080fd5b34801561005057600080fd5b5061006b60048036038101906100669190610727565b6100f0565b005b34801561007957600080fd5b50610094600480360381019061008f91906106fe565b610216565b005b6100b060048036038101906100ab91906106fe565b6103b0565b005b3480156100be57600080fd5b506100d960048036038101906100d491906106fe565b6105b1565b6040516100e79291906108cd565b60405180910390f35b60405180604001604052803373ffffffffffffffffffffffffffffffffffffffff1681526020018281525060008084815260200190815260200160002060008201518160000160006101000a81548173ffffffffffffffffffffffffffffffffffffffff021916908373ffffffffffffffffffffffffffffffffffffffff16021790555060208201518160010155905050600160009054906101000a900473ffffffffffffffffffffffffffffffffffffffff1673ffffffffffffffffffffffffffffffffffffffff166323b872dd3330856040518463ffffffff1660e01b81526004016101e093929190610896565b600060405180830381600087803b1580156101fa57600080fd5b505af115801561020e573d6000803e3d6000fd5b505050505050565b600080600083815260200190815260200160002060000160009054906101000a900473ffffffffffffffffffffffffffffffffffffffff1690508073ffffffffffffffffffffffffffffffffffffffff163373ffffffffffffffffffffffffffffffffffffffff161461028857600080fd5b6040518060400160405280600073ffffffffffffffffffffffffffffffffffffffff168152602001600081525060008084815260200190815260200160002060008201518160000160006101000a81548173ffffffffffffffffffffffffffffffffffffffff021916908373ffffffffffffffffffffffffffffffffffffffff16021790555060208201518160010155905050600160009054906101000a900473ffffffffffffffffffffffffffffffffffffffff1673ffffffffffffffffffffffffffffffffffffffff166323b872dd3083856040518463ffffffff1660e01b815260040161037a93929190610896565b600060405180830381600087803b15801561039457600080fd5b505af11580156103a8573d6000803e3d6000fd5b505050505050565b60008060008381526020019081526020016000206040518060400160405290816000820160009054906101000a900473ffffffffffffffffffffffffffffffffffffffff1673ffffffffffffffffffffffffffffffffffffffff1673ffffffffffffffffffffffffffffffffffffffff16815260200160018201548152505090506040518060400160405280600073ffffffffffffffffffffffffffffffffffffffff168152602001600081525060008084815260200190815260200160002060008201518160000160006101000a81548173ffffffffffffffffffffffffffffffffffffffff021916908373ffffffffffffffffffffffffffffffffffffffff160217905550602082015181600101559050508060200151341461050a576040517f08c379a000000000000000000000000000000000000000000000000000000000815260040161050190610936565b60405180910390fd5b600160009054906101000a900473ffffffffffffffffffffffffffffffffffffffff1673ffffffffffffffffffffffffffffffffffffffff166323b872dd3033856040518463ffffffff1660e01b815260040161056993929190610896565b600060405180830381600087803b15801561058357600080fd5b505af1158015610597573d6000803e3d6000fd5b505050506105ad816000015182602001516105f5565b5050565b60006020528060005260406000206000915090508060000160009054906101000a900473ffffffffffffffffffffffffffffffffffffffff16908060010154905082565b80471015610638576040517f08c379a000000000000000000000000000000000000000000000000000000000815260040161062f90610916565b60405180910390fd5b60008273ffffffffffffffffffffffffffffffffffffffff168260405161065e90610881565b60006040518083038185875af1925050503d806000811461069b576040519150601f19603f3d011682016040523d82523d6000602084013e6106a0565b606091505b50509050806106e4576040517f08c379a00000000000000000000000000000000000000000000000000000000081526004016106db906108f6565b60405180910390fd5b505050565b6000813590506106f8816109ae565b92915050565b60006020828403121561071057600080fd5b600061071e848285016106e9565b91505092915050565b6000806040838503121561073a57600080fd5b6000610748858286016106e9565b9250506020610759858286016106e9565b9150509250929050565b61076c81610972565b82525050565b600061077f603a83610961565b91507f416464726573733a20756e61626c6520746f2073656e642076616c75652c207260008301527f6563697069656e74206d617920686176652072657665727465640000000000006020830152604082019050919050565b60006107e5601d83610961565b91507f416464726573733a20696e73756666696369656e742062616c616e63650000006000830152602082019050919050565b6000610825600b83610961565b91507f77726f6e672076616c75650000000000000000000000000000000000000000006000830152602082019050919050565b6000610865600083610956565b9150600082019050919050565b61087b816109a4565b82525050565b600061088c82610858565b9150819050919050565b60006060820190506108ab6000830186610763565b6108b86020830185610763565b6108c56040830184610872565b949350505050565b60006040820190506108e26000830185610763565b6108ef6020830184610872565b9392505050565b6000602082019050818103600083015261090f81610772565b9050919050565b6000602082019050818103600083015261092f816107d8565b9050919050565b6000602082019050818103600083015261094f81610818565b9050919050565b600081905092915050565b600082825260208201905092915050565b600061097d82610984565b9050919050565b600073ffffffffffffffffffffffffffffffffffffffff82169050919050565b6000819050919050565b6109b7816109a4565b81146109c257600080fd5b5056fea264697066735822122043b0d57aea0319a4970954f8cba5bf328994abfa6f5454d160b594ec0acf0bcd64736f6c63430008000033",
  "linkReferences": {},
  "deployedLinkReferences": {}
}