{
  "contractName": "ERC1155Mock",
  "abi": [
    {
      "inputs": [
        {
          "internalType": "string",
          "name": "uri",
          "type": "string"
        }
      ],
      "stateMutability": "nonpayable",
      "type": "constructor"
    },
    {
      "anonymous": false,
      "inputs": [
        {
          "indexed": true,
          "internalType": "address",
          "name": "account",
          "type": "address"
        },
        {
          "indexed": true,
          "internalType": "address",
          "name": "operator",
          "type": "address"
        },
        {
          "indexed": false,
          "internalType": "bool",
          "name": "approved",
          "type": "bool"
        }
      ],
      "name": "ApprovalForAll",
      "type": "event"
    },
    {
      "anonymous": false,
      "inputs": [
        {
          "indexed": true,
          "internalType": "address",
          "name": "operator",
          "type": "address"
        },
        {
          "indexed": true,
          "internalType": "address",
          "name": "from",
          "type": "address"
        },
        {
          "indexed": true,
          "internalType": "address",
          "name": "to",
          "type": "address"
        },
        {
          "indexed": false,
          "internalType": "uint256[]",
          "name": "ids",
          "type": "uint256[]"
        },
        {
          "indexed": false,
          "internalType": "uint256[]",
          "name": "values",
          "type": "uint256[]"
        }
      ],
      "name": "TransferBatch",
      "type": "event"
    },
    {
      "anonymous": false,
      "inputs": [
        {
          "indexed": true,
          "internalType": "address",
          "name": "operator",
          "type": "address"
        },
        {
          "indexed": true,
          "internalType": "address",
          "name": "from",
          "type": "address"
        },
        {
          "indexed": true,
          "internalType": "address",
          "name": "to",
          "type": "address"
        },
        {
          "indexed": false,
          "internalType": "uint256",
          "name": "id",
          "type": "uint256"
        },
        {
          "indexed": false,
          "internalType": "uint256",
          "name": "value",
          "type": "uint256"
        }
      ],
      "name": "TransferSingle",
      "type": "event"
    },
    {
      "anonymous": false,
      "inputs": [
        {
          "indexed": false,
          "internalType": "string",
          "name": "value",
          "type": "string"
        },
        {
          "indexed": true,
          "internalType": "uint256",
          "name": "id",
          "type": "uint256"
        }
      ],
      "name": "URI",
      "type": "event"
    },
    {
      "inputs": [
        {
          "internalType": "address",
          "name": "account",
          "type": "address"
        },
        {
          "internalType": "uint256",
          "name": "id",
          "type": "uint256"
        }
      ],
      "name": "balanceOf",
      "outputs": [
        {
          "internalType": "uint256",
          "name": "",
          "type": "uint256"
        }
      ],
      "stateMutability": "view",
      "type": "function"
    },
    {
      "inputs": [
        {
          "internalType": "address[]",
          "name": "accounts",
          "type": "address[]"
        },
        {
          "internalType": "uint256[]",
          "name": "ids",
          "type": "uint256[]"
        }
      ],
      "name": "balanceOfBatch",
      "outputs": [
        {
          "internalType": "uint256[]",
          "name": "",
          "type": "uint256[]"
        }
      ],
      "stateMutability": "view",
      "type": "function"
    },
    {
      "inputs": [
        {
          "internalType": "address",
          "name": "account",
          "type": "address"
        },
        {
          "internalType": "address",
          "name": "operator",
          "type": "address"
        }
      ],
      "name": "isApprovedForAll",
      "outputs": [
        {
          "internalType": "bool",
          "name": "",
          "type": "bool"
        }
      ],
      "stateMutability": "view",
      "type": "function"
    },
    {
      "inputs": [
        {
          "internalType": "address",
          "name": "from",
          "type": "address"
        },
        {
          "internalType": "address",
          "name": "to",
          "type": "address"
        },
        {
          "internalType": "uint256[]",
          "name": "ids",
          "type": "uint256[]"
        },
        {
          "internalType": "uint256[]",
          "name": "amounts",
          "type": "uint256[]"
        },
        {
          "internalType": "bytes",
          "name": "data",
          "type": "bytes"
        }
      ],
      "name": "safeBatchTransferFrom",
      "outputs": [],
      "stateMutability": "nonpayable",
      "type": "function"
    },
    {
      "inputs": [
        {
          "internalType": "address",
          "name": "from",
          "type": "address"
        },
        {
          "internalType": "address",
          "name": "to",
          "type": "address"
        },
        {
          "internalType": "uint256",
          "name": "id",
          "type": "uint256"
        },
        {
          "internalType": "uint256",
          "name": "amount",
          "type": "uint256"
        },
        {
          "internalType": "bytes",
          "name": "data",
          "type": "bytes"
        }
      ],
      "name": "safeTransferFrom",
      "outputs": [],
      "stateMutability": "nonpayable",
      "type": "function"
    },
    {
      "inputs": [
        {
          "internalType": "address",
          "name": "operator",
          "type": "address"
        },
        {
          "internalType": "bool",
          "name": "approved",
          "type": "bool"
        }
      ],
      "name": "setApprovalForAll",
      "outputs": [],
      "stateMutability": "nonpayable",
      "type": "function"
    },
    {
      "inputs": [
        {
          "internalType": "bytes4",
          "name": "interfaceId",
          "type": "bytes4"
        }
      ],
      "name": "supportsInterface",
      "outputs": [
        {
          "internalType": "bool",
          "name": "",
          "type": "bool"
        }
      ],
      "stateMutability": "view",
      "type": "function"
    },
    {
      "inputs": [
        {
          "internalType": "uint256",
          "name": "",
          "type": "uint256"
        }
      ],
      "name": "uri",
      "outputs": [
        {
          "internalType": "string",
          "name": "",
          "type": "string"
        }
      ],
      "stateMutability": "view",
      "type": "function"
    },
    {
      "inputs": [
        {
          "internalType": "string",
          "name": "newuri",
          "type": "string"
        }
      ],
      "name": "setURI",
      "outputs": [],
      "stateMutability": "nonpayable",
      "type": "function"
    },
    {
      "inputs": [
        {
          "internalType": "address",
          "name": "to",
          "type": "address"
        },
        {
          "internalType": "uint256",
          "name": "id",
          "type": "uint256"
        },
        {
          "internalType": "uint256",
          "name": "value",
          "type": "uint256"
        },
        {
          "internalType": "bytes",
          "name": "data",
          "type": "bytes"
        }
      ],
      "name": "mint",
      "outputs": [],
      "stateMutability": "nonpayable",
      "type": "function"
    },
    {
      "inputs": [
        {
          "internalType": "address",
          "name": "to",
          "type": "address"
        },
        {
          "internalType": "uint256[]",
          "name": "ids",
          "type": "uint256[]"
        },
        {
          "internalType": "uint256[]",
          "name": "values",
          "type": "uint256[]"
        },
        {
          "internalType": "bytes",
          "name": "data",
          "type": "bytes"
        }
      ],
      "name": "mintBatch",
      "outputs": [],
      "stateMutability": "nonpayable",
      "type": "function"
    },
    {
      "inputs": [
        {
          "internalType": "address",
          "name": "owner",
          "type": "address"
        },
        {
          "internalType": "uint256",
          "name": "id",
          "type": "uint256"
        },
        {
          "internalType": "uint256",
          "name": "value",
          "type": "uint256"
        }
      ],
      "name": "burn",
      "outputs": [],
      "stateMutability": "nonpayable",
      "type": "function"
    },
    {
      "inputs": [
        {
          "internalType": "address",
          "name": "owner",
          "type": "address"
        },
        {
          "internalType": "uint256[]",
          "name": "ids",
          "type": "uint256[]"
        },
        {
          "internalType": "uint256[]",
          "name": "values",
          "type": "uint256[]"
        }
      ],
      "name": "burnBatch",
      "outputs": [],
      "stateMutability": "nonpayable",
      "type": "function"
    }
  ],
  "bytecode": "0x60806040523480156200001157600080fd5b50604051620037e0380380620037e083398181016040528101906200003791906200018f565b8062000049816200005160201b60201c565b505062000305565b8060029080519060200190620000699291906200006d565b5050565b8280546200007b9062000271565b90600052602060002090601f0160209004810192826200009f5760008555620000eb565b82601f10620000ba57805160ff1916838001178555620000eb565b82800160010185558215620000eb579182015b82811115620000ea578251825591602001919060010190620000cd565b5b509050620000fa9190620000fe565b5090565b5b8082111562000119576000816000905550600101620000ff565b5090565b6000620001346200012e8462000208565b620001d4565b9050828152602081018484840111156200014d57600080fd5b6200015a8482856200023b565b509392505050565b600082601f8301126200017457600080fd5b8151620001868482602086016200011d565b91505092915050565b600060208284031215620001a257600080fd5b600082015167ffffffffffffffff811115620001bd57600080fd5b620001cb8482850162000162565b91505092915050565b6000604051905081810181811067ffffffffffffffff82111715620001fe57620001fd620002d6565b5b8060405250919050565b600067ffffffffffffffff821115620002265762000225620002d6565b5b601f19601f8301169050602081019050919050565b60005b838110156200025b5780820151818401526020810190506200023e565b838111156200026b576000848401525b50505050565b600060028204905060018216806200028a57607f821691505b60208210811415620002a157620002a0620002a7565b5b50919050565b7f4e487b7100000000000000000000000000000000000000000000000000000000600052602260045260246000fd5b7f4e487b7100000000000000000000000000000000000000000000000000000000600052604160045260246000fd5b6134cb80620003156000396000f3fe608060405234801561001057600080fd5b50600436106100ce5760003560e01c80634e1273f41161008c578063a22cb46511610066578063a22cb4651461021f578063e985e9c51461023b578063f242432a1461026b578063f5298aca14610287576100ce565b80634e1273f4146101b75780636b20c454146101e7578063731133e914610203576100ce565b8062fdd58e146100d357806301ffc9a71461010357806302fe5305146101335780630e89341c1461014f5780631f7fdffa1461017f5780632eb2c2d61461019b575b600080fd5b6100ed60048036038101906100e8919061243b565b6102a3565b6040516100fa9190612fb3565b60405180910390f35b61011d600480360381019061011891906125ad565b61036c565b60405161012a9190612dd6565b60405180910390f35b61014d600480360381019061014891906125ff565b61044e565b005b61016960048036038101906101649190612640565b61045a565b6040516101769190612df1565b60405180910390f35b61019960048036038101906101949190612354565b6104ee565b005b6101b560048036038101906101b09190612187565b610500565b005b6101d160048036038101906101cc9190612541565b6105a1565b6040516101de9190612d7d565b60405180910390f35b61020160048036038101906101fc91906122d5565b610752565b005b61021d600480360381019061021891906124c6565b610762565b005b610239600480360381019061023491906123ff565b610774565b005b6102556004803603810190610250919061214b565b6108f5565b6040516102629190612dd6565b60405180910390f35b61028560048036038101906102809190612246565b610989565b005b6102a1600480360381019061029c9190612477565b610a2a565b005b60008073ffffffffffffffffffffffffffffffffffffffff168373ffffffffffffffffffffffffffffffffffffffff161415610314576040517f08c379a000000000000000000000000000000000000000000000000000000000815260040161030b90612e53565b60405180910390fd5b60008083815260200190815260200160002060008473ffffffffffffffffffffffffffffffffffffffff1673ffffffffffffffffffffffffffffffffffffffff16815260200190815260200160002054905092915050565b60007fd9b67a26000000000000000000000000000000000000000000000000000000007bffffffffffffffffffffffffffffffffffffffffffffffffffffffff1916827bffffffffffffffffffffffffffffffffffffffffffffffffffffffff1916148061043757507f0e89341c000000000000000000000000000000000000000000000000000000007bffffffffffffffffffffffffffffffffffffffffffffffffffffffff1916827bffffffffffffffffffffffffffffffffffffffffffffffffffffffff1916145b80610447575061044682610a3a565b5b9050919050565b61045781610aa4565b50565b6060600280546104699061325d565b80601f01602080910402602001604051908101604052809291908181526020018280546104959061325d565b80156104e25780601f106104b7576101008083540402835291602001916104e2565b820191906000526020600020905b8154815290600101906020018083116104c557829003601f168201915b50505050509050919050565b6104fa84848484610abe565b50505050565b610508610d28565b73ffffffffffffffffffffffffffffffffffffffff168573ffffffffffffffffffffffffffffffffffffffff16148061054e575061054d85610548610d28565b6108f5565b5b61058d576040517f08c379a000000000000000000000000000000000000000000000000000000000815260040161058490612ed3565b60405180910390fd5b61059a8585858585610d30565b5050505050565b606081518351146105e7576040517f08c379a00000000000000000000000000000000000000000000000000000000081526004016105de90612f53565b60405180910390fd5b6000835167ffffffffffffffff81111561062a577f4e487b7100000000000000000000000000000000000000000000000000000000600052604160045260246000fd5b6040519080825280602002602001820160405280156106585781602001602082028036833780820191505090505b50905060005b8451811015610747576106f18582815181106106a3577f4e487b7100000000000000000000000000000000000000000000000000000000600052603260045260246000fd5b60200260200101518583815181106106e4577f4e487b7100000000000000000000000000000000000000000000000000000000600052603260045260246000fd5b60200260200101516102a3565b82828151811061072a577f4e487b7100000000000000000000000000000000000000000000000000000000600052603260045260246000fd5b602002602001018181525050806107409061328f565b905061065e565b508091505092915050565b61075d838383611090565b505050565b61076e8484848461138d565b50505050565b8173ffffffffffffffffffffffffffffffffffffffff16610793610d28565b73ffffffffffffffffffffffffffffffffffffffff1614156107ea576040517f08c379a00000000000000000000000000000000000000000000000000000000081526004016107e190612f33565b60405180910390fd5b80600160006107f7610d28565b73ffffffffffffffffffffffffffffffffffffffff1673ffffffffffffffffffffffffffffffffffffffff16815260200190815260200160002060008473ffffffffffffffffffffffffffffffffffffffff1673ffffffffffffffffffffffffffffffffffffffff16815260200190815260200160002060006101000a81548160ff0219169083151502179055508173ffffffffffffffffffffffffffffffffffffffff166108a4610d28565b73ffffffffffffffffffffffffffffffffffffffff167f17307eab39ab6107e8899845ad3d59bd9653f200f220920489ca2b5937696c31836040516108e99190612dd6565b60405180910390a35050565b6000600160008473ffffffffffffffffffffffffffffffffffffffff1673ffffffffffffffffffffffffffffffffffffffff16815260200190815260200160002060008373ffffffffffffffffffffffffffffffffffffffff1673ffffffffffffffffffffffffffffffffffffffff16815260200190815260200160002060009054906101000a900460ff16905092915050565b610991610d28565b73ffffffffffffffffffffffffffffffffffffffff168573ffffffffffffffffffffffffffffffffffffffff1614806109d757506109d6856109d1610d28565b6108f5565b5b610a16576040517f08c379a0000000000000000000000000000000000000000000000000000000008152600401610a0d90612e93565b60405180910390fd5b610a238585858585611523565b5050505050565b610a358383836117a5565b505050565b60007f01ffc9a7000000000000000000000000000000000000000000000000000000007bffffffffffffffffffffffffffffffffffffffffffffffffffffffff1916827bffffffffffffffffffffffffffffffffffffffffffffffffffffffff1916149050919050565b8060029080519060200190610aba929190611e43565b5050565b600073ffffffffffffffffffffffffffffffffffffffff168473ffffffffffffffffffffffffffffffffffffffff161415610b2e576040517f08c379a0000000000000000000000000000000000000000000000000000000008152600401610b2590612f93565b60405180910390fd5b8151835114610b72576040517f08c379a0000000000000000000000000000000000000000000000000000000008152600401610b6990612f73565b60405180910390fd5b6000610b7c610d28565b9050610b8d816000878787876119c2565b60005b8451811015610c9257838181518110610bd2577f4e487b7100000000000000000000000000000000000000000000000000000000600052603260045260246000fd5b6020026020010151600080878481518110610c16577f4e487b7100000000000000000000000000000000000000000000000000000000600052603260045260246000fd5b6020026020010151815260200190815260200160002060008873ffffffffffffffffffffffffffffffffffffffff1673ffffffffffffffffffffffffffffffffffffffff1681526020019081526020016000206000828254610c789190613151565b925050819055508080610c8a9061328f565b915050610b90565b508473ffffffffffffffffffffffffffffffffffffffff16600073ffffffffffffffffffffffffffffffffffffffff168273ffffffffffffffffffffffffffffffffffffffff167f4a39dc06d4c0dbc64b70af90fd698a233a518aa5d07e595d983b8c0526c8f7fb8787604051610d0a929190612d9f565b60405180910390a4610d21816000878787876119ca565b5050505050565b600033905090565b8151835114610d74576040517f08c379a0000000000000000000000000000000000000000000000000000000008152600401610d6b90612f73565b60405180910390fd5b600073ffffffffffffffffffffffffffffffffffffffff168473ffffffffffffffffffffffffffffffffffffffff161415610de4576040517f08c379a0000000000000000000000000000000000000000000000000000000008152600401610ddb90612eb3565b60405180910390fd5b6000610dee610d28565b9050610dfe8187878787876119c2565b60005b8451811015610ffb576000858281518110610e45577f4e487b7100000000000000000000000000000000000000000000000000000000600052603260045260246000fd5b602002602001015190506000858381518110610e8a577f4e487b7100000000000000000000000000000000000000000000000000000000600052603260045260246000fd5b60200260200101519050600080600084815260200190815260200160002060008b73ffffffffffffffffffffffffffffffffffffffff1673ffffffffffffffffffffffffffffffffffffffff16815260200190815260200160002054905081811015610f2b576040517f08c379a0000000000000000000000000000000000000000000000000000000008152600401610f2290612f13565b60405180910390fd5b81810360008085815260200190815260200160002060008c73ffffffffffffffffffffffffffffffffffffffff1673ffffffffffffffffffffffffffffffffffffffff168152602001908152602001600020819055508160008085815260200190815260200160002060008b73ffffffffffffffffffffffffffffffffffffffff1673ffffffffffffffffffffffffffffffffffffffff1681526020019081526020016000206000828254610fe09190613151565b9250508190555050505080610ff49061328f565b9050610e01565b508473ffffffffffffffffffffffffffffffffffffffff168673ffffffffffffffffffffffffffffffffffffffff168273ffffffffffffffffffffffffffffffffffffffff167f4a39dc06d4c0dbc64b70af90fd698a233a518aa5d07e595d983b8c0526c8f7fb8787604051611072929190612d9f565b60405180910390a46110888187878787876119ca565b505050505050565b600073ffffffffffffffffffffffffffffffffffffffff168373ffffffffffffffffffffffffffffffffffffffff161415611100576040517f08c379a00000000000000000000000000000000000000000000000000000000081526004016110f790612ef3565b60405180910390fd5b8051825114611144576040517f08c379a000000000000000000000000000000000000000000000000000000000815260040161113b90612f73565b60405180910390fd5b600061114e610d28565b905061116e818560008686604051806020016040528060008152506119c2565b60005b83518110156113075760008482815181106111b5577f4e487b7100000000000000000000000000000000000000000000000000000000600052603260045260246000fd5b6020026020010151905060008483815181106111fa577f4e487b7100000000000000000000000000000000000000000000000000000000600052603260045260246000fd5b60200260200101519050600080600084815260200190815260200160002060008973ffffffffffffffffffffffffffffffffffffffff1673ffffffffffffffffffffffffffffffffffffffff1681526020019081526020016000205490508181101561129b576040517f08c379a000000000000000000000000000000000000000000000000000000000815260040161129290612e73565b60405180910390fd5b81810360008085815260200190815260200160002060008a73ffffffffffffffffffffffffffffffffffffffff1673ffffffffffffffffffffffffffffffffffffffff1681526020019081526020016000208190555050505080806112ff9061328f565b915050611171565b50600073ffffffffffffffffffffffffffffffffffffffff168473ffffffffffffffffffffffffffffffffffffffff168273ffffffffffffffffffffffffffffffffffffffff167f4a39dc06d4c0dbc64b70af90fd698a233a518aa5d07e595d983b8c0526c8f7fb868660405161137f929190612d9f565b60405180910390a450505050565b600073ffffffffffffffffffffffffffffffffffffffff168473ffffffffffffffffffffffffffffffffffffffff1614156113fd576040517f08c379a00000000000000000000000000000000000000000000000000000000081526004016113f490612f93565b60405180910390fd5b6000611407610d28565b90506114288160008761141988611b9a565b61142288611b9a565b876119c2565b8260008086815260200190815260200160002060008773ffffffffffffffffffffffffffffffffffffffff1673ffffffffffffffffffffffffffffffffffffffff16815260200190815260200160002060008282546114879190613151565b925050819055508473ffffffffffffffffffffffffffffffffffffffff16600073ffffffffffffffffffffffffffffffffffffffff168273ffffffffffffffffffffffffffffffffffffffff167fc3d58168c5ae7397731d063d5bbf3d657854427343f4c083240f7aacaa2d0f628787604051611505929190612fce565b60405180910390a461151c81600087878787611c60565b5050505050565b600073ffffffffffffffffffffffffffffffffffffffff168473ffffffffffffffffffffffffffffffffffffffff161415611593576040517f08c379a000000000000000000000000000000000000000000000000000000000815260040161158a90612eb3565b60405180910390fd5b600061159d610d28565b90506115bd8187876115ae88611b9a565b6115b788611b9a565b876119c2565b600080600086815260200190815260200160002060008873ffffffffffffffffffffffffffffffffffffffff1673ffffffffffffffffffffffffffffffffffffffff16815260200190815260200160002054905083811015611654576040517f08c379a000000000000000000000000000000000000000000000000000000000815260040161164b90612f13565b60405180910390fd5b83810360008087815260200190815260200160002060008973ffffffffffffffffffffffffffffffffffffffff1673ffffffffffffffffffffffffffffffffffffffff168152602001908152602001600020819055508360008087815260200190815260200160002060008873ffffffffffffffffffffffffffffffffffffffff1673ffffffffffffffffffffffffffffffffffffffff16815260200190815260200160002060008282546117099190613151565b925050819055508573ffffffffffffffffffffffffffffffffffffffff168773ffffffffffffffffffffffffffffffffffffffff168373ffffffffffffffffffffffffffffffffffffffff167fc3d58168c5ae7397731d063d5bbf3d657854427343f4c083240f7aacaa2d0f628888604051611786929190612fce565b60405180910390a461179c828888888888611c60565b50505050505050565b600073ffffffffffffffffffffffffffffffffffffffff168373ffffffffffffffffffffffffffffffffffffffff161415611815576040517f08c379a000000000000000000000000000000000000000000000000000000000815260040161180c90612ef3565b60405180910390fd5b600061181f610d28565b905061184f8185600061183187611b9a565b61183a87611b9a565b604051806020016040528060008152506119c2565b600080600085815260200190815260200160002060008673ffffffffffffffffffffffffffffffffffffffff1673ffffffffffffffffffffffffffffffffffffffff168152602001908152602001600020549050828110156118e6576040517f08c379a00000000000000000000000000000000000000000000000000000000081526004016118dd90612e73565b60405180910390fd5b82810360008086815260200190815260200160002060008773ffffffffffffffffffffffffffffffffffffffff1673ffffffffffffffffffffffffffffffffffffffff16815260200190815260200160002081905550600073ffffffffffffffffffffffffffffffffffffffff168573ffffffffffffffffffffffffffffffffffffffff168373ffffffffffffffffffffffffffffffffffffffff167fc3d58168c5ae7397731d063d5bbf3d657854427343f4c083240f7aacaa2d0f6287876040516119b3929190612fce565b60405180910390a45050505050565b505050505050565b6119e98473ffffffffffffffffffffffffffffffffffffffff16611e30565b15611b92578373ffffffffffffffffffffffffffffffffffffffff1663bc197c8187878686866040518663ffffffff1660e01b8152600401611a2f959493929190612cbb565b602060405180830381600087803b158015611a4957600080fd5b505af1925050508015611a7a57506040513d601f19601f82011682018060405250810190611a7791906125d6565b60015b611b0957611a86613383565b80611a915750611ace565b806040517f08c379a0000000000000000000000000000000000000000000000000000000008152600401611ac59190612df1565b60405180910390fd5b6040517f08c379a0000000000000000000000000000000000000000000000000000000008152600401611b0090612e13565b60405180910390fd5b63bc197c8160e01b7bffffffffffffffffffffffffffffffffffffffffffffffffffffffff1916817bffffffffffffffffffffffffffffffffffffffffffffffffffffffff191614611b90576040517f08c379a0000000000000000000000000000000000000000000000000000000008152600401611b8790612e33565b60405180910390fd5b505b505050505050565b60606000600167ffffffffffffffff811115611bdf577f4e487b7100000000000000000000000000000000000000000000000000000000600052604160045260246000fd5b604051908082528060200260200182016040528015611c0d5781602001602082028036833780820191505090505b5090508281600081518110611c4b577f4e487b7100000000000000000000000000000000000000000000000000000000600052603260045260246000fd5b60200260200101818152505080915050919050565b611c7f8473ffffffffffffffffffffffffffffffffffffffff16611e30565b15611e28578373ffffffffffffffffffffffffffffffffffffffff1663f23a6e6187878686866040518663ffffffff1660e01b8152600401611cc5959493929190612d23565b602060405180830381600087803b158015611cdf57600080fd5b505af1925050508015611d1057506040513d601f19601f82011682018060405250810190611d0d91906125d6565b60015b611d9f57611d1c613383565b80611d275750611d64565b806040517f08c379a0000000000000000000000000000000000000000000000000000000008152600401611d5b9190612df1565b60405180910390fd5b6040517f08c379a0000000000000000000000000000000000000000000000000000000008152600401611d9690612e13565b60405180910390fd5b63f23a6e6160e01b7bffffffffffffffffffffffffffffffffffffffffffffffffffffffff1916817bffffffffffffffffffffffffffffffffffffffffffffffffffffffff191614611e26576040517f08c379a0000000000000000000000000000000000000000000000000000000008152600401611e1d90612e33565b60405180910390fd5b505b505050505050565b600080823b905060008111915050919050565b828054611e4f9061325d565b90600052602060002090601f016020900481019282611e715760008555611eb8565b82601f10611e8a57805160ff1916838001178555611eb8565b82800160010185558215611eb8579182015b82811115611eb7578251825591602001919060010190611e9c565b5b509050611ec59190611ec9565b5090565b5b80821115611ee2576000816000905550600101611eca565b5090565b6000611ef9611ef484613028565b612ff7565b90508083825260208201905082856020860282011115611f1857600080fd5b60005b85811015611f485781611f2e888261203a565b845260208401935060208301925050600181019050611f1b565b5050509392505050565b6000611f65611f6084613054565b612ff7565b90508083825260208201905082856020860282011115611f8457600080fd5b60005b85811015611fb45781611f9a8882612136565b845260208401935060208301925050600181019050611f87565b5050509392505050565b6000611fd1611fcc84613080565b612ff7565b905082815260208101848484011115611fe957600080fd5b611ff484828561321b565b509392505050565b600061200f61200a846130b0565b612ff7565b90508281526020810184848401111561202757600080fd5b61203284828561321b565b509392505050565b60008135905061204981613439565b92915050565b600082601f83011261206057600080fd5b8135612070848260208601611ee6565b91505092915050565b600082601f83011261208a57600080fd5b813561209a848260208601611f52565b91505092915050565b6000813590506120b281613450565b92915050565b6000813590506120c781613467565b92915050565b6000815190506120dc81613467565b92915050565b600082601f8301126120f357600080fd5b8135612103848260208601611fbe565b91505092915050565b600082601f83011261211d57600080fd5b813561212d848260208601611ffc565b91505092915050565b6000813590506121458161347e565b92915050565b6000806040838503121561215e57600080fd5b600061216c8582860161203a565b925050602061217d8582860161203a565b9150509250929050565b600080600080600060a0868803121561219f57600080fd5b60006121ad8882890161203a565b95505060206121be8882890161203a565b945050604086013567ffffffffffffffff8111156121db57600080fd5b6121e788828901612079565b935050606086013567ffffffffffffffff81111561220457600080fd5b61221088828901612079565b925050608086013567ffffffffffffffff81111561222d57600080fd5b612239888289016120e2565b9150509295509295909350565b600080600080600060a0868803121561225e57600080fd5b600061226c8882890161203a565b955050602061227d8882890161203a565b945050604061228e88828901612136565b935050606061229f88828901612136565b925050608086013567ffffffffffffffff8111156122bc57600080fd5b6122c8888289016120e2565b9150509295509295909350565b6000806000606084860312156122ea57600080fd5b60006122f88682870161203a565b935050602084013567ffffffffffffffff81111561231557600080fd5b61232186828701612079565b925050604084013567ffffffffffffffff81111561233e57600080fd5b61234a86828701612079565b9150509250925092565b6000806000806080858703121561236a57600080fd5b60006123788782880161203a565b945050602085013567ffffffffffffffff81111561239557600080fd5b6123a187828801612079565b935050604085013567ffffffffffffffff8111156123be57600080fd5b6123ca87828801612079565b925050606085013567ffffffffffffffff8111156123e757600080fd5b6123f3878288016120e2565b91505092959194509250565b6000806040838503121561241257600080fd5b60006124208582860161203a565b9250506020612431858286016120a3565b9150509250929050565b6000806040838503121561244e57600080fd5b600061245c8582860161203a565b925050602061246d85828601612136565b9150509250929050565b60008060006060848603121561248c57600080fd5b600061249a8682870161203a565b93505060206124ab86828701612136565b92505060406124bc86828701612136565b9150509250925092565b600080600080608085870312156124dc57600080fd5b60006124ea8782880161203a565b94505060206124fb87828801612136565b935050604061250c87828801612136565b925050606085013567ffffffffffffffff81111561252957600080fd5b612535878288016120e2565b91505092959194509250565b6000806040838503121561255457600080fd5b600083013567ffffffffffffffff81111561256e57600080fd5b61257a8582860161204f565b925050602083013567ffffffffffffffff81111561259757600080fd5b6125a385828601612079565b9150509250929050565b6000602082840312156125bf57600080fd5b60006125cd848285016120b8565b91505092915050565b6000602082840312156125e857600080fd5b60006125f6848285016120cd565b91505092915050565b60006020828403121561261157600080fd5b600082013567ffffffffffffffff81111561262b57600080fd5b6126378482850161210c565b91505092915050565b60006020828403121561265257600080fd5b600061266084828501612136565b91505092915050565b60006126758383612c9d565b60208301905092915050565b61268a816131a7565b82525050565b600061269b826130f0565b6126a5818561311e565b93506126b0836130e0565b8060005b838110156126e15781516126c88882612669565b97506126d383613111565b9250506001810190506126b4565b5085935050505092915050565b6126f7816131b9565b82525050565b6000612708826130fb565b612712818561312f565b935061272281856020860161322a565b61272b81613365565b840191505092915050565b600061274182613106565b61274b8185613140565b935061275b81856020860161322a565b61276481613365565b840191505092915050565b600061277c603483613140565b91507f455243313135353a207472616e7366657220746f206e6f6e204552433131353560008301527f526563656976657220696d706c656d656e7465720000000000000000000000006020830152604082019050919050565b60006127e2602883613140565b91507f455243313135353a204552433131353552656365697665722072656a6563746560008301527f6420746f6b656e730000000000000000000000000000000000000000000000006020830152604082019050919050565b6000612848602b83613140565b91507f455243313135353a2062616c616e636520717565727920666f7220746865207a60008301527f65726f20616464726573730000000000000000000000000000000000000000006020830152604082019050919050565b60006128ae602483613140565b91507f455243313135353a206275726e20616d6f756e7420657863656564732062616c60008301527f616e6365000000000000000000000000000000000000000000000000000000006020830152604082019050919050565b6000612914602983613140565b91507f455243313135353a2063616c6c6572206973206e6f74206f776e6572206e6f7260008301527f20617070726f76656400000000000000000000000000000000000000000000006020830152604082019050919050565b600061297a602583613140565b91507f455243313135353a207472616e7366657220746f20746865207a65726f20616460008301527f64726573730000000000000000000000000000000000000000000000000000006020830152604082019050919050565b60006129e0603283613140565b91507f455243313135353a207472616e736665722063616c6c6572206973206e6f742060008301527f6f776e6572206e6f7220617070726f76656400000000000000000000000000006020830152604082019050919050565b6000612a46602383613140565b91507f455243313135353a206275726e2066726f6d20746865207a65726f206164647260008301527f65737300000000000000000000000000000000000000000000000000000000006020830152604082019050919050565b6000612aac602a83613140565b91507f455243313135353a20696e73756666696369656e742062616c616e636520666f60008301527f72207472616e73666572000000000000000000000000000000000000000000006020830152604082019050919050565b6000612b12602983613140565b91507f455243313135353a2073657474696e6720617070726f76616c2073746174757360008301527f20666f722073656c6600000000000000000000000000000000000000000000006020830152604082019050919050565b6000612b78602983613140565b91507f455243313135353a206163636f756e747320616e6420696473206c656e67746860008301527f206d69736d6174636800000000000000000000000000000000000000000000006020830152604082019050919050565b6000612bde602883613140565b91507f455243313135353a2069647320616e6420616d6f756e7473206c656e6774682060008301527f6d69736d617463680000000000000000000000000000000000000000000000006020830152604082019050919050565b6000612c44602183613140565b91507f455243313135353a206d696e7420746f20746865207a65726f2061646472657360008301527f73000000000000000000000000000000000000000000000000000000000000006020830152604082019050919050565b612ca681613211565b82525050565b612cb581613211565b82525050565b600060a082019050612cd06000830188612681565b612cdd6020830187612681565b8181036040830152612cef8186612690565b90508181036060830152612d038185612690565b90508181036080830152612d1781846126fd565b90509695505050505050565b600060a082019050612d386000830188612681565b612d456020830187612681565b612d526040830186612cac565b612d5f6060830185612cac565b8181036080830152612d7181846126fd565b90509695505050505050565b60006020820190508181036000830152612d978184612690565b905092915050565b60006040820190508181036000830152612db98185612690565b90508181036020830152612dcd8184612690565b90509392505050565b6000602082019050612deb60008301846126ee565b92915050565b60006020820190508181036000830152612e0b8184612736565b905092915050565b60006020820190508181036000830152612e2c8161276f565b9050919050565b60006020820190508181036000830152612e4c816127d5565b9050919050565b60006020820190508181036000830152612e6c8161283b565b9050919050565b60006020820190508181036000830152612e8c816128a1565b9050919050565b60006020820190508181036000830152612eac81612907565b9050919050565b60006020820190508181036000830152612ecc8161296d565b9050919050565b60006020820190508181036000830152612eec816129d3565b9050919050565b60006020820190508181036000830152612f0c81612a39565b9050919050565b60006020820190508181036000830152612f2c81612a9f565b9050919050565b60006020820190508181036000830152612f4c81612b05565b9050919050565b60006020820190508181036000830152612f6c81612b6b565b9050919050565b60006020820190508181036000830152612f8c81612bd1565b9050919050565b60006020820190508181036000830152612fac81612c37565b9050919050565b6000602082019050612fc86000830184612cac565b92915050565b6000604082019050612fe36000830185612cac565b612ff06020830184612cac565b9392505050565b6000604051905081810181811067ffffffffffffffff8211171561301e5761301d613336565b5b8060405250919050565b600067ffffffffffffffff82111561304357613042613336565b5b602082029050602081019050919050565b600067ffffffffffffffff82111561306f5761306e613336565b5b602082029050602081019050919050565b600067ffffffffffffffff82111561309b5761309a613336565b5b601f19601f8301169050602081019050919050565b600067ffffffffffffffff8211156130cb576130ca613336565b5b601f19601f8301169050602081019050919050565b6000819050602082019050919050565b600081519050919050565b600081519050919050565b600081519050919050565b6000602082019050919050565b600082825260208201905092915050565b600082825260208201905092915050565b600082825260208201905092915050565b600061315c82613211565b915061316783613211565b9250827fffffffffffffffffffffffffffffffffffffffffffffffffffffffffffffffff0382111561319c5761319b6132d8565b5b828201905092915050565b60006131b2826131f1565b9050919050565b60008115159050919050565b60007fffffffff0000000000000000000000000000000000000000000000000000000082169050919050565b600073ffffffffffffffffffffffffffffffffffffffff82169050919050565b6000819050919050565b82818337600083830152505050565b60005b8381101561324857808201518184015260208101905061322d565b83811115613257576000848401525b50505050565b6000600282049050600182168061327557607f821691505b6020821081141561328957613288613307565b5b50919050565b600061329a82613211565b91507fffffffffffffffffffffffffffffffffffffffffffffffffffffffffffffffff8214156132cd576132cc6132d8565b5b600182019050919050565b7f4e487b7100000000000000000000000000000000000000000000000000000000600052601160045260246000fd5b7f4e487b7100000000000000000000000000000000000000000000000000000000600052602260045260246000fd5b7f4e487b7100000000000000000000000000000000000000000000000000000000600052604160045260246000fd5b6000601f19601f8301169050919050565b60008160e01c9050919050565b600060443d101561339357613436565b60046000803e6133a4600051613376565b6308c379a081146133b55750613436565b60405160043d036004823e80513d602482011167ffffffffffffffff821117156133e157505050613436565b808201805167ffffffffffffffff811115613400575050505050613436565b8060208301013d850181111561341b57505050505050613436565b61342482613365565b60208401016040528296505050505050505b90565b613442816131a7565b811461344d57600080fd5b50565b613459816131b9565b811461346457600080fd5b50565b613470816131c5565b811461347b57600080fd5b50565b61348781613211565b811461349257600080fd5b5056fea26469706673582212208127d4e9f70dc5998e968c128c5aee3755b226f5c71f1ef4786ef42d29f052b164736f6c63430008000033",
  "immutableReferences": {},
  "source": "// SPDX-License-Identifier: MIT\n\npragma solidity ^0.8.0;\n\nimport \"./ERC1155.sol\";\n\n/**\n * @title ERC1155Mock\n * This mock just publicizes internal functions for testing purposes\n */\ncontract ERC1155Mock is ERC1155 {\n    constructor(string memory uri) ERC1155(uri) {}\n\n    function setURI(string memory newuri) public {\n        _setURI(newuri);\n    }\n\n    function mint(\n        address to,\n        uint256 id,\n        uint256 value,\n        bytes memory data\n    ) public {\n        _mint(to, id, value, data);\n    }\n\n    function mintBatch(\n        address to,\n        uint256[] memory ids,\n        uint256[] memory values,\n        bytes memory data\n    ) public {\n        _mintBatch(to, ids, values, data);\n    }\n\n    function burn(\n        address owner,\n        uint256 id,\n        uint256 value\n    ) public {\n        _burn(owner, id, value);\n    }\n\n    function burnBatch(\n        address owner,\n        uint256[] memory ids,\n        uint256[] memory values\n    ) public {\n        _burnBatch(owner, ids, values);\n    }\n}",
  "sourcePath": "/home/mohsin/Desktop/Solidity/contracts/ERC1155/ERC1155Mock.sol",
  "compiler": {
    "name": "solc",
    "version": "0.8.0+commit.c7dfd78e.Emscripten.clang"
  },
  "schemaVersion": "3.4.3",
  "updatedAt": "2021-10-04T11:59:12.017Z",
  "devdoc": {
    "kind": "dev",
    "methods": {
      "balanceOf(address,uint256)": {
        "details": "See {IERC1155-balanceOf}. Requirements: - `account` cannot be the zero address."
      },
      "balanceOfBatch(address[],uint256[])": {
        "details": "See {IERC1155-balanceOfBatch}. Requirements: - `accounts` and `ids` must have the same length."
      },
      "isApprovedForAll(address,address)": {
        "details": "See {IERC1155-isApprovedForAll}."
      },
      "safeBatchTransferFrom(address,address,uint256[],uint256[],bytes)": {
        "details": "See {IERC1155-safeBatchTransferFrom}."
      },
      "safeTransferFrom(address,address,uint256,uint256,bytes)": {
        "details": "See {IERC1155-safeTransferFrom}."
      },
      "setApprovalForAll(address,bool)": {
        "details": "See {IERC1155-setApprovalForAll}."
      },
      "supportsInterface(bytes4)": {
        "details": "See {IERC165-supportsInterface}."
      },
      "uri(uint256)": {
        "details": "See {IERC1155MetadataURI-uri}. This implementation returns the same URI for *all* token types. It relies on the token type ID substitution mechanism https://eips.ethereum.org/EIPS/eip-1155#metadata[defined in the EIP]. Clients calling this function must replace the `\\{id\\}` substring with the actual token type ID."
      }
    },
    "title": "ERC1155Mock This mock just publicizes internal functions for testing purposes",
    "version": 1
  },
  "userdoc": {
    "kind": "user",
    "methods": {},
    "version": 1
  }
}