{
  "contractName": "ERC1155Mock",
  "abi": [
    {
      "inputs": [
        {
          "internalType": "string",
          "name": "uri",
          "type": "string"
        }
      ],
      "stateMutability": "nonpayable",
      "type": "constructor"
    },
    {
      "anonymous": false,
      "inputs": [
        {
          "indexed": true,
          "internalType": "address",
          "name": "account",
          "type": "address"
        },
        {
          "indexed": true,
          "internalType": "address",
          "name": "operator",
          "type": "address"
        },
        {
          "indexed": false,
          "internalType": "bool",
          "name": "approved",
          "type": "bool"
        }
      ],
      "name": "ApprovalForAll",
      "type": "event"
    },
    {
      "anonymous": false,
      "inputs": [
        {
          "indexed": true,
          "internalType": "address",
          "name": "operator",
          "type": "address"
        },
        {
          "indexed": true,
          "internalType": "address",
          "name": "from",
          "type": "address"
        },
        {
          "indexed": true,
          "internalType": "address",
          "name": "to",
          "type": "address"
        },
        {
          "indexed": false,
          "internalType": "uint256[]",
          "name": "ids",
          "type": "uint256[]"
        },
        {
          "indexed": false,
          "internalType": "uint256[]",
          "name": "values",
          "type": "uint256[]"
        }
      ],
      "name": "TransferBatch",
      "type": "event"
    },
    {
      "anonymous": false,
      "inputs": [
        {
          "indexed": true,
          "internalType": "address",
          "name": "operator",
          "type": "address"
        },
        {
          "indexed": true,
          "internalType": "address",
          "name": "from",
          "type": "address"
        },
        {
          "indexed": true,
          "internalType": "address",
          "name": "to",
          "type": "address"
        },
        {
          "indexed": false,
          "internalType": "uint256",
          "name": "id",
          "type": "uint256"
        },
        {
          "indexed": false,
          "internalType": "uint256",
          "name": "value",
          "type": "uint256"
        }
      ],
      "name": "TransferSingle",
      "type": "event"
    },
    {
      "anonymous": false,
      "inputs": [
        {
          "indexed": false,
          "internalType": "string",
          "name": "value",
          "type": "string"
        },
        {
          "indexed": true,
          "internalType": "uint256",
          "name": "id",
          "type": "uint256"
        }
      ],
      "name": "URI",
      "type": "event"
    },
    {
      "inputs": [
        {
          "internalType": "address",
          "name": "account",
          "type": "address"
        },
        {
          "internalType": "uint256",
          "name": "id",
          "type": "uint256"
        }
      ],
      "name": "balanceOf",
      "outputs": [
        {
          "internalType": "uint256",
          "name": "",
          "type": "uint256"
        }
      ],
      "stateMutability": "view",
      "type": "function"
    },
    {
      "inputs": [
        {
          "internalType": "address[]",
          "name": "accounts",
          "type": "address[]"
        },
        {
          "internalType": "uint256[]",
          "name": "ids",
          "type": "uint256[]"
        }
      ],
      "name": "balanceOfBatch",
      "outputs": [
        {
          "internalType": "uint256[]",
          "name": "",
          "type": "uint256[]"
        }
      ],
      "stateMutability": "view",
      "type": "function"
    },
    {
      "inputs": [
        {
          "internalType": "address",
          "name": "account",
          "type": "address"
        },
        {
          "internalType": "address",
          "name": "operator",
          "type": "address"
        }
      ],
      "name": "isApprovedForAll",
      "outputs": [
        {
          "internalType": "bool",
          "name": "",
          "type": "bool"
        }
      ],
      "stateMutability": "view",
      "type": "function"
    },
    {
      "inputs": [
        {
          "internalType": "address",
          "name": "from",
          "type": "address"
        },
        {
          "internalType": "address",
          "name": "to",
          "type": "address"
        },
        {
          "internalType": "uint256[]",
          "name": "ids",
          "type": "uint256[]"
        },
        {
          "internalType": "uint256[]",
          "name": "amounts",
          "type": "uint256[]"
        },
        {
          "internalType": "bytes",
          "name": "data",
          "type": "bytes"
        }
      ],
      "name": "safeBatchTransferFrom",
      "outputs": [],
      "stateMutability": "nonpayable",
      "type": "function"
    },
    {
      "inputs": [
        {
          "internalType": "address",
          "name": "from",
          "type": "address"
        },
        {
          "internalType": "address",
          "name": "to",
          "type": "address"
        },
        {
          "internalType": "uint256",
          "name": "id",
          "type": "uint256"
        },
        {
          "internalType": "uint256",
          "name": "amount",
          "type": "uint256"
        },
        {
          "internalType": "bytes",
          "name": "data",
          "type": "bytes"
        }
      ],
      "name": "safeTransferFrom",
      "outputs": [],
      "stateMutability": "nonpayable",
      "type": "function"
    },
    {
      "inputs": [
        {
          "internalType": "address",
          "name": "operator",
          "type": "address"
        },
        {
          "internalType": "bool",
          "name": "approved",
          "type": "bool"
        }
      ],
      "name": "setApprovalForAll",
      "outputs": [],
      "stateMutability": "nonpayable",
      "type": "function"
    },
    {
      "inputs": [
        {
          "internalType": "bytes4",
          "name": "interfaceId",
          "type": "bytes4"
        }
      ],
      "name": "supportsInterface",
      "outputs": [
        {
          "internalType": "bool",
          "name": "",
          "type": "bool"
        }
      ],
      "stateMutability": "view",
      "type": "function"
    },
    {
      "inputs": [
        {
          "internalType": "uint256",
          "name": "",
          "type": "uint256"
        }
      ],
      "name": "uri",
      "outputs": [
        {
          "internalType": "string",
          "name": "",
          "type": "string"
        }
      ],
      "stateMutability": "view",
      "type": "function"
    },
    {
      "inputs": [
        {
          "internalType": "string",
          "name": "newuri",
          "type": "string"
        }
      ],
      "name": "setURI",
      "outputs": [],
      "stateMutability": "nonpayable",
      "type": "function"
    },
    {
      "inputs": [
        {
          "internalType": "address",
          "name": "to",
          "type": "address"
        },
        {
          "internalType": "uint256",
          "name": "id",
          "type": "uint256"
        },
        {
          "internalType": "uint256",
          "name": "value",
          "type": "uint256"
        },
        {
          "internalType": "bytes",
          "name": "data",
          "type": "bytes"
        }
      ],
      "name": "mint",
      "outputs": [],
      "stateMutability": "nonpayable",
      "type": "function"
    },
    {
      "inputs": [
        {
          "internalType": "address",
          "name": "to",
          "type": "address"
        },
        {
          "internalType": "uint256[]",
          "name": "ids",
          "type": "uint256[]"
        },
        {
          "internalType": "uint256[]",
          "name": "values",
          "type": "uint256[]"
        },
        {
          "internalType": "bytes",
          "name": "data",
          "type": "bytes"
        }
      ],
      "name": "mintBatch",
      "outputs": [],
      "stateMutability": "nonpayable",
      "type": "function"
    },
    {
      "inputs": [
        {
          "internalType": "address",
          "name": "owner",
          "type": "address"
        },
        {
          "internalType": "uint256",
          "name": "id",
          "type": "uint256"
        },
        {
          "internalType": "uint256",
          "name": "value",
          "type": "uint256"
        }
      ],
      "name": "burn",
      "outputs": [],
      "stateMutability": "nonpayable",
      "type": "function"
    },
    {
      "inputs": [
        {
          "internalType": "address",
          "name": "owner",
          "type": "address"
        },
        {
          "internalType": "uint256[]",
          "name": "ids",
          "type": "uint256[]"
        },
        {
          "internalType": "uint256[]",
          "name": "values",
          "type": "uint256[]"
        }
      ],
      "name": "burnBatch",
      "outputs": [],
      "stateMutability": "nonpayable",
      "type": "function"
    }
  ],
  "bytecode": "0x60806040523480156200001157600080fd5b506040516200383c3803806200383c8339818101604052810190620000379190620002ba565b8062000049816200005160201b60201c565b505062000370565b8060029080519060200190620000699291906200006d565b5050565b8280546200007b906200033a565b90600052602060002090601f0160209004810192826200009f5760008555620000eb565b82601f10620000ba57805160ff1916838001178555620000eb565b82800160010185558215620000eb579182015b82811115620000ea578251825591602001919060010190620000cd565b5b509050620000fa9190620000fe565b5090565b5b8082111562000119576000816000905550600101620000ff565b5090565b6000604051905090565b600080fd5b600080fd5b600080fd5b600080fd5b6000601f19601f8301169050919050565b7f4e487b7100000000000000000000000000000000000000000000000000000000600052604160045260246000fd5b62000186826200013b565b810181811067ffffffffffffffff82111715620001a857620001a76200014c565b5b80604052505050565b6000620001bd6200011d565b9050620001cb82826200017b565b919050565b600067ffffffffffffffff821115620001ee57620001ed6200014c565b5b620001f9826200013b565b9050602081019050919050565b60005b838110156200022657808201518184015260208101905062000209565b8381111562000236576000848401525b50505050565b6000620002536200024d84620001d0565b620001b1565b90508281526020810184848401111562000272576200027162000136565b5b6200027f84828562000206565b509392505050565b600082601f8301126200029f576200029e62000131565b5b8151620002b18482602086016200023c565b91505092915050565b600060208284031215620002d357620002d262000127565b5b600082015167ffffffffffffffff811115620002f457620002f36200012c565b5b620003028482850162000287565b91505092915050565b7f4e487b7100000000000000000000000000000000000000000000000000000000600052602260045260246000fd5b600060028204905060018216806200035357607f821691505b602082108114156200036a57620003696200030b565b5b50919050565b6134bc80620003806000396000f3fe608060405234801561001057600080fd5b50600436106100ce5760003560e01c80634e1273f41161008c578063a22cb46511610066578063a22cb4651461021f578063e985e9c51461023b578063f242432a1461026b578063f5298aca14610287576100ce565b80634e1273f4146101b75780636b20c454146101e7578063731133e914610203576100ce565b8062fdd58e146100d357806301ffc9a71461010357806302fe5305146101335780630e89341c1461014f5780631f7fdffa1461017f5780632eb2c2d61461019b575b600080fd5b6100ed60048036038101906100e89190611df4565b6102a3565b6040516100fa9190611e43565b60405180910390f35b61011d60048036038101906101189190611eb6565b61036c565b60405161012a9190611efe565b60405180910390f35b61014d6004803603810190610148919061205f565b61044e565b005b610169600480360381019061016491906120a8565b61045a565b604051610176919061215d565b60405180910390f35b610199600480360381019061019491906122e8565b6104ee565b005b6101b560048036038101906101b091906123a3565b610500565b005b6101d160048036038101906101cc9190612535565b6105a1565b6040516101de919061266b565b60405180910390f35b61020160048036038101906101fc919061268d565b6106ba565b005b61021d60048036038101906102189190612718565b6106ca565b005b610239600480360381019061023491906127c7565b6106dc565b005b61025560048036038101906102509190612807565b61085d565b6040516102629190611efe565b60405180910390f35b61028560048036038101906102809190612847565b6108f1565b005b6102a1600480360381019061029c91906128de565b610992565b005b60008073ffffffffffffffffffffffffffffffffffffffff168373ffffffffffffffffffffffffffffffffffffffff161415610314576040517f08c379a000000000000000000000000000000000000000000000000000000000815260040161030b906129a3565b60405180910390fd5b60008083815260200190815260200160002060008473ffffffffffffffffffffffffffffffffffffffff1673ffffffffffffffffffffffffffffffffffffffff16815260200190815260200160002054905092915050565b60007fd9b67a26000000000000000000000000000000000000000000000000000000007bffffffffffffffffffffffffffffffffffffffffffffffffffffffff1916827bffffffffffffffffffffffffffffffffffffffffffffffffffffffff1916148061043757507f0e89341c000000000000000000000000000000000000000000000000000000007bffffffffffffffffffffffffffffffffffffffffffffffffffffffff1916827bffffffffffffffffffffffffffffffffffffffffffffffffffffffff1916145b806104475750610446826109a2565b5b9050919050565b61045781610a0c565b50565b606060028054610469906129f2565b80601f0160208091040260200160405190810160405280929190818152602001828054610495906129f2565b80156104e25780601f106104b7576101008083540402835291602001916104e2565b820191906000526020600020905b8154815290600101906020018083116104c557829003601f168201915b50505050509050919050565b6104fa84848484610a26565b50505050565b610508610c44565b73ffffffffffffffffffffffffffffffffffffffff168573ffffffffffffffffffffffffffffffffffffffff16148061054e575061054d85610548610c44565b61085d565b5b61058d576040517f08c379a000000000000000000000000000000000000000000000000000000000815260040161058490612a96565b60405180910390fd5b61059a8585858585610c4c565b5050505050565b606081518351146105e7576040517f08c379a00000000000000000000000000000000000000000000000000000000081526004016105de90612b28565b60405180910390fd5b6000835167ffffffffffffffff81111561060457610603611f34565b5b6040519080825280602002602001820160405280156106325781602001602082028036833780820191505090505b50905060005b84518110156106af5761067f85828151811061065757610656612b48565b5b602002602001015185838151811061067257610671612b48565b5b60200260200101516102a3565b82828151811061069257610691612b48565b5b602002602001018181525050806106a890612ba6565b9050610638565b508091505092915050565b6106c5838383610f60565b505050565b6106d684848484611211565b50505050565b8173ffffffffffffffffffffffffffffffffffffffff166106fb610c44565b73ffffffffffffffffffffffffffffffffffffffff161415610752576040517f08c379a000000000000000000000000000000000000000000000000000000000815260040161074990612c61565b60405180910390fd5b806001600061075f610c44565b73ffffffffffffffffffffffffffffffffffffffff1673ffffffffffffffffffffffffffffffffffffffff16815260200190815260200160002060008473ffffffffffffffffffffffffffffffffffffffff1673ffffffffffffffffffffffffffffffffffffffff16815260200190815260200160002060006101000a81548160ff0219169083151502179055508173ffffffffffffffffffffffffffffffffffffffff1661080c610c44565b73ffffffffffffffffffffffffffffffffffffffff167f17307eab39ab6107e8899845ad3d59bd9653f200f220920489ca2b5937696c31836040516108519190611efe565b60405180910390a35050565b6000600160008473ffffffffffffffffffffffffffffffffffffffff1673ffffffffffffffffffffffffffffffffffffffff16815260200190815260200160002060008373ffffffffffffffffffffffffffffffffffffffff1673ffffffffffffffffffffffffffffffffffffffff16815260200190815260200160002060009054906101000a900460ff16905092915050565b6108f9610c44565b73ffffffffffffffffffffffffffffffffffffffff168573ffffffffffffffffffffffffffffffffffffffff16148061093f575061093e85610939610c44565b61085d565b5b61097e576040517f08c379a000000000000000000000000000000000000000000000000000000000815260040161097590612cf3565b60405180910390fd5b61098b85858585856113a7565b5050505050565b61099d838383611629565b505050565b60007f01ffc9a7000000000000000000000000000000000000000000000000000000007bffffffffffffffffffffffffffffffffffffffffffffffffffffffff1916827bffffffffffffffffffffffffffffffffffffffffffffffffffffffff1916149050919050565b8060029080519060200190610a22929190611ca9565b5050565b600073ffffffffffffffffffffffffffffffffffffffff168473ffffffffffffffffffffffffffffffffffffffff161415610a96576040517f08c379a0000000000000000000000000000000000000000000000000000000008152600401610a8d90612d85565b60405180910390fd5b8151835114610ada576040517f08c379a0000000000000000000000000000000000000000000000000000000008152600401610ad190612e17565b60405180910390fd5b6000610ae4610c44565b9050610af581600087878787611846565b60005b8451811015610bae57838181518110610b1457610b13612b48565b5b6020026020010151600080878481518110610b3257610b31612b48565b5b6020026020010151815260200190815260200160002060008873ffffffffffffffffffffffffffffffffffffffff1673ffffffffffffffffffffffffffffffffffffffff1681526020019081526020016000206000828254610b949190612e37565b925050819055508080610ba690612ba6565b915050610af8565b508473ffffffffffffffffffffffffffffffffffffffff16600073ffffffffffffffffffffffffffffffffffffffff168273ffffffffffffffffffffffffffffffffffffffff167f4a39dc06d4c0dbc64b70af90fd698a233a518aa5d07e595d983b8c0526c8f7fb8787604051610c26929190612e8d565b60405180910390a4610c3d8160008787878761184e565b5050505050565b600033905090565b8151835114610c90576040517f08c379a0000000000000000000000000000000000000000000000000000000008152600401610c8790612e17565b60405180910390fd5b600073ffffffffffffffffffffffffffffffffffffffff168473ffffffffffffffffffffffffffffffffffffffff161415610d00576040517f08c379a0000000000000000000000000000000000000000000000000000000008152600401610cf790612f36565b60405180910390fd5b6000610d0a610c44565b9050610d1a818787878787611846565b60005b8451811015610ecb576000858281518110610d3b57610d3a612b48565b5b602002602001015190506000858381518110610d5a57610d59612b48565b5b60200260200101519050600080600084815260200190815260200160002060008b73ffffffffffffffffffffffffffffffffffffffff1673ffffffffffffffffffffffffffffffffffffffff16815260200190815260200160002054905081811015610dfb576040517f08c379a0000000000000000000000000000000000000000000000000000000008152600401610df290612fc8565b60405180910390fd5b81810360008085815260200190815260200160002060008c73ffffffffffffffffffffffffffffffffffffffff1673ffffffffffffffffffffffffffffffffffffffff168152602001908152602001600020819055508160008085815260200190815260200160002060008b73ffffffffffffffffffffffffffffffffffffffff1673ffffffffffffffffffffffffffffffffffffffff1681526020019081526020016000206000828254610eb09190612e37565b9250508190555050505080610ec490612ba6565b9050610d1d565b508473ffffffffffffffffffffffffffffffffffffffff168673ffffffffffffffffffffffffffffffffffffffff168273ffffffffffffffffffffffffffffffffffffffff167f4a39dc06d4c0dbc64b70af90fd698a233a518aa5d07e595d983b8c0526c8f7fb8787604051610f42929190612e8d565b60405180910390a4610f5881878787878761184e565b505050505050565b600073ffffffffffffffffffffffffffffffffffffffff168373ffffffffffffffffffffffffffffffffffffffff161415610fd0576040517f08c379a0000000000000000000000000000000000000000000000000000000008152600401610fc79061305a565b60405180910390fd5b8051825114611014576040517f08c379a000000000000000000000000000000000000000000000000000000000815260040161100b90612e17565b60405180910390fd5b600061101e610c44565b905061103e81856000868660405180602001604052806000815250611846565b60005b835181101561118b57600084828151811061105f5761105e612b48565b5b60200260200101519050600084838151811061107e5761107d612b48565b5b60200260200101519050600080600084815260200190815260200160002060008973ffffffffffffffffffffffffffffffffffffffff1673ffffffffffffffffffffffffffffffffffffffff1681526020019081526020016000205490508181101561111f576040517f08c379a0000000000000000000000000000000000000000000000000000000008152600401611116906130ec565b60405180910390fd5b81810360008085815260200190815260200160002060008a73ffffffffffffffffffffffffffffffffffffffff1673ffffffffffffffffffffffffffffffffffffffff16815260200190815260200160002081905550505050808061118390612ba6565b915050611041565b50600073ffffffffffffffffffffffffffffffffffffffff168473ffffffffffffffffffffffffffffffffffffffff168273ffffffffffffffffffffffffffffffffffffffff167f4a39dc06d4c0dbc64b70af90fd698a233a518aa5d07e595d983b8c0526c8f7fb8686604051611203929190612e8d565b60405180910390a450505050565b600073ffffffffffffffffffffffffffffffffffffffff168473ffffffffffffffffffffffffffffffffffffffff161415611281576040517f08c379a000000000000000000000000000000000000000000000000000000000815260040161127890612d85565b60405180910390fd5b600061128b610c44565b90506112ac8160008761129d88611a35565b6112a688611a35565b87611846565b8260008086815260200190815260200160002060008773ffffffffffffffffffffffffffffffffffffffff1673ffffffffffffffffffffffffffffffffffffffff168152602001908152602001600020600082825461130b9190612e37565b925050819055508473ffffffffffffffffffffffffffffffffffffffff16600073ffffffffffffffffffffffffffffffffffffffff168273ffffffffffffffffffffffffffffffffffffffff167fc3d58168c5ae7397731d063d5bbf3d657854427343f4c083240f7aacaa2d0f62878760405161138992919061310c565b60405180910390a46113a081600087878787611aaf565b5050505050565b600073ffffffffffffffffffffffffffffffffffffffff168473ffffffffffffffffffffffffffffffffffffffff161415611417576040517f08c379a000000000000000000000000000000000000000000000000000000000815260040161140e90612f36565b60405180910390fd5b6000611421610c44565b905061144181878761143288611a35565b61143b88611a35565b87611846565b600080600086815260200190815260200160002060008873ffffffffffffffffffffffffffffffffffffffff1673ffffffffffffffffffffffffffffffffffffffff168152602001908152602001600020549050838110156114d8576040517f08c379a00000000000000000000000000000000000000000000000000000000081526004016114cf90612fc8565b60405180910390fd5b83810360008087815260200190815260200160002060008973ffffffffffffffffffffffffffffffffffffffff1673ffffffffffffffffffffffffffffffffffffffff168152602001908152602001600020819055508360008087815260200190815260200160002060008873ffffffffffffffffffffffffffffffffffffffff1673ffffffffffffffffffffffffffffffffffffffff168152602001908152602001600020600082825461158d9190612e37565b925050819055508573ffffffffffffffffffffffffffffffffffffffff168773ffffffffffffffffffffffffffffffffffffffff168373ffffffffffffffffffffffffffffffffffffffff167fc3d58168c5ae7397731d063d5bbf3d657854427343f4c083240f7aacaa2d0f62888860405161160a92919061310c565b60405180910390a4611620828888888888611aaf565b50505050505050565b600073ffffffffffffffffffffffffffffffffffffffff168373ffffffffffffffffffffffffffffffffffffffff161415611699576040517f08c379a00000000000000000000000000000000000000000000000000000000081526004016116909061305a565b60405180910390fd5b60006116a3610c44565b90506116d3818560006116b587611a35565b6116be87611a35565b60405180602001604052806000815250611846565b600080600085815260200190815260200160002060008673ffffffffffffffffffffffffffffffffffffffff1673ffffffffffffffffffffffffffffffffffffffff1681526020019081526020016000205490508281101561176a576040517f08c379a0000000000000000000000000000000000000000000000000000000008152600401611761906130ec565b60405180910390fd5b82810360008086815260200190815260200160002060008773ffffffffffffffffffffffffffffffffffffffff1673ffffffffffffffffffffffffffffffffffffffff16815260200190815260200160002081905550600073ffffffffffffffffffffffffffffffffffffffff168573ffffffffffffffffffffffffffffffffffffffff168373ffffffffffffffffffffffffffffffffffffffff167fc3d58168c5ae7397731d063d5bbf3d657854427343f4c083240f7aacaa2d0f62878760405161183792919061310c565b60405180910390a45050505050565b505050505050565b61186d8473ffffffffffffffffffffffffffffffffffffffff16611c96565b15611a2d578373ffffffffffffffffffffffffffffffffffffffff1663bc197c8187878686866040518663ffffffff1660e01b81526004016118b3959493929190613199565b602060405180830381600087803b1580156118cd57600080fd5b505af19250505080156118fe57506040513d601f19601f820116820180604052508101906118fb9190613216565b60015b6119a45761190a613250565b806308c379a01415611967575061191f613272565b8061192a5750611969565b806040517f08c379a000000000000000000000000000000000000000000000000000000000815260040161195e919061215d565b60405180910390fd5b505b6040517f08c379a000000000000000000000000000000000000000000000000000000000815260040161199b9061337a565b60405180910390fd5b63bc197c8160e01b7bffffffffffffffffffffffffffffffffffffffffffffffffffffffff1916817bffffffffffffffffffffffffffffffffffffffffffffffffffffffff191614611a2b576040517f08c379a0000000000000000000000000000000000000000000000000000000008152600401611a229061340c565b60405180910390fd5b505b505050505050565b60606000600167ffffffffffffffff811115611a5457611a53611f34565b5b604051908082528060200260200182016040528015611a825781602001602082028036833780820191505090505b5090508281600081518110611a9a57611a99612b48565b5b60200260200101818152505080915050919050565b611ace8473ffffffffffffffffffffffffffffffffffffffff16611c96565b15611c8e578373ffffffffffffffffffffffffffffffffffffffff1663f23a6e6187878686866040518663ffffffff1660e01b8152600401611b1495949392919061342c565b602060405180830381600087803b158015611b2e57600080fd5b505af1925050508015611b5f57506040513d601f19601f82011682018060405250810190611b5c9190613216565b60015b611c0557611b6b613250565b806308c379a01415611bc85750611b80613272565b80611b8b5750611bca565b806040517f08c379a0000000000000000000000000000000000000000000000000000000008152600401611bbf919061215d565b60405180910390fd5b505b6040517f08c379a0000000000000000000000000000000000000000000000000000000008152600401611bfc9061337a565b60405180910390fd5b63f23a6e6160e01b7bffffffffffffffffffffffffffffffffffffffffffffffffffffffff1916817bffffffffffffffffffffffffffffffffffffffffffffffffffffffff191614611c8c576040517f08c379a0000000000000000000000000000000000000000000000000000000008152600401611c839061340c565b60405180910390fd5b505b505050505050565b600080823b905060008111915050919050565b828054611cb5906129f2565b90600052602060002090601f016020900481019282611cd75760008555611d1e565b82601f10611cf057805160ff1916838001178555611d1e565b82800160010185558215611d1e579182015b82811115611d1d578251825591602001919060010190611d02565b5b509050611d2b9190611d2f565b5090565b5b80821115611d48576000816000905550600101611d30565b5090565b6000604051905090565b600080fd5b600080fd5b600073ffffffffffffffffffffffffffffffffffffffff82169050919050565b6000611d8b82611d60565b9050919050565b611d9b81611d80565b8114611da657600080fd5b50565b600081359050611db881611d92565b92915050565b6000819050919050565b611dd181611dbe565b8114611ddc57600080fd5b50565b600081359050611dee81611dc8565b92915050565b60008060408385031215611e0b57611e0a611d56565b5b6000611e1985828601611da9565b9250506020611e2a85828601611ddf565b9150509250929050565b611e3d81611dbe565b82525050565b6000602082019050611e586000830184611e34565b92915050565b60007fffffffff0000000000000000000000000000000000000000000000000000000082169050919050565b611e9381611e5e565b8114611e9e57600080fd5b50565b600081359050611eb081611e8a565b92915050565b600060208284031215611ecc57611ecb611d56565b5b6000611eda84828501611ea1565b91505092915050565b60008115159050919050565b611ef881611ee3565b82525050565b6000602082019050611f136000830184611eef565b92915050565b600080fd5b600080fd5b6000601f19601f8301169050919050565b7f4e487b7100000000000000000000000000000000000000000000000000000000600052604160045260246000fd5b611f6c82611f23565b810181811067ffffffffffffffff82111715611f8b57611f8a611f34565b5b80604052505050565b6000611f9e611d4c565b9050611faa8282611f63565b919050565b600067ffffffffffffffff821115611fca57611fc9611f34565b5b611fd382611f23565b9050602081019050919050565b82818337600083830152505050565b6000612002611ffd84611faf565b611f94565b90508281526020810184848401111561201e5761201d611f1e565b5b612029848285611fe0565b509392505050565b600082601f83011261204657612045611f19565b5b8135612056848260208601611fef565b91505092915050565b60006020828403121561207557612074611d56565b5b600082013567ffffffffffffffff81111561209357612092611d5b565b5b61209f84828501612031565b91505092915050565b6000602082840312156120be576120bd611d56565b5b60006120cc84828501611ddf565b91505092915050565b600081519050919050565b600082825260208201905092915050565b60005b8381101561210f5780820151818401526020810190506120f4565b8381111561211e576000848401525b50505050565b600061212f826120d5565b61213981856120e0565b93506121498185602086016120f1565b61215281611f23565b840191505092915050565b600060208201905081810360008301526121778184612124565b905092915050565b600067ffffffffffffffff82111561219a57612199611f34565b5b602082029050602081019050919050565b600080fd5b60006121c36121be8461217f565b611f94565b905080838252602082019050602084028301858111156121e6576121e56121ab565b5b835b8181101561220f57806121fb8882611ddf565b8452602084019350506020810190506121e8565b5050509392505050565b600082601f83011261222e5761222d611f19565b5b813561223e8482602086016121b0565b91505092915050565b600067ffffffffffffffff82111561226257612261611f34565b5b61226b82611f23565b9050602081019050919050565b600061228b61228684612247565b611f94565b9050828152602081018484840111156122a7576122a6611f1e565b5b6122b2848285611fe0565b509392505050565b600082601f8301126122cf576122ce611f19565b5b81356122df848260208601612278565b91505092915050565b6000806000806080858703121561230257612301611d56565b5b600061231087828801611da9565b945050602085013567ffffffffffffffff81111561233157612330611d5b565b5b61233d87828801612219565b935050604085013567ffffffffffffffff81111561235e5761235d611d5b565b5b61236a87828801612219565b925050606085013567ffffffffffffffff81111561238b5761238a611d5b565b5b612397878288016122ba565b91505092959194509250565b600080600080600060a086880312156123bf576123be611d56565b5b60006123cd88828901611da9565b95505060206123de88828901611da9565b945050604086013567ffffffffffffffff8111156123ff576123fe611d5b565b5b61240b88828901612219565b935050606086013567ffffffffffffffff81111561242c5761242b611d5b565b5b61243888828901612219565b925050608086013567ffffffffffffffff81111561245957612458611d5b565b5b612465888289016122ba565b9150509295509295909350565b600067ffffffffffffffff82111561248d5761248c611f34565b5b602082029050602081019050919050565b60006124b16124ac84612472565b611f94565b905080838252602082019050602084028301858111156124d4576124d36121ab565b5b835b818110156124fd57806124e98882611da9565b8452602084019350506020810190506124d6565b5050509392505050565b600082601f83011261251c5761251b611f19565b5b813561252c84826020860161249e565b91505092915050565b6000806040838503121561254c5761254b611d56565b5b600083013567ffffffffffffffff81111561256a57612569611d5b565b5b61257685828601612507565b925050602083013567ffffffffffffffff81111561259757612596611d5b565b5b6125a385828601612219565b9150509250929050565b600081519050919050565b600082825260208201905092915050565b6000819050602082019050919050565b6125e281611dbe565b82525050565b60006125f483836125d9565b60208301905092915050565b6000602082019050919050565b6000612618826125ad565b61262281856125b8565b935061262d836125c9565b8060005b8381101561265e57815161264588826125e8565b975061265083612600565b925050600181019050612631565b5085935050505092915050565b60006020820190508181036000830152612685818461260d565b905092915050565b6000806000606084860312156126a6576126a5611d56565b5b60006126b486828701611da9565b935050602084013567ffffffffffffffff8111156126d5576126d4611d5b565b5b6126e186828701612219565b925050604084013567ffffffffffffffff81111561270257612701611d5b565b5b61270e86828701612219565b9150509250925092565b6000806000806080858703121561273257612731611d56565b5b600061274087828801611da9565b945050602061275187828801611ddf565b935050604061276287828801611ddf565b925050606085013567ffffffffffffffff81111561278357612782611d5b565b5b61278f878288016122ba565b91505092959194509250565b6127a481611ee3565b81146127af57600080fd5b50565b6000813590506127c18161279b565b92915050565b600080604083850312156127de576127dd611d56565b5b60006127ec85828601611da9565b92505060206127fd858286016127b2565b9150509250929050565b6000806040838503121561281e5761281d611d56565b5b600061282c85828601611da9565b925050602061283d85828601611da9565b9150509250929050565b600080600080600060a0868803121561286357612862611d56565b5b600061287188828901611da9565b955050602061288288828901611da9565b945050604061289388828901611ddf565b93505060606128a488828901611ddf565b925050608086013567ffffffffffffffff8111156128c5576128c4611d5b565b5b6128d1888289016122ba565b9150509295509295909350565b6000806000606084860312156128f7576128f6611d56565b5b600061290586828701611da9565b935050602061291686828701611ddf565b925050604061292786828701611ddf565b9150509250925092565b7f455243313135353a2062616c616e636520717565727920666f7220746865207a60008201527f65726f2061646472657373000000000000000000000000000000000000000000602082015250565b600061298d602b836120e0565b915061299882612931565b604082019050919050565b600060208201905081810360008301526129bc81612980565b9050919050565b7f4e487b7100000000000000000000000000000000000000000000000000000000600052602260045260246000fd5b60006002820490506001821680612a0a57607f821691505b60208210811415612a1e57612a1d6129c3565b5b50919050565b7f455243313135353a207472616e736665722063616c6c6572206973206e6f742060008201527f6f776e6572206e6f7220617070726f7665640000000000000000000000000000602082015250565b6000612a806032836120e0565b9150612a8b82612a24565b604082019050919050565b60006020820190508181036000830152612aaf81612a73565b9050919050565b7f455243313135353a206163636f756e747320616e6420696473206c656e67746860008201527f206d69736d617463680000000000000000000000000000000000000000000000602082015250565b6000612b126029836120e0565b9150612b1d82612ab6565b604082019050919050565b60006020820190508181036000830152612b4181612b05565b9050919050565b7f4e487b7100000000000000000000000000000000000000000000000000000000600052603260045260246000fd5b7f4e487b7100000000000000000000000000000000000000000000000000000000600052601160045260246000fd5b6000612bb182611dbe565b91507fffffffffffffffffffffffffffffffffffffffffffffffffffffffffffffffff821415612be457612be3612b77565b5b600182019050919050565b7f455243313135353a2073657474696e6720617070726f76616c2073746174757360008201527f20666f722073656c660000000000000000000000000000000000000000000000602082015250565b6000612c4b6029836120e0565b9150612c5682612bef565b604082019050919050565b60006020820190508181036000830152612c7a81612c3e565b9050919050565b7f455243313135353a2063616c6c6572206973206e6f74206f776e6572206e6f7260008201527f20617070726f7665640000000000000000000000000000000000000000000000602082015250565b6000612cdd6029836120e0565b9150612ce882612c81565b604082019050919050565b60006020820190508181036000830152612d0c81612cd0565b9050919050565b7f455243313135353a206d696e7420746f20746865207a65726f2061646472657360008201527f7300000000000000000000000000000000000000000000000000000000000000602082015250565b6000612d6f6021836120e0565b9150612d7a82612d13565b604082019050919050565b60006020820190508181036000830152612d9e81612d62565b9050919050565b7f455243313135353a2069647320616e6420616d6f756e7473206c656e6774682060008201527f6d69736d61746368000000000000000000000000000000000000000000000000602082015250565b6000612e016028836120e0565b9150612e0c82612da5565b604082019050919050565b60006020820190508181036000830152612e3081612df4565b9050919050565b6000612e4282611dbe565b9150612e4d83611dbe565b9250827fffffffffffffffffffffffffffffffffffffffffffffffffffffffffffffffff03821115612e8257612e81612b77565b5b828201905092915050565b60006040820190508181036000830152612ea7818561260d565b90508181036020830152612ebb818461260d565b90509392505050565b7f455243313135353a207472616e7366657220746f20746865207a65726f20616460008201527f6472657373000000000000000000000000000000000000000000000000000000602082015250565b6000612f206025836120e0565b9150612f2b82612ec4565b604082019050919050565b60006020820190508181036000830152612f4f81612f13565b9050919050565b7f455243313135353a20696e73756666696369656e742062616c616e636520666f60008201527f72207472616e7366657200000000000000000000000000000000000000000000602082015250565b6000612fb2602a836120e0565b9150612fbd82612f56565b604082019050919050565b60006020820190508181036000830152612fe181612fa5565b9050919050565b7f455243313135353a206275726e2066726f6d20746865207a65726f206164647260008201527f6573730000000000000000000000000000000000000000000000000000000000602082015250565b60006130446023836120e0565b915061304f82612fe8565b604082019050919050565b6000602082019050818103600083015261307381613037565b9050919050565b7f455243313135353a206275726e20616d6f756e7420657863656564732062616c60008201527f616e636500000000000000000000000000000000000000000000000000000000602082015250565b60006130d66024836120e0565b91506130e18261307a565b604082019050919050565b60006020820190508181036000830152613105816130c9565b9050919050565b60006040820190506131216000830185611e34565b61312e6020830184611e34565b9392505050565b61313e81611d80565b82525050565b600081519050919050565b600082825260208201905092915050565b600061316b82613144565b613175818561314f565b93506131858185602086016120f1565b61318e81611f23565b840191505092915050565b600060a0820190506131ae6000830188613135565b6131bb6020830187613135565b81810360408301526131cd818661260d565b905081810360608301526131e1818561260d565b905081810360808301526131f58184613160565b90509695505050505050565b60008151905061321081611e8a565b92915050565b60006020828403121561322c5761322b611d56565b5b600061323a84828501613201565b91505092915050565b60008160e01c9050919050565b600060033d111561326f5760046000803e61326c600051613243565b90505b90565b600060443d101561328257613305565b61328a611d4c565b60043d036004823e80513d602482011167ffffffffffffffff821117156132b2575050613305565b808201805167ffffffffffffffff8111156132d05750505050613305565b80602083010160043d0385018111156132ed575050505050613305565b6132fc82602001850186611f63565b82955050505050505b90565b7f455243313135353a207472616e7366657220746f206e6f6e204552433131353560008201527f526563656976657220696d706c656d656e746572000000000000000000000000602082015250565b60006133646034836120e0565b915061336f82613308565b604082019050919050565b6000602082019050818103600083015261339381613357565b9050919050565b7f455243313135353a204552433131353552656365697665722072656a6563746560008201527f6420746f6b656e73000000000000000000000000000000000000000000000000602082015250565b60006133f66028836120e0565b91506134018261339a565b604082019050919050565b60006020820190508181036000830152613425816133e9565b9050919050565b600060a0820190506134416000830188613135565b61344e6020830187613135565b61345b6040830186611e34565b6134686060830185611e34565b818103608083015261347a8184613160565b9050969550505050505056fea26469706673582212200326e664433bfc99ff9f2771ec7775e63e6e71ad400b00031210d290e034ec5164736f6c63430008090033",
  "immutableReferences": {},
  "source": "// SPDX-License-Identifier: MIT\n\npragma solidity ^0.8.0;\n\nimport \"./ERC1155.sol\";\n\n/**\n * @title ERC1155Mock\n * This mock just publicizes internal functions for testing purposes\n */\ncontract ERC1155Mock is ERC1155 {\n    constructor(string memory uri) ERC1155(uri) {}\n\n    function setURI(string memory newuri) public {\n        _setURI(newuri);\n    }\n\n    function mint(\n        address to,\n        uint256 id,\n        uint256 value,\n        bytes memory data\n    ) public {\n        _mint(to, id, value, data);\n    }\n\n    function mintBatch(\n        address to,\n        uint256[] memory ids,\n        uint256[] memory values,\n        bytes memory data\n    ) public {\n        _mintBatch(to, ids, values, data);\n    }\n\n    function burn(\n        address owner,\n        uint256 id,\n        uint256 value\n    ) public {\n        _burn(owner, id, value);\n    }\n\n    function burnBatch(\n        address owner,\n        uint256[] memory ids,\n        uint256[] memory values\n    ) public {\n        _burnBatch(owner, ids, values);\n    }\n}",
  "sourcePath": "/home/mohsin/Desktop/Solidity/contracts/ERC1155Mock.sol",
  "compiler": {
    "name": "solc",
    "version": "0.8.9+commit.e5eed63a.Emscripten.clang"
  },
  "schemaVersion": "3.4.3",
  "updatedAt": "2021-10-03T14:54:19.289Z",
  "devdoc": {
    "kind": "dev",
    "methods": {
      "balanceOf(address,uint256)": {
        "details": "See {IERC1155-balanceOf}. Requirements: - `account` cannot be the zero address."
      },
      "balanceOfBatch(address[],uint256[])": {
        "details": "See {IERC1155-balanceOfBatch}. Requirements: - `accounts` and `ids` must have the same length."
      },
      "isApprovedForAll(address,address)": {
        "details": "See {IERC1155-isApprovedForAll}."
      },
      "safeBatchTransferFrom(address,address,uint256[],uint256[],bytes)": {
        "details": "See {IERC1155-safeBatchTransferFrom}."
      },
      "safeTransferFrom(address,address,uint256,uint256,bytes)": {
        "details": "See {IERC1155-safeTransferFrom}."
      },
      "setApprovalForAll(address,bool)": {
        "details": "See {IERC1155-setApprovalForAll}."
      },
      "supportsInterface(bytes4)": {
        "details": "See {IERC165-supportsInterface}."
      },
      "uri(uint256)": {
        "details": "See {IERC1155MetadataURI-uri}. This implementation returns the same URI for *all* token types. It relies on the token type ID substitution mechanism https://eips.ethereum.org/EIPS/eip-1155#metadata[defined in the EIP]. Clients calling this function must replace the `\\{id\\}` substring with the actual token type ID."
      }
    },
    "title": "ERC1155Mock This mock just publicizes internal functions for testing purposes",
    "version": 1
  },
  "userdoc": {
    "kind": "user",
    "methods": {},
    "version": 1
  }
}