{
  "contractName": "GhoulieNFT",
  "abi": [
    {
      "inputs": [
        {
          "internalType": "address payable",
          "name": "minter",
          "type": "address"
        }
      ],
      "stateMutability": "nonpayable",
      "type": "constructor"
    },
    {
      "anonymous": false,
      "inputs": [
        {
          "indexed": true,
          "internalType": "address",
          "name": "owner",
          "type": "address"
        },
        {
          "indexed": true,
          "internalType": "address",
          "name": "approved",
          "type": "address"
        },
        {
          "indexed": true,
          "internalType": "uint256",
          "name": "tokenId",
          "type": "uint256"
        }
      ],
      "name": "Approval",
      "type": "event"
    },
    {
      "anonymous": false,
      "inputs": [
        {
          "indexed": true,
          "internalType": "address",
          "name": "owner",
          "type": "address"
        },
        {
          "indexed": true,
          "internalType": "address",
          "name": "operator",
          "type": "address"
        },
        {
          "indexed": false,
          "internalType": "bool",
          "name": "approved",
          "type": "bool"
        }
      ],
      "name": "ApprovalForAll",
      "type": "event"
    },
    {
      "anonymous": false,
      "inputs": [
        {
          "indexed": true,
          "internalType": "address",
          "name": "previousOwner",
          "type": "address"
        },
        {
          "indexed": true,
          "internalType": "address",
          "name": "newOwner",
          "type": "address"
        }
      ],
      "name": "OwnershipTransferred",
      "type": "event"
    },
    {
      "anonymous": false,
      "inputs": [
        {
          "indexed": true,
          "internalType": "bytes32",
          "name": "role",
          "type": "bytes32"
        },
        {
          "indexed": true,
          "internalType": "bytes32",
          "name": "previousAdminRole",
          "type": "bytes32"
        },
        {
          "indexed": true,
          "internalType": "bytes32",
          "name": "newAdminRole",
          "type": "bytes32"
        }
      ],
      "name": "RoleAdminChanged",
      "type": "event"
    },
    {
      "anonymous": false,
      "inputs": [
        {
          "indexed": true,
          "internalType": "bytes32",
          "name": "role",
          "type": "bytes32"
        },
        {
          "indexed": true,
          "internalType": "address",
          "name": "account",
          "type": "address"
        },
        {
          "indexed": true,
          "internalType": "address",
          "name": "sender",
          "type": "address"
        }
      ],
      "name": "RoleGranted",
      "type": "event"
    },
    {
      "anonymous": false,
      "inputs": [
        {
          "indexed": true,
          "internalType": "bytes32",
          "name": "role",
          "type": "bytes32"
        },
        {
          "indexed": true,
          "internalType": "address",
          "name": "account",
          "type": "address"
        },
        {
          "indexed": true,
          "internalType": "address",
          "name": "sender",
          "type": "address"
        }
      ],
      "name": "RoleRevoked",
      "type": "event"
    },
    {
      "anonymous": false,
      "inputs": [
        {
          "indexed": true,
          "internalType": "address",
          "name": "from",
          "type": "address"
        },
        {
          "indexed": true,
          "internalType": "address",
          "name": "to",
          "type": "address"
        },
        {
          "indexed": true,
          "internalType": "uint256",
          "name": "tokenId",
          "type": "uint256"
        }
      ],
      "name": "Transfer",
      "type": "event"
    },
    {
      "stateMutability": "payable",
      "type": "fallback"
    },
    {
      "inputs": [],
      "name": "DEFAULT_ADMIN_ROLE",
      "outputs": [
        {
          "internalType": "bytes32",
          "name": "",
          "type": "bytes32"
        }
      ],
      "stateMutability": "view",
      "type": "function"
    },
    {
      "inputs": [],
      "name": "MAX_PUBLIC_RANGE",
      "outputs": [
        {
          "internalType": "uint256",
          "name": "",
          "type": "uint256"
        }
      ],
      "stateMutability": "view",
      "type": "function"
    },
    {
      "inputs": [],
      "name": "MAX_RANGE",
      "outputs": [
        {
          "internalType": "uint256",
          "name": "",
          "type": "uint256"
        }
      ],
      "stateMutability": "view",
      "type": "function"
    },
    {
      "inputs": [],
      "name": "MINTER_ROLE",
      "outputs": [
        {
          "internalType": "bytes32",
          "name": "",
          "type": "bytes32"
        }
      ],
      "stateMutability": "view",
      "type": "function"
    },
    {
      "inputs": [
        {
          "internalType": "address",
          "name": "to",
          "type": "address"
        },
        {
          "internalType": "uint256",
          "name": "tokenId",
          "type": "uint256"
        }
      ],
      "name": "approve",
      "outputs": [],
      "stateMutability": "nonpayable",
      "type": "function"
    },
    {
      "inputs": [
        {
          "internalType": "address",
          "name": "owner",
          "type": "address"
        }
      ],
      "name": "balanceOf",
      "outputs": [
        {
          "internalType": "uint256",
          "name": "",
          "type": "uint256"
        }
      ],
      "stateMutability": "view",
      "type": "function"
    },
    {
      "inputs": [],
      "name": "currentTokenID",
      "outputs": [
        {
          "internalType": "uint256",
          "name": "",
          "type": "uint256"
        }
      ],
      "stateMutability": "view",
      "type": "function"
    },
    {
      "inputs": [
        {
          "internalType": "uint256",
          "name": "tokenId",
          "type": "uint256"
        }
      ],
      "name": "getApproved",
      "outputs": [
        {
          "internalType": "address",
          "name": "",
          "type": "address"
        }
      ],
      "stateMutability": "view",
      "type": "function"
    },
    {
      "inputs": [
        {
          "internalType": "bytes32",
          "name": "role",
          "type": "bytes32"
        }
      ],
      "name": "getRoleAdmin",
      "outputs": [
        {
          "internalType": "bytes32",
          "name": "",
          "type": "bytes32"
        }
      ],
      "stateMutability": "view",
      "type": "function"
    },
    {
      "inputs": [
        {
          "internalType": "bytes32",
          "name": "role",
          "type": "bytes32"
        },
        {
          "internalType": "address",
          "name": "account",
          "type": "address"
        }
      ],
      "name": "grantRole",
      "outputs": [],
      "stateMutability": "nonpayable",
      "type": "function"
    },
    {
      "inputs": [
        {
          "internalType": "bytes32",
          "name": "role",
          "type": "bytes32"
        },
        {
          "internalType": "address",
          "name": "account",
          "type": "address"
        }
      ],
      "name": "hasRole",
      "outputs": [
        {
          "internalType": "bool",
          "name": "",
          "type": "bool"
        }
      ],
      "stateMutability": "view",
      "type": "function"
    },
    {
      "inputs": [
        {
          "internalType": "address",
          "name": "owner",
          "type": "address"
        },
        {
          "internalType": "address",
          "name": "operator",
          "type": "address"
        }
      ],
      "name": "isApprovedForAll",
      "outputs": [
        {
          "internalType": "bool",
          "name": "",
          "type": "bool"
        }
      ],
      "stateMutability": "view",
      "type": "function"
    },
    {
      "inputs": [],
      "name": "name",
      "outputs": [
        {
          "internalType": "string",
          "name": "",
          "type": "string"
        }
      ],
      "stateMutability": "view",
      "type": "function"
    },
    {
      "inputs": [],
      "name": "owner",
      "outputs": [
        {
          "internalType": "address",
          "name": "",
          "type": "address"
        }
      ],
      "stateMutability": "view",
      "type": "function"
    },
    {
      "inputs": [
        {
          "internalType": "uint256",
          "name": "tokenId",
          "type": "uint256"
        }
      ],
      "name": "ownerOf",
      "outputs": [
        {
          "internalType": "address",
          "name": "",
          "type": "address"
        }
      ],
      "stateMutability": "view",
      "type": "function"
    },
    {
      "inputs": [],
      "name": "presaleLimit",
      "outputs": [
        {
          "internalType": "uint256",
          "name": "",
          "type": "uint256"
        }
      ],
      "stateMutability": "view",
      "type": "function"
    },
    {
      "inputs": [],
      "name": "presaleRedemptionLimit",
      "outputs": [
        {
          "internalType": "uint256",
          "name": "",
          "type": "uint256"
        }
      ],
      "stateMutability": "view",
      "type": "function"
    },
    {
      "inputs": [],
      "name": "redemptionLimit",
      "outputs": [
        {
          "internalType": "uint256",
          "name": "",
          "type": "uint256"
        }
      ],
      "stateMutability": "view",
      "type": "function"
    },
    {
      "inputs": [],
      "name": "renounceOwnership",
      "outputs": [],
      "stateMutability": "nonpayable",
      "type": "function"
    },
    {
      "inputs": [
        {
          "internalType": "bytes32",
          "name": "role",
          "type": "bytes32"
        },
        {
          "internalType": "address",
          "name": "account",
          "type": "address"
        }
      ],
      "name": "renounceRole",
      "outputs": [],
      "stateMutability": "nonpayable",
      "type": "function"
    },
    {
      "inputs": [
        {
          "internalType": "bytes32",
          "name": "role",
          "type": "bytes32"
        },
        {
          "internalType": "address",
          "name": "account",
          "type": "address"
        }
      ],
      "name": "revokeRole",
      "outputs": [],
      "stateMutability": "nonpayable",
      "type": "function"
    },
    {
      "inputs": [
        {
          "internalType": "address",
          "name": "from",
          "type": "address"
        },
        {
          "internalType": "address",
          "name": "to",
          "type": "address"
        },
        {
          "internalType": "uint256",
          "name": "tokenId",
          "type": "uint256"
        }
      ],
      "name": "safeTransferFrom",
      "outputs": [],
      "stateMutability": "nonpayable",
      "type": "function"
    },
    {
      "inputs": [
        {
          "internalType": "address",
          "name": "from",
          "type": "address"
        },
        {
          "internalType": "address",
          "name": "to",
          "type": "address"
        },
        {
          "internalType": "uint256",
          "name": "tokenId",
          "type": "uint256"
        },
        {
          "internalType": "bytes",
          "name": "_data",
          "type": "bytes"
        }
      ],
      "name": "safeTransferFrom",
      "outputs": [],
      "stateMutability": "nonpayable",
      "type": "function"
    },
    {
      "inputs": [
        {
          "internalType": "address",
          "name": "operator",
          "type": "address"
        },
        {
          "internalType": "bool",
          "name": "approved",
          "type": "bool"
        }
      ],
      "name": "setApprovalForAll",
      "outputs": [],
      "stateMutability": "nonpayable",
      "type": "function"
    },
    {
      "inputs": [],
      "name": "symbol",
      "outputs": [
        {
          "internalType": "string",
          "name": "",
          "type": "string"
        }
      ],
      "stateMutability": "view",
      "type": "function"
    },
    {
      "inputs": [
        {
          "internalType": "address",
          "name": "from",
          "type": "address"
        },
        {
          "internalType": "address",
          "name": "to",
          "type": "address"
        },
        {
          "internalType": "uint256",
          "name": "tokenId",
          "type": "uint256"
        }
      ],
      "name": "transferFrom",
      "outputs": [],
      "stateMutability": "nonpayable",
      "type": "function"
    },
    {
      "inputs": [
        {
          "internalType": "address",
          "name": "newOwner",
          "type": "address"
        }
      ],
      "name": "transferOwnership",
      "outputs": [],
      "stateMutability": "nonpayable",
      "type": "function"
    },
    {
      "stateMutability": "payable",
      "type": "receive"
    },
    {
      "inputs": [],
      "name": "baseURI",
      "outputs": [
        {
          "internalType": "string",
          "name": "",
          "type": "string"
        }
      ],
      "stateMutability": "view",
      "type": "function"
    },
    {
      "inputs": [],
      "name": "presaleStatus",
      "outputs": [
        {
          "internalType": "bool",
          "name": "",
          "type": "bool"
        }
      ],
      "stateMutability": "view",
      "type": "function"
    },
    {
      "inputs": [],
      "name": "presaleCID",
      "outputs": [
        {
          "internalType": "string",
          "name": "",
          "type": "string"
        }
      ],
      "stateMutability": "view",
      "type": "function"
    },
    {
      "inputs": [],
      "name": "presaleRange",
      "outputs": [
        {
          "internalType": "uint256",
          "name": "",
          "type": "uint256"
        }
      ],
      "stateMutability": "view",
      "type": "function"
    },
    {
      "inputs": [],
      "name": "extPresaleStatus",
      "outputs": [
        {
          "internalType": "bool",
          "name": "",
          "type": "bool"
        }
      ],
      "stateMutability": "view",
      "type": "function"
    },
    {
      "inputs": [],
      "name": "switchPresale",
      "outputs": [],
      "stateMutability": "nonpayable",
      "type": "function"
    },
    {
      "inputs": [],
      "name": "switchExtPresale",
      "outputs": [],
      "stateMutability": "nonpayable",
      "type": "function"
    },
    {
      "inputs": [
        {
          "internalType": "uint256",
          "name": "_maxRange",
          "type": "uint256"
        }
      ],
      "name": "setMaxPublicRange",
      "outputs": [],
      "stateMutability": "nonpayable",
      "type": "function"
    },
    {
      "inputs": [
        {
          "internalType": "uint256",
          "name": "_maxRange",
          "type": "uint256"
        }
      ],
      "name": "setMaxRange",
      "outputs": [],
      "stateMutability": "nonpayable",
      "type": "function"
    },
    {
      "inputs": [
        {
          "internalType": "string",
          "name": "uri",
          "type": "string"
        }
      ],
      "name": "setBaseURI",
      "outputs": [],
      "stateMutability": "nonpayable",
      "type": "function"
    },
    {
      "inputs": [
        {
          "internalType": "string",
          "name": "newPresaleCID",
          "type": "string"
        }
      ],
      "name": "setPresaleCID",
      "outputs": [],
      "stateMutability": "nonpayable",
      "type": "function"
    },
    {
      "inputs": [
        {
          "internalType": "uint256",
          "name": "_presaleLimit",
          "type": "uint256"
        }
      ],
      "name": "setPresaleLimit",
      "outputs": [],
      "stateMutability": "nonpayable",
      "type": "function"
    },
    {
      "inputs": [
        {
          "internalType": "uint256",
          "name": "_limit",
          "type": "uint256"
        }
      ],
      "name": "setPresaleRedemptionLimit",
      "outputs": [],
      "stateMutability": "nonpayable",
      "type": "function"
    },
    {
      "inputs": [
        {
          "internalType": "uint256",
          "name": "_limit",
          "type": "uint256"
        }
      ],
      "name": "setRedemptionLimit",
      "outputs": [],
      "stateMutability": "nonpayable",
      "type": "function"
    },
    {
      "inputs": [
        {
          "internalType": "uint256",
          "name": "tokenId",
          "type": "uint256"
        }
      ],
      "name": "tokenURI",
      "outputs": [
        {
          "internalType": "string",
          "name": "",
          "type": "string"
        }
      ],
      "stateMutability": "view",
      "type": "function"
    },
    {
      "inputs": [
        {
          "internalType": "uint256",
          "name": "tokenId",
          "type": "uint256"
        },
        {
          "internalType": "string",
          "name": "uri",
          "type": "string"
        }
      ],
      "name": "ownerSetURI",
      "outputs": [],
      "stateMutability": "nonpayable",
      "type": "function"
    },
    {
      "inputs": [
        {
          "internalType": "uint256",
          "name": "tokenId",
          "type": "uint256"
        },
        {
          "internalType": "string",
          "name": "cid",
          "type": "string"
        }
      ],
      "name": "ownerMint",
      "outputs": [],
      "stateMutability": "nonpayable",
      "type": "function"
    },
    {
      "inputs": [
        {
          "internalType": "uint256[]",
          "name": "ids",
          "type": "uint256[]"
        },
        {
          "internalType": "string[]",
          "name": "cids",
          "type": "string[]"
        }
      ],
      "name": "ownerBatchMint",
      "outputs": [],
      "stateMutability": "nonpayable",
      "type": "function"
    },
    {
      "inputs": [
        {
          "internalType": "uint256",
          "name": "tokenCount",
          "type": "uint256"
        },
        {
          "internalType": "address",
          "name": "redeemer",
          "type": "address"
        },
        {
          "components": [
            {
              "internalType": "bool",
              "name": "presale",
              "type": "bool"
            },
            {
              "internalType": "uint256",
              "name": "minPrice",
              "type": "uint256"
            },
            {
              "internalType": "string",
              "name": "cid",
              "type": "string"
            },
            {
              "internalType": "bytes",
              "name": "signature",
              "type": "bytes"
            }
          ],
          "internalType": "struct GhoulieNFT.NFTVoucher[]",
          "name": "vouchers",
          "type": "tuple[]"
        }
      ],
      "name": "redeem",
      "outputs": [],
      "stateMutability": "payable",
      "type": "function"
    },
    {
      "inputs": [],
      "name": "withdraw",
      "outputs": [],
      "stateMutability": "nonpayable",
      "type": "function"
    },
    {
      "inputs": [],
      "name": "availableToWithdraw",
      "outputs": [
        {
          "internalType": "uint256",
          "name": "",
          "type": "uint256"
        }
      ],
      "stateMutability": "view",
      "type": "function"
    },
    {
      "inputs": [],
      "name": "getChainID",
      "outputs": [
        {
          "internalType": "uint256",
          "name": "",
          "type": "uint256"
        }
      ],
      "stateMutability": "view",
      "type": "function"
    },
    {
      "inputs": [],
      "name": "getNextTokenID",
      "outputs": [
        {
          "internalType": "uint256",
          "name": "",
          "type": "uint256"
        }
      ],
      "stateMutability": "view",
      "type": "function"
    },
    {
      "inputs": [
        {
          "internalType": "bytes4",
          "name": "interfaceId",
          "type": "bytes4"
        }
      ],
      "name": "supportsInterface",
      "outputs": [
        {
          "internalType": "bool",
          "name": "",
          "type": "bool"
        }
      ],
      "stateMutability": "view",
      "type": "function"
    },
    {
      "inputs": [],
      "name": "contractURI",
      "outputs": [
        {
          "internalType": "string",
          "name": "",
          "type": "string"
        }
      ],
      "stateMutability": "pure",
      "type": "function"
    }
  ],
  "bytecode": "0x610120604052612711600a556126ae600b556001600c60006101000a81548160ff0219169083151502179055506107d0600f55600560105560196011556001601360006101000a81548160ff0219169083151502179055507355463096d572d6d89554603b8366561ada382159601660006101000a81548173ffffffffffffffffffffffffffffffffffffffff021916908373ffffffffffffffffffffffffffffffffffffffff160217905550348015620000b957600080fd5b50604051620084ad380380620084ad8339818101604052810190620000df919062000b37565b6040518060400160405280600f81526020017f4c617a794e46542d566f756368657200000000000000000000000000000000008152506040518060400160405280600181526020017f31000000000000000000000000000000000000000000000000000000000000008152506040518060400160405280600981526020017f476f756c69654e465400000000000000000000000000000000000000000000008152506040518060400160405280600481526020017f474f4c45000000000000000000000000000000000000000000000000000000008152508160009080519060200190620001cf92919062000a70565b508060019080519060200190620001e892919062000a70565b50505060008280519060200120905060008280519060200120905060007f8b73c3c69bb8fe3d512ecc4cf759cc79239f7b179b0ffacaa9a75d522b39400f90508260c081815250508160e081815250504660a0818152505062000253818484620003d860201b60201c565b608081815250508061010081815250505050505050620002886200027c6200041460201b60201c565b6200041c60201b60201c565b620002ba7f9f2df0fed2c77648de5860a4cc508cd0818c85b8b8a1ab4ceeef8d981c8956a682620004e260201b60201c565b6040518060400160405280601581526020017f68747470733a2f2f697066732e696f2f697066732f0000000000000000000000815250600d90805190602001906200030792919062000a70565b506040518060600160405280603b8152602001620083fc603b9139601290805190602001906200033992919062000a70565b506000601481905550600060158190555062000377611d376040518060600160405280603b8152602001620083c1603b9139620004f860201b60201c565b620003a46126536040518060600160405280603b815260200162008472603b9139620004f860201b60201c565b620003d16127116040518060600160405280603b815260200162008437603b9139620004f860201b60201c565b5062000fab565b60008383834630604051602001620003f595949392919062000d2c565b6040516020818303038152906040528051906020012090509392505050565b600033905090565b6000600860009054906101000a900473ffffffffffffffffffffffffffffffffffffffff16905081600860006101000a81548173ffffffffffffffffffffffffffffffffffffffff021916908373ffffffffffffffffffffffffffffffffffffffff1602179055508173ffffffffffffffffffffffffffffffffffffffff168173ffffffffffffffffffffffffffffffffffffffff167f8be0079c531659141344cd1fd0a4f28419497f9722a3daafe3b4186f6b6457e060405160405180910390a35050565b620004f482826200069260201b60201c565b5050565b620005086200041460201b60201c565b73ffffffffffffffffffffffffffffffffffffffff166200052e6200078460201b60201c565b73ffffffffffffffffffffffffffffffffffffffff161462000587576040517f08c379a00000000000000000000000000000000000000000000000000000000081526004016200057e9062000e11565b60405180910390fd5b600a54821115620005cf576040517f08c379a0000000000000000000000000000000000000000000000000000000008152600401620005c69062000dcd565b60405180910390fd5b600b54821180620005e15750611d3782145b80620005ee575061265382145b62000630576040517f08c379a0000000000000000000000000000000000000000000000000000000008152600401620006279062000d89565b60405180910390fd5b62000664601660009054906101000a900473ffffffffffffffffffffffffffffffffffffffff1683620007ae60201b60201c565b806009600084815260200190815260200160002090805190602001906200068d92919062000a70565b505050565b620006a482826200099460201b60201c565b620007805760016007600084815260200190815260200160002060000160008373ffffffffffffffffffffffffffffffffffffffff1673ffffffffffffffffffffffffffffffffffffffff16815260200190815260200160002060006101000a81548160ff021916908315150217905550620007256200041460201b60201c565b73ffffffffffffffffffffffffffffffffffffffff168173ffffffffffffffffffffffffffffffffffffffff16837f2f8788117e7eff1d82e926ec794901d17c78024a50270940304540a733656f0d60405160405180910390a45b5050565b6000600860009054906101000a900473ffffffffffffffffffffffffffffffffffffffff16905090565b600073ffffffffffffffffffffffffffffffffffffffff168273ffffffffffffffffffffffffffffffffffffffff16141562000821576040517f08c379a0000000000000000000000000000000000000000000000000000000008152600401620008189062000def565b60405180910390fd5b6200083281620009ff60201b60201c565b1562000875576040517f08c379a00000000000000000000000000000000000000000000000000000000081526004016200086c9062000dab565b60405180910390fd5b620008896000838362000a6b60201b60201c565b6001600360008473ffffffffffffffffffffffffffffffffffffffff1673ffffffffffffffffffffffffffffffffffffffff1681526020019081526020016000206000828254620008db919062000e44565b92505081905550816002600083815260200190815260200160002060006101000a81548173ffffffffffffffffffffffffffffffffffffffff021916908373ffffffffffffffffffffffffffffffffffffffff160217905550808273ffffffffffffffffffffffffffffffffffffffff16600073ffffffffffffffffffffffffffffffffffffffff167fddf252ad1be2c89b69c2b068fc378daa952ba7f163c4a11628f55a4df523b3ef60405160405180910390a45050565b60006007600084815260200190815260200160002060000160008373ffffffffffffffffffffffffffffffffffffffff1673ffffffffffffffffffffffffffffffffffffffff16815260200190815260200160002060009054906101000a900460ff16905092915050565b60008073ffffffffffffffffffffffffffffffffffffffff166002600084815260200190815260200160002060009054906101000a900473ffffffffffffffffffffffffffffffffffffffff1673ffffffffffffffffffffffffffffffffffffffff1614159050919050565b505050565b82805462000a7e9062000efd565b90600052602060002090601f01602090048101928262000aa2576000855562000aee565b82601f1062000abd57805160ff191683800117855562000aee565b8280016001018555821562000aee579182015b8281111562000aed57825182559160200191906001019062000ad0565b5b50905062000afd919062000b01565b5090565b5b8082111562000b1c57600081600090555060010162000b02565b5090565b60008151905062000b318162000f91565b92915050565b60006020828403121562000b4a57600080fd5b600062000b5a8482850162000b20565b91505092915050565b62000b6e8162000ea1565b82525050565b62000b7f8162000ec9565b82525050565b600062000b9460348362000e33565b91507f4f776e6572206d696e74696e67206973206f6e6c7920616c6c6f77656420616260008301527f6f7665204d41585f5055424c49435f52414e47450000000000000000000000006020830152604082019050919050565b600062000bfc601c8362000e33565b91507f4552433732313a20746f6b656e20616c7265616479206d696e746564000000006000830152602082019050919050565b600062000c3e602f8362000e33565b91507f4d61782072616e676520666f72206d696e74696e6720746865204e465473206860008301527f6173206265656e207265616368656400000000000000000000000000000000006020830152604082019050919050565b600062000ca660208362000e33565b91507f4552433732313a206d696e7420746f20746865207a65726f20616464726573736000830152602082019050919050565b600062000ce860208362000e33565b91507f4f776e61626c653a2063616c6c6572206973206e6f7420746865206f776e65726000830152602082019050919050565b62000d268162000ef3565b82525050565b600060a08201905062000d43600083018862000b74565b62000d52602083018762000b74565b62000d61604083018662000b74565b62000d70606083018562000d1b565b62000d7f608083018462000b63565b9695505050505050565b6000602082019050818103600083015262000da48162000b85565b9050919050565b6000602082019050818103600083015262000dc68162000bed565b9050919050565b6000602082019050818103600083015262000de88162000c2f565b9050919050565b6000602082019050818103600083015262000e0a8162000c97565b9050919050565b6000602082019050818103600083015262000e2c8162000cd9565b9050919050565b600082825260208201905092915050565b600062000e518262000ef3565b915062000e5e8362000ef3565b9250827fffffffffffffffffffffffffffffffffffffffffffffffffffffffffffffffff0382111562000e965762000e9562000f33565b5b828201905092915050565b600062000eae8262000ed3565b9050919050565b600062000ec28262000ed3565b9050919050565b6000819050919050565b600073ffffffffffffffffffffffffffffffffffffffff82169050919050565b6000819050919050565b6000600282049050600182168062000f1657607f821691505b6020821081141562000f2d5762000f2c62000f62565b5b50919050565b7f4e487b7100000000000000000000000000000000000000000000000000000000600052601160045260246000fd5b7f4e487b7100000000000000000000000000000000000000000000000000000000600052602260045260246000fd5b62000f9c8162000eb5565b811462000fa857600080fd5b50565b60805160a05160c05160e051610100516173d162000ff06000396000614685015260006146c7015260006146a6015260006146320152600061465a01526173d16000f3fe6080604052600436106103035760003560e01c806370a0823111610190578063c29ad3ff116100dc578063e322ad2b11610095578063f09fbfed1161006f578063f09fbfed14610b2d578063f2fde38b14610b58578063f371742d14610b81578063ffb2902314610baa5761030a565b8063e322ad2b14610a9a578063e8a3d48514610ac5578063e985e9c514610af05761030a565b8063c29ad3ff1461099e578063c87b56dd146109b5578063ca999c21146109f2578063d539139314610a1d578063d547741f14610a48578063e18b173614610a715761030a565b806395d89b4111610149578063a22cb46511610123578063a22cb465146108f6578063acfb23551461091f578063b88d4fde1461094a578063bb62115e146109735761030a565b806395d89b41146108755780639f30b426146108a0578063a217fddf146108cb5761030a565b806370a0823114610767578063715018a6146107a45780637fd255f1146107bb57806385da735a146107e45780638da5cb5b1461080d57806391d14854146108385761030a565b80632f2ff15d1161024f57806354f4c098116102085780635a941ea2116101e25780635a941ea2146106a95780636352211e146106d4578063635d72e0146107115780636c0360eb1461073c5761030a565b806354f4c0981461063e57806355f804b314610655578063564b81ef1461067e5761030a565b80632f2ff15d1461055657806336568abe1461057f5780633ccfd60b146105a857806342842e0e146105bf5780634a198119146105e8578063525b3fe3146106135761030a565b806320d35b49116102bc57806325e1ff721161029657806325e1ff72146104b05780632605c930146104d957806328673698146105045780632c49f86a1461052d5761030a565b806320d35b491461042157806323b872dd1461044a578063248a9ca3146104735761030a565b806301ffc9a71461030c57806306fdde0314610349578063081812fc14610374578063095ea7b3146103b1578063113507a6146103da5780631566a483146103f65761030a565b3661030a57005b005b34801561031857600080fd5b50610333600480360381019061032e9190614eb2565b610bd3565b60405161034091906165db565b60405180910390f35b34801561035557600080fd5b5061035e610bf5565b60405161036b91906166ee565b60405180910390f35b34801561038057600080fd5b5061039b60048036038101906103969190614f45565b610c87565b6040516103a89190616574565b60405180910390f35b3480156103bd57600080fd5b506103d860048036038101906103d39190614d7c565b610d0c565b005b6103f460048036038101906103ef9190614f6e565b610e24565b005b34801561040257600080fd5b5061040b6111a3565b6040516104189190616d10565b60405180910390f35b34801561042d57600080fd5b5061044860048036038101906104439190614f45565b6111ad565b005b34801561045657600080fd5b50610471600480360381019061046c9190614c76565b61127a565b005b34801561047f57600080fd5b5061049a60048036038101906104959190614e4d565b6112da565b6040516104a791906165f6565b60405180910390f35b3480156104bc57600080fd5b506104d760048036038101906104d29190614fda565b6112fa565b005b3480156104e557600080fd5b506104ee611478565b6040516104fb91906165db565b60405180910390f35b34801561051057600080fd5b5061052b60048036038101906105269190614f04565b61148f565b005b34801561053957600080fd5b50610554600480360381019061054f9190614fda565b61156d565b005b34801561056257600080fd5b5061057d60048036038101906105789190614e76565b6116e2565b005b34801561058b57600080fd5b506105a660048036038101906105a19190614e76565b61170b565b005b3480156105b457600080fd5b506105bd61178e565b005b3480156105cb57600080fd5b506105e660048036038101906105e19190614c76565b611920565b005b3480156105f457600080fd5b506105fd611940565b60405161060a9190616d10565b60405180910390f35b34801561061f57600080fd5b50610628611989565b6040516106359190616d10565b60405180910390f35b34801561064a57600080fd5b5061065361198f565b005b34801561066157600080fd5b5061067c60048036038101906106779190614f04565b611b02565b005b34801561068a57600080fd5b50610693611b98565b6040516106a09190616d10565b60405180910390f35b3480156106b557600080fd5b506106be611ba5565b6040516106cb9190616d10565b60405180910390f35b3480156106e057600080fd5b506106fb60048036038101906106f69190614f45565b611bab565b6040516107089190616574565b60405180910390f35b34801561071d57600080fd5b50610726611c5d565b6040516107339190616d10565b60405180910390f35b34801561074857600080fd5b50610751611c63565b60405161075e91906166ee565b60405180910390f35b34801561077357600080fd5b5061078e60048036038101906107899190614c11565b611cf5565b60405161079b9190616d10565b60405180910390f35b3480156107b057600080fd5b506107b9611dad565b005b3480156107c757600080fd5b506107e260048036038101906107dd9190614f45565b611e35565b005b3480156107f057600080fd5b5061080b60048036038101906108069190614f45565b611f02565b005b34801561081957600080fd5b50610822611f88565b60405161082f9190616574565b60405180910390f35b34801561084457600080fd5b5061085f600480360381019061085a9190614e76565b611fb2565b60405161086c91906165db565b60405180910390f35b34801561088157600080fd5b5061088a61201d565b60405161089791906166ee565b60405180910390f35b3480156108ac57600080fd5b506108b56120af565b6040516108c29190616d10565b60405180910390f35b3480156108d757600080fd5b506108e06120b5565b6040516108ed91906165f6565b60405180910390f35b34801561090257600080fd5b5061091d60048036038101906109189190614d40565b6120bc565b005b34801561092b57600080fd5b5061093461223d565b60405161094191906165db565b60405180910390f35b34801561095657600080fd5b50610971600480360381019061096c9190614cc5565b612254565b005b34801561097f57600080fd5b506109886122b6565b6040516109959190616d10565b60405180910390f35b3480156109aa57600080fd5b506109b36122bc565b005b3480156109c157600080fd5b506109dc60048036038101906109d79190614f45565b61239c565b6040516109e991906166ee565b60405180910390f35b3480156109fe57600080fd5b50610a0761250d565b604051610a1491906166ee565b60405180910390f35b348015610a2957600080fd5b50610a3261259f565b604051610a3f91906165f6565b60405180910390f35b348015610a5457600080fd5b50610a6f6004803603810190610a6a9190614e76565b6125c3565b005b348015610a7d57600080fd5b50610a986004803603810190610a939190614db8565b6125ec565b005b348015610aa657600080fd5b50610aaf61275a565b604051610abc9190616d10565b60405180910390f35b348015610ad157600080fd5b50610ada6127a1565b604051610ae791906166ee565b60405180910390f35b348015610afc57600080fd5b50610b176004803603810190610b129190614c3a565b6127c1565b604051610b2491906165db565b60405180910390f35b348015610b3957600080fd5b50610b42612855565b604051610b4f9190616d10565b60405180910390f35b348015610b6457600080fd5b50610b7f6004803603810190610b7a9190614c11565b61285b565b005b348015610b8d57600080fd5b50610ba86004803603810190610ba39190614f45565b612953565b005b348015610bb657600080fd5b50610bd16004803603810190610bcc9190614f45565b612a1e565b005b6000610bde82612ae9565b80610bee5750610bed82612bcb565b5b9050919050565b606060008054610c0490617155565b80601f0160208091040260200160405190810160405280929190818152602001828054610c3090617155565b8015610c7d5780601f10610c5257610100808354040283529160200191610c7d565b820191906000526020600020905b815481529060010190602001808311610c6057829003601f168201915b5050505050905090565b6000610c9282612c45565b610cd1576040517f08c379a0000000000000000000000000000000000000000000000000000000008152600401610cc890616ad0565b60405180910390fd5b6004600083815260200190815260200160002060009054906101000a900473ffffffffffffffffffffffffffffffffffffffff169050919050565b6000610d1782611bab565b90508073ffffffffffffffffffffffffffffffffffffffff168373ffffffffffffffffffffffffffffffffffffffff161415610d88576040517f08c379a0000000000000000000000000000000000000000000000000000000008152600401610d7f90616b70565b60405180910390fd5b8073ffffffffffffffffffffffffffffffffffffffff16610da7612cb1565b73ffffffffffffffffffffffffffffffffffffffff161480610dd65750610dd581610dd0612cb1565b6127c1565b5b610e15576040517f08c379a0000000000000000000000000000000000000000000000000000000008152600401610e0c90616a30565b60405180910390fd5b610e1f8383612cb9565b505050565b600073ffffffffffffffffffffffffffffffffffffffff168373ffffffffffffffffffffffffffffffffffffffff161415610e94576040517f08c379a0000000000000000000000000000000000000000000000000000000008152600401610e8b90616bf0565b60405180910390fd5b818190508414610ed9576040517f08c379a0000000000000000000000000000000000000000000000000000000008152600401610ed090616890565b60405180910390fd5b6000610eeb610ee6612cb1565b611cf5565b9050610ef561223d565b15610f87576010548582610f099190616f49565b1115610f2182601054610f1c919061702a565b612d72565b604051602001610f3191906164e0565b60405160208183030381529060405290610f81576040517f08c379a0000000000000000000000000000000000000000000000000000000008152600401610f7891906166ee565b60405180910390fd5b50611010565b6011548582610f969190616f49565b1115610fae82601154610fa9919061702a565b612d72565b604051602001610fbe919061650d565b6040516020818303038152906040529061100e576040517f08c379a000000000000000000000000000000000000000000000000000000000815260040161100591906166ee565b60405180910390fd5b505b6000805b868110156110df5761107086868684818110611059577f4e487b7100000000000000000000000000000000000000000000000000000000600052603260045260246000fd5b905060200281019061106b9190616dd9565b612f1f565b8484828181106110a9577f4e487b7100000000000000000000000000000000000000000000000000000000600052603260045260246000fd5b90506020028101906110bb9190616dd9565b60200135826110ca9190616f49565b915080806110d790617187565b915050611014565b5080341015611123576040517f08c379a000000000000000000000000000000000000000000000000000000000815260040161111a90616cb0565b60405180910390fd5b3460176000601660009054906101000a900473ffffffffffffffffffffffffffffffffffffffff1673ffffffffffffffffffffffffffffffffffffffff1673ffffffffffffffffffffffffffffffffffffffff16815260200190815260200160002060008282546111949190616f49565b92505081905550505050505050565b6000601454905090565b6111b5612cb1565b73ffffffffffffffffffffffffffffffffffffffff166111d3611f88565b73ffffffffffffffffffffffffffffffffffffffff1614611229576040517f08c379a000000000000000000000000000000000000000000000000000000000815260040161122090616b30565b60405180910390fd5b61123161223d565b611270576040517f08c379a000000000000000000000000000000000000000000000000000000000815260040161126790616730565b60405180910390fd5b8060108190555050565b61128b611285612cb1565b8261313c565b6112ca576040517f08c379a00000000000000000000000000000000000000000000000000000000081526004016112c190616bb0565b60405180910390fd5b6112d583838361321a565b505050565b600060076000838152602001908152602001600020600101549050919050565b611302612cb1565b73ffffffffffffffffffffffffffffffffffffffff16611320611f88565b73ffffffffffffffffffffffffffffffffffffffff1614611376576040517f08c379a000000000000000000000000000000000000000000000000000000000815260040161136d90616b30565b60405180910390fd5b61137e6111a3565b82116113bf576040517f08c379a00000000000000000000000000000000000000000000000000000000081526004016113b690616c10565b60405180910390fd5b600a54821115611404576040517f08c379a00000000000000000000000000000000000000000000000000000000081526004016113fb90616c30565b60405180910390fd5b61140d82612c45565b61144c576040517f08c379a000000000000000000000000000000000000000000000000000000000815260040161144390616910565b60405180910390fd5b806009600084815260200190815260200160002090805190602001906114739291906148b9565b505050565b6000601360009054906101000a900460ff16905090565b611497612cb1565b73ffffffffffffffffffffffffffffffffffffffff166114b5611f88565b73ffffffffffffffffffffffffffffffffffffffff161461150b576040517f08c379a000000000000000000000000000000000000000000000000000000000815260040161150290616b30565b60405180910390fd5b61151361223d565b15611553576040517f08c379a000000000000000000000000000000000000000000000000000000000815260040161154a90616c90565b60405180910390fd5b80600e90805190602001906115699291906148b9565b5050565b611575612cb1565b73ffffffffffffffffffffffffffffffffffffffff16611593611f88565b73ffffffffffffffffffffffffffffffffffffffff16146115e9576040517f08c379a00000000000000000000000000000000000000000000000000000000081526004016115e090616b30565b60405180910390fd5b600a5482111561162e576040517f08c379a000000000000000000000000000000000000000000000000000000000815260040161162590616930565b60405180910390fd5b600b5482118061163f5750611d3782145b8061164b575061265382145b61168a576040517f08c379a000000000000000000000000000000000000000000000000000000000815260040161168190616770565b60405180910390fd5b6116b6601660009054906101000a900473ffffffffffffffffffffffffffffffffffffffff1683613476565b806009600084815260200190815260200160002090805190602001906116dd9291906148b9565b505050565b6116eb826112da565b6116fc816116f7612cb1565b613644565b61170683836136e1565b505050565b611713612cb1565b73ffffffffffffffffffffffffffffffffffffffff168173ffffffffffffffffffffffffffffffffffffffff1614611780576040517f08c379a000000000000000000000000000000000000000000000000000000000815260040161177790616cd0565b60405180910390fd5b61178a82826137c2565b5050565b601660009054906101000a900473ffffffffffffffffffffffffffffffffffffffff1673ffffffffffffffffffffffffffffffffffffffff166117cf612cb1565b73ffffffffffffffffffffffffffffffffffffffff1614611825576040517f08c379a000000000000000000000000000000000000000000000000000000000815260040161181c906167b0565b60405180910390fd5b6000601660009054906101000a900473ffffffffffffffffffffffffffffffffffffffff1690506000601760008373ffffffffffffffffffffffffffffffffffffffff1673ffffffffffffffffffffffffffffffffffffffff1681526020019081526020016000205490506000601760008473ffffffffffffffffffffffffffffffffffffffff1673ffffffffffffffffffffffffffffffffffffffff168152602001908152602001600020819055508173ffffffffffffffffffffffffffffffffffffffff166108fc829081150290604051600060405180830381858888f1935050505015801561191b573d6000803e3d6000fd5b505050565b61193b83838360405180602001604052806000815250612254565b505050565b600061195960016015546119549190616f49565b612c45565b1561197457600260155461196d9190616f49565b9050611986565b60016015546119839190616f49565b90505b90565b600f5481565b611997612cb1565b73ffffffffffffffffffffffffffffffffffffffff166119b5611f88565b73ffffffffffffffffffffffffffffffffffffffff1614611a0b576040517f08c379a0000000000000000000000000000000000000000000000000000000008152600401611a0290616b30565b60405180910390fd5b611a1361223d565b15611a53576040517f08c379a0000000000000000000000000000000000000000000000000000000008152600401611a4a90616cf0565b60405180910390fd5b6000611a5d61250d565b5111611a9e576040517f08c379a0000000000000000000000000000000000000000000000000000000008152600401611a9590616b10565b60405180910390fd5b611aa6611478565b611ae5576040517f08c379a0000000000000000000000000000000000000000000000000000000008152600401611adc90616810565b60405180910390fd5b6000601360006101000a81548160ff021916908315150217905550565b611b0a612cb1565b73ffffffffffffffffffffffffffffffffffffffff16611b28611f88565b73ffffffffffffffffffffffffffffffffffffffff1614611b7e576040517f08c379a0000000000000000000000000000000000000000000000000000000008152600401611b7590616b30565b60405180910390fd5b80600d9080519060200190611b949291906148b9565b5050565b6000804690508091505090565b60115481565b6000806002600084815260200190815260200160002060009054906101000a900473ffffffffffffffffffffffffffffffffffffffff169050600073ffffffffffffffffffffffffffffffffffffffff168173ffffffffffffffffffffffffffffffffffffffff161415611c54576040517f08c379a0000000000000000000000000000000000000000000000000000000008152600401611c4b90616a70565b60405180910390fd5b80915050919050565b600b5481565b6060600d8054611c7290617155565b80601f0160208091040260200160405190810160405280929190818152602001828054611c9e90617155565b8015611ceb5780601f10611cc057610100808354040283529160200191611ceb565b820191906000526020600020905b815481529060010190602001808311611cce57829003601f168201915b5050505050905090565b60008073ffffffffffffffffffffffffffffffffffffffff168273ffffffffffffffffffffffffffffffffffffffff161415611d66576040517f08c379a0000000000000000000000000000000000000000000000000000000008152600401611d5d90616a50565b60405180910390fd5b600360008373ffffffffffffffffffffffffffffffffffffffff1673ffffffffffffffffffffffffffffffffffffffff168152602001908152602001600020549050919050565b611db5612cb1565b73ffffffffffffffffffffffffffffffffffffffff16611dd3611f88565b73ffffffffffffffffffffffffffffffffffffffff1614611e29576040517f08c379a0000000000000000000000000000000000000000000000000000000008152600401611e2090616b30565b60405180910390fd5b611e3360006138a4565b565b611e3d612cb1565b73ffffffffffffffffffffffffffffffffffffffff16611e5b611f88565b73ffffffffffffffffffffffffffffffffffffffff1614611eb1576040517f08c379a0000000000000000000000000000000000000000000000000000000008152600401611ea890616b30565b60405180910390fd5b611eb961223d565b611ef8576040517f08c379a0000000000000000000000000000000000000000000000000000000008152600401611eef906167f0565b60405180910390fd5b80600f8190555050565b611f0a612cb1565b73ffffffffffffffffffffffffffffffffffffffff16611f28611f88565b73ffffffffffffffffffffffffffffffffffffffff1614611f7e576040517f08c379a0000000000000000000000000000000000000000000000000000000008152600401611f7590616b30565b60405180910390fd5b80600a8190555050565b6000600860009054906101000a900473ffffffffffffffffffffffffffffffffffffffff16905090565b60006007600084815260200190815260200160002060000160008373ffffffffffffffffffffffffffffffffffffffff1673ffffffffffffffffffffffffffffffffffffffff16815260200190815260200160002060009054906101000a900460ff16905092915050565b60606001805461202c90617155565b80601f016020809104026020016040519081016040528092919081815260200182805461205890617155565b80156120a55780601f1061207a576101008083540402835291602001916120a5565b820191906000526020600020905b81548152906001019060200180831161208857829003601f168201915b5050505050905090565b60105481565b6000801b81565b6120c4612cb1565b73ffffffffffffffffffffffffffffffffffffffff168273ffffffffffffffffffffffffffffffffffffffff161415612132576040517f08c379a000000000000000000000000000000000000000000000000000000000815260040161212990616990565b60405180910390fd5b806005600061213f612cb1565b73ffffffffffffffffffffffffffffffffffffffff1673ffffffffffffffffffffffffffffffffffffffff16815260200190815260200160002060008473ffffffffffffffffffffffffffffffffffffffff1673ffffffffffffffffffffffffffffffffffffffff16815260200190815260200160002060006101000a81548160ff0219169083151502179055508173ffffffffffffffffffffffffffffffffffffffff166121ec612cb1565b73ffffffffffffffffffffffffffffffffffffffff167f17307eab39ab6107e8899845ad3d59bd9653f200f220920489ca2b5937696c318360405161223191906165db565b60405180910390a35050565b6000600c60009054906101000a900460ff16905090565b61226561225f612cb1565b8361313c565b6122a4576040517f08c379a000000000000000000000000000000000000000000000000000000000815260040161229b90616bb0565b60405180910390fd5b6122b08484848461396a565b50505050565b60155481565b6122c4612cb1565b73ffffffffffffffffffffffffffffffffffffffff166122e2611f88565b73ffffffffffffffffffffffffffffffffffffffff1614612338576040517f08c379a000000000000000000000000000000000000000000000000000000000815260040161232f90616b30565b60405180910390fd5b61234061223d565b61237f576040517f08c379a0000000000000000000000000000000000000000000000000000000008152600401612376906167f0565b60405180910390fd5b6000600c60006101000a81548160ff021916908315150217905550565b60606123a782612c45565b6123e6576040517f08c379a00000000000000000000000000000000000000000000000000000000081526004016123dd90616af0565b60405180910390fd5b6123ee61223d565b15612424576123fb611c63565b601260405160200161240e929190616485565b6040516020818303038152906040529050612508565b61242c611478565b801561243f575061243b6111a3565b8211155b156124755761244c611c63565b601260405160200161245f929190616485565b6040516020818303038152906040529050612508565b61247d6111a3565b82116124ca57600061248d611c63565b61249561250d565b61249e85612d72565b6040516020016124b09392919061643e565b604051602081830303815290604052905080915050612508565b6124d2611c63565b600960008481526020019081526020016000206040516020016124f6929190616485565b60405160208183030381529060405290505b919050565b6060600e805461251c90617155565b80601f016020809104026020016040519081016040528092919081815260200182805461254890617155565b80156125955780601f1061256a57610100808354040283529160200191612595565b820191906000526020600020905b81548152906001019060200180831161257857829003601f168201915b5050505050905090565b7f9f2df0fed2c77648de5860a4cc508cd0818c85b8b8a1ab4ceeef8d981c8956a681565b6125cc826112da565b6125dd816125d8612cb1565b613644565b6125e783836137c2565b505050565b6125f4612cb1565b73ffffffffffffffffffffffffffffffffffffffff16612612611f88565b73ffffffffffffffffffffffffffffffffffffffff1614612668576040517f08c379a000000000000000000000000000000000000000000000000000000000815260040161265f90616b30565b60405180910390fd5b80518251146126ac576040517f08c379a00000000000000000000000000000000000000000000000000000000081526004016126a3906168d0565b60405180910390fd5b60005b8251811015612755576127428382815181106126f4577f4e487b7100000000000000000000000000000000000000000000000000000000600052603260045260246000fd5b6020026020010151838381518110612735577f4e487b7100000000000000000000000000000000000000000000000000000000600052603260045260246000fd5b602002602001015161156d565b808061274d90617187565b9150506126af565b505050565b6000601760003373ffffffffffffffffffffffffffffffffffffffff1673ffffffffffffffffffffffffffffffffffffffff16815260200190815260200160002054905090565b606060405180608001604052806050815260200161734c60509139905090565b6000600560008473ffffffffffffffffffffffffffffffffffffffff1673ffffffffffffffffffffffffffffffffffffffff16815260200190815260200160002060008373ffffffffffffffffffffffffffffffffffffffff1673ffffffffffffffffffffffffffffffffffffffff16815260200190815260200160002060009054906101000a900460ff16905092915050565b600a5481565b612863612cb1565b73ffffffffffffffffffffffffffffffffffffffff16612881611f88565b73ffffffffffffffffffffffffffffffffffffffff16146128d7576040517f08c379a00000000000000000000000000000000000000000000000000000000081526004016128ce90616b30565b60405180910390fd5b600073ffffffffffffffffffffffffffffffffffffffff168173ffffffffffffffffffffffffffffffffffffffff161415612947576040517f08c379a000000000000000000000000000000000000000000000000000000000815260040161293e90616870565b60405180910390fd5b612950816138a4565b50565b61295b612cb1565b73ffffffffffffffffffffffffffffffffffffffff16612979611f88565b73ffffffffffffffffffffffffffffffffffffffff16146129cf576040517f08c379a00000000000000000000000000000000000000000000000000000000081526004016129c690616b30565b60405180910390fd5b600a54811115612a14576040517f08c379a0000000000000000000000000000000000000000000000000000000008152600401612a0b90616a10565b60405180910390fd5b80600b8190555050565b612a26612cb1565b73ffffffffffffffffffffffffffffffffffffffff16612a44611f88565b73ffffffffffffffffffffffffffffffffffffffff1614612a9a576040517f08c379a0000000000000000000000000000000000000000000000000000000008152600401612a9190616b30565b60405180910390fd5b600b54811115612adf576040517f08c379a0000000000000000000000000000000000000000000000000000000008152600401612ad6906168f0565b60405180910390fd5b8060118190555050565b60007f80ac58cd000000000000000000000000000000000000000000000000000000007bffffffffffffffffffffffffffffffffffffffffffffffffffffffff1916827bffffffffffffffffffffffffffffffffffffffffffffffffffffffff19161480612bb457507f5b5e139f000000000000000000000000000000000000000000000000000000007bffffffffffffffffffffffffffffffffffffffffffffffffffffffff1916827bffffffffffffffffffffffffffffffffffffffffffffffffffffffff1916145b80612bc45750612bc3826139c6565b5b9050919050565b60007f7965db0b000000000000000000000000000000000000000000000000000000007bffffffffffffffffffffffffffffffffffffffffffffffffffffffff1916827bffffffffffffffffffffffffffffffffffffffffffffffffffffffff19161480612c3e5750612c3d82612ae9565b5b9050919050565b60008073ffffffffffffffffffffffffffffffffffffffff166002600084815260200190815260200160002060009054906101000a900473ffffffffffffffffffffffffffffffffffffffff1673ffffffffffffffffffffffffffffffffffffffff1614159050919050565b600033905090565b816004600083815260200190815260200160002060006101000a81548173ffffffffffffffffffffffffffffffffffffffff021916908373ffffffffffffffffffffffffffffffffffffffff160217905550808273ffffffffffffffffffffffffffffffffffffffff16612d2c83611bab565b73ffffffffffffffffffffffffffffffffffffffff167f8c5be1e5ebec7d5bd14f71427d1e84f3dd0314c0f7b2291e5b200ac8c7c3b92560405160405180910390a45050565b60606000821415612dba576040518060400160405280600181526020017f30000000000000000000000000000000000000000000000000000000000000008152509050612f1a565b600082905060005b60008214612dec578080612dd590617187565b915050600a82612de59190616f9f565b9150612dc2565b60008167ffffffffffffffff811115612e2e577f4e487b7100000000000000000000000000000000000000000000000000000000600052604160045260246000fd5b6040519080825280601f01601f191660200182016040528015612e605781602001600182028036833780820191505090505b5090505b60008514612f1357600182612e79919061702a565b9150600a85612e8891906171da565b6030612e949190616f49565b60f81b818381518110612ed0577f4e487b7100000000000000000000000000000000000000000000000000000000600052603260045260246000fd5b60200101907effffffffffffffffffffffffffffffffffffffffffffffffffffffffffffff1916908160001a905350600a85612f0c9190616f9f565b9450612e64565b8093505050505b919050565b600b54612f2a611940565b1115612f6b576040517f08c379a0000000000000000000000000000000000000000000000000000000008152600401612f6290616c50565b60405180910390fd5b6000612f7682613a30565b9050612fa27f9f2df0fed2c77648de5860a4cc508cd0818c85b8b8a1ab4ceeef8d981c8956a682611fb2565b612fe1576040517f08c379a0000000000000000000000000000000000000000000000000000000008152600401612fd890616b90565b60405180910390fd5b600f54612fec611940565b111561303b57612ffa61223d565b1561303a576040517f08c379a0000000000000000000000000000000000000000000000000000000008152600401613031906167d0565b60405180910390fd5b5b61304361223d565b61309b5781600001602081019061305a9190614e24565b1561309a576040517f08c379a000000000000000000000000000000000000000000000000000000000815260040161309190616750565b60405180910390fd5b5b60006130a5611940565b90506130af613aa2565b6130b761223d565b156130c5576130c4613b3f565b5b6130cf8282613476565b61312b818480604001906130e39190616d82565b8080601f016020809104026020016040519081016040528093929190818152602001838380828437600081840152601f19601f82011690508083019250505050505050613be1565b61313682858361321a565b50505050565b600061314782612c45565b613186576040517f08c379a000000000000000000000000000000000000000000000000000000000815260040161317d906169d0565b60405180910390fd5b600061319183611bab565b90508073ffffffffffffffffffffffffffffffffffffffff168473ffffffffffffffffffffffffffffffffffffffff16148061320057508373ffffffffffffffffffffffffffffffffffffffff166131e884610c87565b73ffffffffffffffffffffffffffffffffffffffff16145b80613211575061321081856127c1565b5b91505092915050565b8273ffffffffffffffffffffffffffffffffffffffff1661323a82611bab565b73ffffffffffffffffffffffffffffffffffffffff1614613290576040517f08c379a000000000000000000000000000000000000000000000000000000000815260040161328790616b50565b60405180910390fd5b600073ffffffffffffffffffffffffffffffffffffffff168273ffffffffffffffffffffffffffffffffffffffff161415613300576040517f08c379a00000000000000000000000000000000000000000000000000000000081526004016132f790616970565b60405180910390fd5b61330b838383613cd7565b613316600082612cb9565b6001600360008573ffffffffffffffffffffffffffffffffffffffff1673ffffffffffffffffffffffffffffffffffffffff1681526020019081526020016000206000828254613366919061702a565b925050819055506001600360008473ffffffffffffffffffffffffffffffffffffffff1673ffffffffffffffffffffffffffffffffffffffff16815260200190815260200160002060008282546133bd9190616f49565b92505081905550816002600083815260200190815260200160002060006101000a81548173ffffffffffffffffffffffffffffffffffffffff021916908373ffffffffffffffffffffffffffffffffffffffff160217905550808273ffffffffffffffffffffffffffffffffffffffff168473ffffffffffffffffffffffffffffffffffffffff167fddf252ad1be2c89b69c2b068fc378daa952ba7f163c4a11628f55a4df523b3ef60405160405180910390a4505050565b600073ffffffffffffffffffffffffffffffffffffffff168273ffffffffffffffffffffffffffffffffffffffff1614156134e6576040517f08c379a00000000000000000000000000000000000000000000000000000000081526004016134dd90616ab0565b60405180910390fd5b6134ef81612c45565b1561352f576040517f08c379a0000000000000000000000000000000000000000000000000000000008152600401613526906168b0565b60405180910390fd5b61353b60008383613cd7565b6001600360008473ffffffffffffffffffffffffffffffffffffffff1673ffffffffffffffffffffffffffffffffffffffff168152602001908152602001600020600082825461358b9190616f49565b92505081905550816002600083815260200190815260200160002060006101000a81548173ffffffffffffffffffffffffffffffffffffffff021916908373ffffffffffffffffffffffffffffffffffffffff160217905550808273ffffffffffffffffffffffffffffffffffffffff16600073ffffffffffffffffffffffffffffffffffffffff167fddf252ad1be2c89b69c2b068fc378daa952ba7f163c4a11628f55a4df523b3ef60405160405180910390a45050565b61364e8282611fb2565b6136dd576136738173ffffffffffffffffffffffffffffffffffffffff166014613cdc565b6136818360001c6020613cdc565b60405160200161369292919061653a565b6040516020818303038152906040526040517f08c379a00000000000000000000000000000000000000000000000000000000081526004016136d491906166ee565b60405180910390fd5b5050565b6136eb8282611fb2565b6137be5760016007600084815260200190815260200160002060000160008373ffffffffffffffffffffffffffffffffffffffff1673ffffffffffffffffffffffffffffffffffffffff16815260200190815260200160002060006101000a81548160ff021916908315150217905550613763612cb1565b73ffffffffffffffffffffffffffffffffffffffff168173ffffffffffffffffffffffffffffffffffffffff16837f2f8788117e7eff1d82e926ec794901d17c78024a50270940304540a733656f0d60405160405180910390a45b5050565b6137cc8282611fb2565b156138a05760006007600084815260200190815260200160002060000160008373ffffffffffffffffffffffffffffffffffffffff1673ffffffffffffffffffffffffffffffffffffffff16815260200190815260200160002060006101000a81548160ff021916908315150217905550613845612cb1565b73ffffffffffffffffffffffffffffffffffffffff168173ffffffffffffffffffffffffffffffffffffffff16837ff6391f5c32d9c69d2a47ea670b442974b53935d1edc7fd64eb21e047a839171b60405160405180910390a45b5050565b6000600860009054906101000a900473ffffffffffffffffffffffffffffffffffffffff16905081600860006101000a81548173ffffffffffffffffffffffffffffffffffffffff021916908373ffffffffffffffffffffffffffffffffffffffff1602179055508173ffffffffffffffffffffffffffffffffffffffff168173ffffffffffffffffffffffffffffffffffffffff167f8be0079c531659141344cd1fd0a4f28419497f9722a3daafe3b4186f6b6457e060405160405180910390a35050565b61397584848461321a565b61398184848484613fd6565b6139c0576040517f08c379a00000000000000000000000000000000000000000000000000000000081526004016139b790616850565b60405180910390fd5b50505050565b60007f01ffc9a7000000000000000000000000000000000000000000000000000000007bffffffffffffffffffffffffffffffffffffffffffffffffffffffff1916827bffffffffffffffffffffffffffffffffffffffffffffffffffffffff1916149050919050565b600080613a3c8361416d565b9050613a9a81848060600190613a529190616d2b565b8080601f016020809104026020016040519081016040528093929190818152602001838380828437600081840152601f19601f82011690508083019250505050505050614206565b915050919050565b600b546015541115613ae9576040517f08c379a0000000000000000000000000000000000000000000000000000000008152600401613ae090616bd0565b60405180910390fd5b613b006001601554613afb9190616f49565b612c45565b15613b2457600260156000828254613b189190616f49565b92505081905550613b3d565b60156000815480929190613b3790617187565b91905055505b565b600f54613b4a6111a3565b1115613b8b576040517f08c379a0000000000000000000000000000000000000000000000000000000008152600401613b8290616c70565b60405180910390fd5b613ba26001601554613b9d9190616f49565b612c45565b15613bc657600260146000828254613bba9190616f49565b92505081905550613bdf565b60146000815480929190613bd990617187565b91905055505b565b613bea82612c45565b613c29576040517f08c379a0000000000000000000000000000000000000000000000000000000008152600401613c2090616950565b60405180910390fd5b6000600960008481526020019081526020016000208054613c4990617155565b905014613c8b576040517f08c379a0000000000000000000000000000000000000000000000000000000008152600401613c82906169f0565b60405180910390fd5b613c9361223d565b1580613ca55750613ca26111a3565b82115b15613cd35780600960008481526020019081526020016000209080519060200190613cd19291906148b9565b505b5050565b505050565b606060006002836002613cef9190616fd0565b613cf99190616f49565b67ffffffffffffffff811115613d38577f4e487b7100000000000000000000000000000000000000000000000000000000600052604160045260246000fd5b6040519080825280601f01601f191660200182016040528015613d6a5781602001600182028036833780820191505090505b5090507f300000000000000000000000000000000000000000000000000000000000000081600081518110613dc8577f4e487b7100000000000000000000000000000000000000000000000000000000600052603260045260246000fd5b60200101907effffffffffffffffffffffffffffffffffffffffffffffffffffffffffffff1916908160001a9053507f780000000000000000000000000000000000000000000000000000000000000081600181518110613e52577f4e487b7100000000000000000000000000000000000000000000000000000000600052603260045260246000fd5b60200101907effffffffffffffffffffffffffffffffffffffffffffffffffffffffffffff1916908160001a90535060006001846002613e929190616fd0565b613e9c9190616f49565b90505b6001811115613f88577f3031323334353637383961626364656600000000000000000000000000000000600f861660108110613f04577f4e487b7100000000000000000000000000000000000000000000000000000000600052603260045260246000fd5b1a60f81b828281518110613f41577f4e487b7100000000000000000000000000000000000000000000000000000000600052603260045260246000fd5b60200101907effffffffffffffffffffffffffffffffffffffffffffffffffffffffffffff1916908160001a905350600485901c945080613f819061712b565b9050613e9f565b5060008414613fcc576040517f08c379a0000000000000000000000000000000000000000000000000000000008152600401613fc390616790565b60405180910390fd5b8091505092915050565b6000613ff78473ffffffffffffffffffffffffffffffffffffffff1661422d565b15614160578373ffffffffffffffffffffffffffffffffffffffff1663150b7a02614020612cb1565b8786866040518563ffffffff1660e01b8152600401614042949392919061658f565b602060405180830381600087803b15801561405c57600080fd5b505af192505050801561408d57506040513d601f19601f8201168201806040525081019061408a9190614edb565b60015b614110573d80600081146140bd576040519150601f19603f3d011682016040523d82523d6000602084013e6140c2565b606091505b50600081511415614108576040517f08c379a00000000000000000000000000000000000000000000000000000000081526004016140ff90616850565b60405180910390fd5b805181602001fd5b63150b7a0260e01b7bffffffffffffffffffffffffffffffffffffffffffffffffffffffff1916817bffffffffffffffffffffffffffffffffffffffffffffffffffffffff191614915050614165565b600190505b949350505050565b60006141ff7f9f67b1c61b2089e39f7d98615073c7968c47137301ed9686045ee416419fe8a18360000160208101906141a69190614e24565b84602001358580604001906141bb9190616d82565b6040516141c9929190616425565b60405180910390206040516020016141e49493929190616611565b60405160208183030381529060405280519060200120614240565b9050919050565b6000806000614215858561425a565b91509150614222816142dd565b819250505092915050565b600080823b905060008111915050919050565b600061425361424d61462e565b836146f1565b9050919050565b60008060418351141561429c5760008060006020860151925060408601519150606086015160001a905061429087828585614724565b945094505050506142d6565b6040835114156142cd5760008060208501519150604085015190506142c2868383614831565b9350935050506142d6565b60006002915091505b9250929050565b60006004811115614317577f4e487b7100000000000000000000000000000000000000000000000000000000600052602160045260246000fd5b816004811115614350577f4e487b7100000000000000000000000000000000000000000000000000000000600052602160045260246000fd5b141561435b5761462b565b60016004811115614395577f4e487b7100000000000000000000000000000000000000000000000000000000600052602160045260246000fd5b8160048111156143ce577f4e487b7100000000000000000000000000000000000000000000000000000000600052602160045260246000fd5b141561440f576040517f08c379a000000000000000000000000000000000000000000000000000000000815260040161440690616710565b60405180910390fd5b60026004811115614449577f4e487b7100000000000000000000000000000000000000000000000000000000600052602160045260246000fd5b816004811115614482577f4e487b7100000000000000000000000000000000000000000000000000000000600052602160045260246000fd5b14156144c3576040517f08c379a00000000000000000000000000000000000000000000000000000000081526004016144ba90616830565b60405180910390fd5b600360048111156144fd577f4e487b7100000000000000000000000000000000000000000000000000000000600052602160045260246000fd5b816004811115614536577f4e487b7100000000000000000000000000000000000000000000000000000000600052602160045260246000fd5b1415614577576040517f08c379a000000000000000000000000000000000000000000000000000000000815260040161456e906169b0565b60405180910390fd5b6004808111156145b0577f4e487b7100000000000000000000000000000000000000000000000000000000600052602160045260246000fd5b8160048111156145e9577f4e487b7100000000000000000000000000000000000000000000000000000000600052602160045260246000fd5b141561462a576040517f08c379a000000000000000000000000000000000000000000000000000000000815260040161462190616a90565b60405180910390fd5b5b50565b60007f0000000000000000000000000000000000000000000000000000000000000000461415614680577f000000000000000000000000000000000000000000000000000000000000000090506146ee565b6146eb7f00000000000000000000000000000000000000000000000000000000000000007f00000000000000000000000000000000000000000000000000000000000000007f000000000000000000000000000000000000000000000000000000000000000061487f565b90505b90565b600082826040516020016147069291906164a9565b60405160208183030381529060405280519060200120905092915050565b6000807f7fffffffffffffffffffffffffffffff5d576e7357a4501ddfe92f46681b20a08360001c111561475f576000600391509150614828565b601b8560ff16141580156147775750601c8560ff1614155b15614789576000600491509150614828565b6000600187878787604051600081526020016040526040516147ae94939291906166a9565b6020604051602081039080840390855afa1580156147d0573d6000803e3d6000fd5b505050602060405103519050600073ffffffffffffffffffffffffffffffffffffffff168173ffffffffffffffffffffffffffffffffffffffff16141561481f57600060019250925050614828565b80600092509250505b94509492505050565b6000806000807f7fffffffffffffffffffffffffffffffffffffffffffffffffffffffffffffff85169150601b8560ff1c01905061487187828885614724565b935093505050935093915050565b6000838383463060405160200161489a959493929190616656565b6040516020818303038152906040528051906020012090509392505050565b8280546148c590617155565b90600052602060002090601f0160209004810192826148e7576000855561492e565b82601f1061490057805160ff191683800117855561492e565b8280016001018555821561492e579182015b8281111561492d578251825591602001919060010190614912565b5b50905061493b919061493f565b5090565b5b80821115614958576000816000905550600101614940565b5090565b600061496f61496a84616e2e565b616dfd565b9050808382526020820190508260005b858110156149af57813585016149958882614bd2565b84526020840193506020830192505060018101905061497f565b5050509392505050565b60006149cc6149c784616e5a565b616dfd565b905080838252602082019050828560208602820111156149eb57600080fd5b60005b85811015614a1b5781614a018882614bfc565b8452602084019350602083019250506001810190506149ee565b5050509392505050565b6000614a38614a3384616e86565b616dfd565b905082815260208101848484011115614a5057600080fd5b614a5b8482856170e9565b509392505050565b6000614a76614a7184616eb6565b616dfd565b905082815260208101848484011115614a8e57600080fd5b614a998482856170e9565b509392505050565b600081359050614ab0816172d8565b92915050565b600082601f830112614ac757600080fd5b8135614ad784826020860161495c565b91505092915050565b60008083601f840112614af257600080fd5b8235905067ffffffffffffffff811115614b0b57600080fd5b602083019150836020820283011115614b2357600080fd5b9250929050565b600082601f830112614b3b57600080fd5b8135614b4b8482602086016149b9565b91505092915050565b600081359050614b63816172ef565b92915050565b600081359050614b7881617306565b92915050565b600081359050614b8d8161731d565b92915050565b600081519050614ba28161731d565b92915050565b600082601f830112614bb957600080fd5b8135614bc9848260208601614a25565b91505092915050565b600082601f830112614be357600080fd5b8135614bf3848260208601614a63565b91505092915050565b600081359050614c0b81617334565b92915050565b600060208284031215614c2357600080fd5b6000614c3184828501614aa1565b91505092915050565b60008060408385031215614c4d57600080fd5b6000614c5b85828601614aa1565b9250506020614c6c85828601614aa1565b9150509250929050565b600080600060608486031215614c8b57600080fd5b6000614c9986828701614aa1565b9350506020614caa86828701614aa1565b9250506040614cbb86828701614bfc565b9150509250925092565b60008060008060808587031215614cdb57600080fd5b6000614ce987828801614aa1565b9450506020614cfa87828801614aa1565b9350506040614d0b87828801614bfc565b925050606085013567ffffffffffffffff811115614d2857600080fd5b614d3487828801614ba8565b91505092959194509250565b60008060408385031215614d5357600080fd5b6000614d6185828601614aa1565b9250506020614d7285828601614b54565b9150509250929050565b60008060408385031215614d8f57600080fd5b6000614d9d85828601614aa1565b9250506020614dae85828601614bfc565b9150509250929050565b60008060408385031215614dcb57600080fd5b600083013567ffffffffffffffff811115614de557600080fd5b614df185828601614b2a565b925050602083013567ffffffffffffffff811115614e0e57600080fd5b614e1a85828601614ab6565b9150509250929050565b600060208284031215614e3657600080fd5b6000614e4484828501614b54565b91505092915050565b600060208284031215614e5f57600080fd5b6000614e6d84828501614b69565b91505092915050565b60008060408385031215614e8957600080fd5b6000614e9785828601614b69565b9250506020614ea885828601614aa1565b9150509250929050565b600060208284031215614ec457600080fd5b6000614ed284828501614b7e565b91505092915050565b600060208284031215614eed57600080fd5b6000614efb84828501614b93565b91505092915050565b600060208284031215614f1657600080fd5b600082013567ffffffffffffffff811115614f3057600080fd5b614f3c84828501614bd2565b91505092915050565b600060208284031215614f5757600080fd5b6000614f6584828501614bfc565b91505092915050565b60008060008060608587031215614f8457600080fd5b6000614f9287828801614bfc565b9450506020614fa387828801614aa1565b935050604085013567ffffffffffffffff811115614fc057600080fd5b614fcc87828801614ae0565b925092505092959194509250565b60008060408385031215614fed57600080fd5b6000614ffb85828601614bfc565b925050602083013567ffffffffffffffff81111561501857600080fd5b61502485828601614bd2565b9150509250929050565b6150378161705e565b82525050565b61504681617070565b82525050565b6150558161707c565b82525050565b61506c6150678261707c565b6171d0565b82525050565b600061507e8385616f22565b935061508b8385846170e9565b82840190509392505050565b60006150a282616efb565b6150ac8185616f11565b93506150bc8185602086016170f8565b6150c5816172c7565b840191505092915050565b60006150db82616f06565b6150e58185616f2d565b93506150f58185602086016170f8565b6150fe816172c7565b840191505092915050565b600061511482616f06565b61511e8185616f3e565b935061512e8185602086016170f8565b80840191505092915050565b6000815461514781617155565b6151518186616f3e565b9450600182166000811461516c576001811461517d576151b0565b60ff198316865281860193506151b0565b61518685616ee6565b60005b838110156151a857815481890152600182019150602081019050615189565b838801955050505b50505092915050565b60006151c6601883616f2d565b91507f45434453413a20696e76616c6964207369676e617475726500000000000000006000830152602082019050919050565b6000615206601183616f2d565b91507f50726573616c652068617320656e6465640000000000000000000000000000006000830152602082019050919050565b6000615246602583616f2d565b91507f566f756368657220697320696e76616c69643a2050726573616c65206861732060008301527f656e6465640000000000000000000000000000000000000000000000000000006020830152604082019050919050565b60006152ac603483616f2d565b91507f4f776e6572206d696e74696e67206973206f6e6c7920616c6c6f77656420616260008301527f6f7665204d41585f5055424c49435f52414e47450000000000000000000000006020830152604082019050919050565b6000615312602083616f2d565b91507f537472696e67733a20686578206c656e67746820696e73756666696369656e746000830152602082019050919050565b6000615352601783616f2d565b91507f556e617574686f72697a6564207769746864726177616c0000000000000000006000830152602082019050919050565b6000615392603783616f2d565b91507f50726573616c6520736f6c64206f75742c20596f752063616e6e6f742062757960008301527f20756e74696c207468652070726573616c6520656e64730000000000000000006020830152604082019050919050565b60006153f8601983616f2d565b91507f50726573616c652068617320616c726561647920656e646564000000000000006000830152602082019050919050565b6000615438602283616f2d565b91507f457874656e6465642070726573616c652068617320616c726561647920656e6460008301527f65640000000000000000000000000000000000000000000000000000000000006020830152604082019050919050565b600061549e601f83616f2d565b91507f45434453413a20696e76616c6964207369676e6174757265206c656e677468006000830152602082019050919050565b60006154de603283616f2d565b91507f4552433732313a207472616e7366657220746f206e6f6e20455243373231526560008301527f63656976657220696d706c656d656e74657200000000000000000000000000006020830152604082019050919050565b6000615544602683616f2d565b91507f4f776e61626c653a206e6577206f776e657220697320746865207a65726f206160008301527f64647265737300000000000000000000000000000000000000000000000000006020830152604082019050919050565b60006155aa602c83616f2d565b91507f746f6b656e20636f756e7420616e6420566f756368657273206c656e6774682060008301527f646f206e6f74206d6174636800000000000000000000000000000000000000006020830152604082019050919050565b6000615610601c83616f2d565b91507f4552433732313a20746f6b656e20616c7265616479206d696e746564000000006000830152602082019050919050565b6000615650601783616f3e565b91507f206d6f726520746f6b656e7320696e2070726573616c650000000000000000006000830152601782019050919050565b6000615690602583616f2d565b91507f696473206c656e67746820646f6573206e6f74206d617463682063696473206c60008301527f656e6774680000000000000000000000000000000000000000000000000000006020830152604082019050919050565b60006156f6600283616f3e565b91507f19010000000000000000000000000000000000000000000000000000000000006000830152600282019050919050565b6000615736603583616f2d565b91507f526564656d7074696f6e206c696d69742063616e6e6f74206265206d6f72652060008301527f7468616e204d41585f5055424c49435f52414e474500000000000000000000006020830152604082019050919050565b600061579c602983616f2d565b91507f43616e6e6f7420736574207468652075726920666f72206e6f6e2d657869737460008301527f656e7420746f6b656e00000000000000000000000000000000000000000000006020830152604082019050919050565b6000615802602f83616f2d565b91507f4d61782072616e676520666f72206d696e74696e6720746865204e465473206860008301527f6173206265656e207265616368656400000000000000000000000000000000006020830152604082019050919050565b6000615868602e83616f2d565b91507f53657474696e672055524920666f72206e6f6e2d6578697374656e7420746f6b60008301527f656e206e6f7420616c6c6f7765640000000000000000000000000000000000006020830152604082019050919050565b60006158ce602483616f2d565b91507f4552433732313a207472616e7366657220746f20746865207a65726f2061646460008301527f72657373000000000000000000000000000000000000000000000000000000006020830152604082019050919050565b6000615934601983616f2d565b91507f4552433732313a20617070726f766520746f2063616c6c6572000000000000006000830152602082019050919050565b6000615974600c83616f3e565b91507f206d6f726520746f6b656e7300000000000000000000000000000000000000006000830152600c82019050919050565b60006159b4602283616f2d565b91507f45434453413a20696e76616c6964207369676e6174757265202773272076616c60008301527f75650000000000000000000000000000000000000000000000000000000000006020830152604082019050919050565b6000615a1a602c83616f2d565b91507f4552433732313a206f70657261746f7220717565727920666f72206e6f6e657860008301527f697374656e7420746f6b656e00000000000000000000000000000000000000006020830152604082019050919050565b6000615a80601983616f3e565b91507f52656465656d65722063616e206f6e6c792072656465656d20000000000000006000830152601982019050919050565b6000615ac0601f83616f2d565b91507f5468697320746f6b656e27732055524920616c726561647920657869737473006000830152602082019050919050565b6000615b00602883616f2d565b91507f4d61785f5055424c49435f52414e47452063616e6e6f7420657863656564204d60008301527f41585f52414e47450000000000000000000000000000000000000000000000006020830152604082019050919050565b6000615b66603883616f2d565b91507f4552433732313a20617070726f76652063616c6c6572206973206e6f74206f7760008301527f6e6572206e6f7220617070726f76656420666f7220616c6c00000000000000006020830152604082019050919050565b6000615bcc602a83616f2d565b91507f4552433732313a2062616c616e636520717565727920666f7220746865207a6560008301527f726f2061646472657373000000000000000000000000000000000000000000006020830152604082019050919050565b6000615c32602983616f2d565b91507f4552433732313a206f776e657220717565727920666f72206e6f6e657869737460008301527f656e7420746f6b656e00000000000000000000000000000000000000000000006020830152604082019050919050565b6000615c98602283616f2d565b91507f45434453413a20696e76616c6964207369676e6174757265202776272076616c60008301527f75650000000000000000000000000000000000000000000000000000000000006020830152604082019050919050565b6000615cfe602083616f2d565b91507f4552433732313a206d696e7420746f20746865207a65726f20616464726573736000830152602082019050919050565b6000615d3e602c83616f2d565b91507f4552433732313a20617070726f76656420717565727920666f72206e6f6e657860008301527f697374656e7420746f6b656e00000000000000000000000000000000000000006020830152604082019050919050565b6000615da4601c83616f2d565b91507f517565727920666f72206e6f6e206578697374656e7420746f6b656e000000006000830152602082019050919050565b6000615de4600583616f3e565b91507f2e6a736f6e0000000000000000000000000000000000000000000000000000006000830152600582019050919050565b6000615e24602083616f2d565b91507f50726573616c652043494420686173206e6f74206265656e20736574207965746000830152602082019050919050565b6000615e64602083616f2d565b91507f4f776e61626c653a2063616c6c6572206973206e6f7420746865206f776e65726000830152602082019050919050565b6000615ea4602983616f2d565b91507f4552433732313a207472616e73666572206f6620746f6b656e2074686174206960008301527f73206e6f74206f776e00000000000000000000000000000000000000000000006020830152604082019050919050565b6000615f0a602183616f2d565b91507f4552433732313a20617070726f76616c20746f2063757272656e74206f776e6560008301527f72000000000000000000000000000000000000000000000000000000000000006020830152604082019050919050565b6000615f70602183616f2d565b91507f5369676e617475726520696e76616c6964206f7220756e617574686f72697a6560008301527f64000000000000000000000000000000000000000000000000000000000000006020830152604082019050919050565b6000615fd6603183616f2d565b91507f4552433732313a207472616e736665722063616c6c6572206973206e6f74206f60008301527f776e6572206e6f7220617070726f7665640000000000000000000000000000006020830152604082019050919050565b600061603c601a83616f2d565b91507f4d61782072616e676520686173206265656e20726561636865640000000000006000830152602082019050919050565b600061607c601783616f3e565b91507f416363657373436f6e74726f6c3a206163636f756e74200000000000000000006000830152601782019050919050565b60006160bc601883616f2d565b91507f4e756c6c2061646472657373206e6f7420616c6c6f77656400000000000000006000830152602082019050919050565b60006160fc602483616f2d565b91507f5572692063616e6e6f742062652073657420666f722050726573616c6520746f60008301527f6b656e73000000000000000000000000000000000000000000000000000000006020830152604082019050919050565b6000616162601983616f2d565b91507f546f6b656e206964206f7574206f66204d41585f52414e4745000000000000006000830152602082019050919050565b60006161a2601783616f2d565b91507f436f6d706c6574652072616e676520736f6c64206f75740000000000000000006000830152602082019050919050565b60006161e2601083616f2d565b91507f50726573616c6520736f6c64206f7574000000000000000000000000000000006000830152602082019050919050565b6000616222602d83616f2d565b91507f43616e6e6f7420736574207468652070726573616c652043494420647572696e60008301527f67207468652070726573616c65000000000000000000000000000000000000006020830152604082019050919050565b6000616288602683616f2d565b91507f496e73756666696369656e742066756e647320666f7220746865207472616e7360008301527f616374696f6e00000000000000000000000000000000000000000000000000006020830152604082019050919050565b60006162ee601183616f3e565b91507f206973206d697373696e6720726f6c65200000000000000000000000000000006000830152601182019050919050565b600061632e602f83616f2d565b91507f416363657373436f6e74726f6c3a2063616e206f6e6c792072656e6f756e636560008301527f20726f6c657320666f722073656c6600000000000000000000000000000000006020830152604082019050919050565b6000616394600183616f3e565b91507f2f000000000000000000000000000000000000000000000000000000000000006000830152600182019050919050565b60006163d4601983616f2d565b91507f50726573616c6520686173206e6f7420656e64656420796574000000000000006000830152602082019050919050565b616410816170d2565b82525050565b61641f816170dc565b82525050565b6000616432828486615072565b91508190509392505050565b600061644a8286615109565b91506164568285615109565b915061646182616387565b915061646d8284615109565b915061647882615dd7565b9150819050949350505050565b60006164918285615109565b915061649d828461513a565b91508190509392505050565b60006164b4826156e9565b91506164c0828561505b565b6020820191506164d0828461505b565b6020820191508190509392505050565b60006164eb82615a73565b91506164f78284615109565b915061650282615643565b915081905092915050565b600061651882615a73565b91506165248284615109565b915061652f82615967565b915081905092915050565b60006165458261606f565b91506165518285615109565b915061655c826162e1565b91506165688284615109565b91508190509392505050565b6000602082019050616589600083018461502e565b92915050565b60006080820190506165a4600083018761502e565b6165b1602083018661502e565b6165be6040830185616407565b81810360608301526165d08184615097565b905095945050505050565b60006020820190506165f0600083018461503d565b92915050565b600060208201905061660b600083018461504c565b92915050565b6000608082019050616626600083018761504c565b616633602083018661503d565b6166406040830185616407565b61664d606083018461504c565b95945050505050565b600060a08201905061666b600083018861504c565b616678602083018761504c565b616685604083018661504c565b6166926060830185616407565b61669f608083018461502e565b9695505050505050565b60006080820190506166be600083018761504c565b6166cb6020830186616416565b6166d8604083018561504c565b6166e5606083018461504c565b95945050505050565b6000602082019050818103600083015261670881846150d0565b905092915050565b60006020820190508181036000830152616729816151b9565b9050919050565b60006020820190508181036000830152616749816151f9565b9050919050565b6000602082019050818103600083015261676981615239565b9050919050565b600060208201905081810360008301526167898161529f565b9050919050565b600060208201905081810360008301526167a981615305565b9050919050565b600060208201905081810360008301526167c981615345565b9050919050565b600060208201905081810360008301526167e981615385565b9050919050565b60006020820190508181036000830152616809816153eb565b9050919050565b600060208201905081810360008301526168298161542b565b9050919050565b6000602082019050818103600083015261684981615491565b9050919050565b60006020820190508181036000830152616869816154d1565b9050919050565b6000602082019050818103600083015261688981615537565b9050919050565b600060208201905081810360008301526168a98161559d565b9050919050565b600060208201905081810360008301526168c981615603565b9050919050565b600060208201905081810360008301526168e981615683565b9050919050565b6000602082019050818103600083015261690981615729565b9050919050565b600060208201905081810360008301526169298161578f565b9050919050565b60006020820190508181036000830152616949816157f5565b9050919050565b600060208201905081810360008301526169698161585b565b9050919050565b60006020820190508181036000830152616989816158c1565b9050919050565b600060208201905081810360008301526169a981615927565b9050919050565b600060208201905081810360008301526169c9816159a7565b9050919050565b600060208201905081810360008301526169e981615a0d565b9050919050565b60006020820190508181036000830152616a0981615ab3565b9050919050565b60006020820190508181036000830152616a2981615af3565b9050919050565b60006020820190508181036000830152616a4981615b59565b9050919050565b60006020820190508181036000830152616a6981615bbf565b9050919050565b60006020820190508181036000830152616a8981615c25565b9050919050565b60006020820190508181036000830152616aa981615c8b565b9050919050565b60006020820190508181036000830152616ac981615cf1565b9050919050565b60006020820190508181036000830152616ae981615d31565b9050919050565b60006020820190508181036000830152616b0981615d97565b9050919050565b60006020820190508181036000830152616b2981615e17565b9050919050565b60006020820190508181036000830152616b4981615e57565b9050919050565b60006020820190508181036000830152616b6981615e97565b9050919050565b60006020820190508181036000830152616b8981615efd565b9050919050565b60006020820190508181036000830152616ba981615f63565b9050919050565b60006020820190508181036000830152616bc981615fc9565b9050919050565b60006020820190508181036000830152616be98161602f565b9050919050565b60006020820190508181036000830152616c09816160af565b9050919050565b60006020820190508181036000830152616c29816160ef565b9050919050565b60006020820190508181036000830152616c4981616155565b9050919050565b60006020820190508181036000830152616c6981616195565b9050919050565b60006020820190508181036000830152616c89816161d5565b9050919050565b60006020820190508181036000830152616ca981616215565b9050919050565b60006020820190508181036000830152616cc98161627b565b9050919050565b60006020820190508181036000830152616ce981616321565b9050919050565b60006020820190508181036000830152616d09816163c7565b9050919050565b6000602082019050616d256000830184616407565b92915050565b60008083356001602003843603038112616d4457600080fd5b80840192508235915067ffffffffffffffff821115616d6257600080fd5b602083019250600182023603831315616d7a57600080fd5b509250929050565b60008083356001602003843603038112616d9b57600080fd5b80840192508235915067ffffffffffffffff821115616db957600080fd5b602083019250600182023603831315616dd157600080fd5b509250929050565b600082356001608003833603038112616df157600080fd5b80830191505092915050565b6000604051905081810181811067ffffffffffffffff82111715616e2457616e23617298565b5b8060405250919050565b600067ffffffffffffffff821115616e4957616e48617298565b5b602082029050602081019050919050565b600067ffffffffffffffff821115616e7557616e74617298565b5b602082029050602081019050919050565b600067ffffffffffffffff821115616ea157616ea0617298565b5b601f19601f8301169050602081019050919050565b600067ffffffffffffffff821115616ed157616ed0617298565b5b601f19601f8301169050602081019050919050565b60008190508160005260206000209050919050565b600081519050919050565b600081519050919050565b600082825260208201905092915050565b600081905092915050565b600082825260208201905092915050565b600081905092915050565b6000616f54826170d2565b9150616f5f836170d2565b9250827fffffffffffffffffffffffffffffffffffffffffffffffffffffffffffffffff03821115616f9457616f9361720b565b5b828201905092915050565b6000616faa826170d2565b9150616fb5836170d2565b925082616fc557616fc461723a565b5b828204905092915050565b6000616fdb826170d2565b9150616fe6836170d2565b9250817fffffffffffffffffffffffffffffffffffffffffffffffffffffffffffffffff048311821515161561701f5761701e61720b565b5b828202905092915050565b6000617035826170d2565b9150617040836170d2565b9250828210156170535761705261720b565b5b828203905092915050565b6000617069826170b2565b9050919050565b60008115159050919050565b6000819050919050565b60007fffffffff0000000000000000000000000000000000000000000000000000000082169050919050565b600073ffffffffffffffffffffffffffffffffffffffff82169050919050565b6000819050919050565b600060ff82169050919050565b82818337600083830152505050565b60005b838110156171165780820151818401526020810190506170fb565b83811115617125576000848401525b50505050565b6000617136826170d2565b9150600082141561714a5761714961720b565b5b600182039050919050565b6000600282049050600182168061716d57607f821691505b6020821081141561718157617180617269565b5b50919050565b6000617192826170d2565b91507fffffffffffffffffffffffffffffffffffffffffffffffffffffffffffffffff8214156171c5576171c461720b565b5b600182019050919050565b6000819050919050565b60006171e5826170d2565b91506171f0836170d2565b925082617200576171ff61723a565b5b828206905092915050565b7f4e487b7100000000000000000000000000000000000000000000000000000000600052601160045260246000fd5b7f4e487b7100000000000000000000000000000000000000000000000000000000600052601260045260246000fd5b7f4e487b7100000000000000000000000000000000000000000000000000000000600052602260045260246000fd5b7f4e487b7100000000000000000000000000000000000000000000000000000000600052604160045260246000fd5b6000601f19601f8301169050919050565b6172e18161705e565b81146172ec57600080fd5b50565b6172f881617070565b811461730357600080fd5b50565b61730f8161707c565b811461731a57600080fd5b50565b61732681617086565b811461733157600080fd5b50565b61733d816170d2565b811461734857600080fd5b5056fe68747470733a2f2f676174657761792e70696e6174612e636c6f75642f697066732f516d584e7639417056796e486454373258516e426d4438374d55324857794576794a79716376576a64395a394a6fa2646970667358221220012394ccb0f2cceed688542e102058584a683ba3ebdbb8f2e5ef0b4e79acfbcf64736f6c634300080000336261666b726569677034766261347766666e7976636a6665357473356e6f76756d6e6968353573343736667a6b6e657671736d3672347575746f696261666b726569667a796e647a6935326f6d7870646678656764323363736e7873777174776978663479346877357263656d6f3766736b6b7277756261666b7265696871793562326b66347570686e6473636b6d637065667a7934323670766d616f367975626f727a757569737772636669673365796261666b72656961646d6c6a6f667066616e6e7a6b6b73696b336936763335707536337463326b6b70686733676a6a7a37666b3479353276356175",
  "immutableReferences": {
    "2428": [
      {
        "length": 32,
        "start": 18010
      }
    ],
    "2430": [
      {
        "length": 32,
        "start": 17970
      }
    ],
    "2432": [
      {
        "length": 32,
        "start": 18086
      }
    ],
    "2434": [
      {
        "length": 32,
        "start": 18119
      }
    ],
    "2436": [
      {
        "length": 32,
        "start": 18053
      }
    ]
  },
  "source": "//SPDX-License-Identifier: MIT\npragma solidity ^0.8.0;\npragma abicoder v2; // required to accept structs as function parameters\n\nimport \"./utils.sol\";\n\ncontract GhoulieNFT is ERC721URIStorage, EIP712, AccessControl, Ownable {\n    bytes32 public constant MINTER_ROLE = keccak256(\"MINTER_ROLE\");\n    string private constant SIGNING_DOMAIN = \"LazyNFT-Voucher\";\n    string private constant SIGNATURE_VERSION = \"1\";\n\n    // Map for storing URIs of NFTs\n    mapping(uint256 => string) private _tokenURIs;\n\n    // Maximum number of Ghoulies that can be minted ever\n    uint256 public MAX_RANGE = 10001;\n\n    // Maximum number of Ghoulies that can be redeemed by public\n    uint256 public MAX_PUBLIC_RANGE = 9902; // 9900 + 2 special ghoulies\n\n    // Presale start and end indicator\n    bool private _presale = true; // true for 24 hours\n\n    // Base URI of Ghoulie NFTs\n    string private _CbaseURI;\n\n    // All presale redeemed Ghoulies will have a single CID\n    string private _presaleCID;\n\n    // Maximum number of Ghoulies that can be sold in presale\n    uint256 public presaleLimit = 2000;\n\n    // Maximum number of Ghoulies that can be redeemed by a single address in presale\n    uint256 public presaleRedemptionLimit = 5;\n\n    // Maximum number of Ghoulies that can be redeemed by a single address ever\n    uint256 public redemptionLimit = 25;\n\n    string private _coffinURI;\n\n    bool private _extPresale = true; //true for 24 hours + 2 hours\n\n    // Presale counter\n    uint256 private _presaleRange;\n\n    // State variable for storing the latest minted toke id\n    uint256 public currentTokenID;\n\n    // withdrawal address were all the funds will be debited\n    address payable withdrawalAddress =\n        payable(0x55463096D572D6D89554603B8366561ADa382159);\n\n    mapping(address => uint256) pendingWithdrawals;\n\n    constructor(address payable minter)\n        ERC721(\"GoulieNFT\", \"GOLE\")\n        EIP712(SIGNING_DOMAIN, SIGNATURE_VERSION)\n    {\n        _setupRole(MINTER_ROLE, minter);\n        _CbaseURI = \"https://ipfs.io/ipfs/\";\n        _coffinURI = \"bafkreifzyndzi52omxpdfxegd23csnxswqtwixf4y4hw5rcemo7fskkrwu\";\n        _presaleRange = 0;\n        currentTokenID = 0;\n\n        // mint 3 special ghoulies\n        ownerMint(\n            7479,\n            \"bafkreigp4vba4wffnyvcjfe5ts5novumnih55s476fzknevqsm6r4uutoi\"\n        );\n        ownerMint(\n            9811,\n            \"bafkreiadmljofpfannzkksik3i6v35pu63tc2kkphg3gjjz7fk4y52v5au\"\n        );\n        ownerMint(\n            10001,\n            \"bafkreihqy5b2kf4uphndsckmcpefzy426pvmao6yuborzuuiswrcfig3ey\"\n        );\n    }\n\n    // @notice Represents an un-minted NFT, which has not yet been recorded into the blockchain. A signed voucher can be redeemed for a real NFT using the redeem function.\n    struct NFTVoucher {\n        // @notice The id of the token to be redeemed. Must be unique - if another token with this ID already exists, the redeem function will revert.\n        bool presale;\n        // @notice The minimum price (in wei) that the NFT creator is willing to accept for the initial sale of this NFT.\n        uint256 minPrice;\n        // @notice The metadata URI to associate with this token.\n        string cid;\n        // @notice the EIP-712 signature of all other fields in the NFTVoucher struct. For a voucher to be valid, it must be signed by an account with the MINTER_ROLE.\n        bytes signature;\n    }\n\n    function baseURI() public view returns (string memory) {\n        return _CbaseURI;\n    }\n\n    function presaleStatus() public view returns (bool) {\n        return _presale;\n    }\n\n    function presaleCID() public view returns (string memory) {\n        return _presaleCID;\n    }\n\n    function presaleRange() public view returns (uint256) {\n        return _presaleRange;\n    }\n\n    function extPresaleStatus() public view returns (bool) {\n        return _extPresale;\n    }\n\n    function switchPresale() public onlyOwner {\n        require(presaleStatus(), \"Presale has already ended\");\n        _presale = false;\n    }\n\n    function switchExtPresale() public onlyOwner {\n        require(!presaleStatus(), \"Presale has not ended yet\");\n        require(\n            bytes(presaleCID()).length > 0,\n            \"Presale CID has not been set yet\"\n        );\n        require(extPresaleStatus(), \"Extended presale has already ended\");\n        _extPresale = false;\n    }\n\n    function setMaxPublicRange(uint256 _maxRange) public onlyOwner {\n        require(\n            _maxRange <= MAX_RANGE,\n            \"Max_PUBLIC_RANGE cannot exceed MAX_RANGE\"\n        );\n        MAX_PUBLIC_RANGE = _maxRange;\n    }\n\n    function setMaxRange(uint256 _maxRange) public onlyOwner {\n        MAX_RANGE = _maxRange;\n    }\n\n    function setBaseURI(string memory uri) public onlyOwner {\n        _CbaseURI = uri;\n    }\n\n    function setPresaleCID(string memory newPresaleCID) public onlyOwner {\n        require(\n            !presaleStatus(),\n            \"Cannot set the presale CID during the presale\"\n        );\n        _presaleCID = newPresaleCID;\n    }\n\n    function setPresaleLimit(uint256 _presaleLimit) public onlyOwner {\n        require(presaleStatus(), \"Presale has already ended\");\n        presaleLimit = _presaleLimit;\n    }\n\n    function setPresaleRedemptionLimit(uint256 _limit) public onlyOwner {\n        require(presaleStatus(), \"Presale has ended\");\n        presaleRedemptionLimit = _limit;\n    }\n\n    function setRedemptionLimit(uint256 _limit) public onlyOwner {\n        require(\n            _limit <= MAX_PUBLIC_RANGE,\n            \"Redemption limit cannot be more than MAX_PUBLIC_RANGE\"\n        );\n        redemptionLimit = _limit;\n    }\n\n    function tokenURI(uint256 tokenId)\n        public\n        view\n        virtual\n        override\n        returns (string memory)\n    {\n        require(_exists(tokenId), \"Query for non existent token\");\n        if (presaleStatus()) {\n            return string(abi.encodePacked(baseURI(), _coffinURI));\n        } else if (extPresaleStatus() && tokenId <= presaleRange()) {\n            return string(abi.encodePacked(baseURI(), _coffinURI));\n        } else if (tokenId <= presaleRange()) {\n            string memory uri = string(\n                abi.encodePacked(\n                    baseURI(),\n                    presaleCID(),\n                    \"/\",\n                    Strings.toString(tokenId),\n                    \".json\"\n                )\n            );\n            return uri;\n        } else {\n            return string(abi.encodePacked(baseURI(), _tokenURIs[tokenId]));\n        }\n    }\n\n    // Special function for setting the URI of special ghoulies\n    // @notice This is critical function, should be used carefully\n    function ownerSetURI(uint256 tokenId, string memory uri) public onlyOwner {\n        require(\n            tokenId > presaleRange(),\n            \"Uri cannot be set for Presale tokens\"\n        );\n        require(tokenId <= MAX_RANGE, \"Token id out of MAX_RANGE\");\n        require(_exists(tokenId), \"Cannot set the uri for non-existent token\");\n        _tokenURIs[tokenId] = uri;\n    }\n\n    // special function for minting special ghoulies\n    // CRITICAL: Only Owner can call this to prevent any hazard\n    function ownerMint(uint256 tokenId, string memory cid) public onlyOwner {\n        require(\n            tokenId <= MAX_RANGE,\n            \"Max range for minting the NFTs has been reached\"\n        );\n        require(\n            tokenId > MAX_PUBLIC_RANGE || tokenId == 7479 || tokenId == 9811,\n            \"Owner minting is only allowed above MAX_PUBLIC_RANGE\"\n        );\n        _mint(withdrawalAddress, tokenId);\n        _tokenURIs[tokenId] = cid;\n    }\n\n    // special function for minting special ghoulies\n    // CRITICAL: Only Owner can call this to prevent any hazard\n    function ownerBatchMint(uint256[] memory ids, string[] memory cids)\n        public\n        onlyOwner\n    {\n        require(\n            ids.length == cids.length,\n            \"ids length does not match cids length\"\n        );\n        for (uint256 i = 0; i < ids.length; i++) {\n            ownerMint(ids[i], cids[i]);\n        }\n    }\n\n    /// @notice allows the user to redeem NFTs in batch\n    /// payments and funds are handled here\n    /// Wrapper for _redeem\n    function redeem(\n        uint256 tokenCount,\n        address redeemer,\n        NFTVoucher[] calldata vouchers\n    ) public payable {\n        require(redeemer != address(0), \"Null address not allowed\");\n        require(\n            tokenCount == vouchers.length,\n            \"token count and Vouchers length do not match\"\n        );\n\n        uint256 balance = balanceOf(_msgSender());\n        if (presaleStatus()) {\n            require(\n                balance + tokenCount <= presaleRedemptionLimit,\n                string(\n                    abi.encodePacked(\n                        \"Redeemer can only redeem \",\n                        Strings.toString(presaleRedemptionLimit - balance),\n                        \" more tokens in presale\"\n                    )\n                )\n            );\n        } else {\n            require(\n                balance + tokenCount <= redemptionLimit,\n                string(\n                    abi.encodePacked(\n                        \"Redeemer can only redeem \",\n                        Strings.toString(redemptionLimit - balance),\n                        \" more tokens\"\n                    )\n                )\n            );\n        }\n\n        uint256 totalAmount = 0;\n        for (uint256 i = 0; i < tokenCount; i++) {\n            _redeem(redeemer, vouchers[i]);\n            totalAmount = totalAmount + vouchers[i].minPrice;\n        }\n\n        // check if the total vlaue sent is enough to cover the min prices of all the tokens\n        require(\n            msg.value >= totalAmount,\n            \"Insufficient funds for the transaction\"\n        );\n        pendingWithdrawals[withdrawalAddress] += msg.value;\n    }\n\n    /// @notice Transfers all pending withdrawal balance to the caller. Reverts if the caller is not an authorized minter.\n    function withdraw() public {\n        require(_msgSender() == withdrawalAddress, \"Unauthorized withdrawal\");\n\n        // IMPORTANT: casting msg.sender to a payable address is only safe if ALL members of the minter role are payable addresses.\n        address payable receiver = withdrawalAddress;\n\n        uint256 amount = pendingWithdrawals[receiver];\n        // zero account before transfer to prevent re-entrancy attack\n        pendingWithdrawals[receiver] = 0;\n        receiver.transfer(amount);\n    }\n\n    /// @notice Retuns the amount of Ether available to the caller to withdraw.\n    function availableToWithdraw() public view returns (uint256) {\n        return pendingWithdrawals[msg.sender];\n    }\n\n    // Sets the URIs for all the Ghoulies\n    function _setURI(uint256 tokenId, string memory cid) internal virtual {\n        require(\n            _exists(tokenId),\n            \"Setting URI for non-existent token not allowed\"\n        );\n        require(\n            bytes(_tokenURIs[tokenId]).length == 0,\n            \"This token's URI already exists\"\n        );\n        if (!presaleStatus() || tokenId > presaleRange()) {\n            _tokenURIs[tokenId] = cid;\n        }\n    }\n\n    /// @notice Redeems an NFTVoucher for an actual NFT, creating it in the process.\n    /// @param redeemer The address of the account which will receive the NFT upon success.\n    /// @param voucher A signed NFTVoucher that describes the NFT to be redeemed.\n    function _redeem(address redeemer, NFTVoucher calldata voucher)\n        internal\n        virtual\n    {\n        // Check if the complete range is sold\n        require(\n            getNextTokenID() <= MAX_PUBLIC_RANGE,\n            \"Complete range sold out\"\n        );\n\n        // make sure signature is valid and get the address of the signer\n        address signer = _verify(voucher);\n\n        // make sure that the signer is authorized to mint NFTs\n        require(\n            hasRole(MINTER_ROLE, signer),\n            \"Signature invalid or unauthorized\"\n        );\n\n        // first assign the token to the signer, to establish provenance on-chain\n        if (getNextTokenID() > presaleLimit) {\n            require(\n                !presaleStatus(),\n                \"Presale sold out, You cannot buy until the presale ends\"\n            );\n        }\n\n        // check if the presale is over and the function is recieving voucher.presale == true\n        if (!presaleStatus()) {\n            require(!voucher.presale, \"Voucher is invalid: Presale has ended\");\n        }\n\n        uint256 tokenId = getNextTokenID();\n\n        _incrementTokenTypeId();\n        if (presaleStatus()) {\n            _incrementPresaleRange();\n        }\n        _mint(signer, tokenId);\n        _setURI(tokenId, voucher.cid);\n\n        // transfer the token to the redeemer\n        _transfer(signer, redeemer, tokenId);\n    }\n\n    /// @notice Returns a hash of the given NFTVoucher, prepared using EIP712 typed data hashing rules.\n    /// @param voucher An NFTVoucher to hash.\n    function _hash(NFTVoucher calldata voucher)\n        internal\n        view\n        returns (bytes32)\n    {\n        return\n            _hashTypedDataV4(\n                keccak256(\n                    abi.encode(\n                        keccak256(\n                            \"NFTVoucher(bool presale,uint256 minPrice,string cid)\"\n                        ),\n                        voucher.presale,\n                        voucher.minPrice,\n                        keccak256(bytes(voucher.cid))\n                    )\n                )\n            );\n    }\n\n    /// @notice Returns the chain id of the current blockchain.\n    /// @dev This is used to workaround an issue with ganache returning different values from the on-chain chainid() function and\n    ///  the eth_chainId RPC method. See https://github.com/protocol/nft-website/issues/121 for context.\n    function getChainID() external view returns (uint256) {\n        uint256 id;\n        assembly {\n            id := chainid()\n        }\n        return id;\n    }\n\n    /// @notice Verifies the signature for a given NFTVoucher, returning the address of the signer.\n    /// @dev Will revert if the signature is invalid. Does not verify that the signer is authorized to mint NFTs.\n    /// @param voucher An NFTVoucher describing an unminted NFT.\n    function _verify(NFTVoucher calldata voucher)\n        internal\n        view\n        returns (address)\n    {\n        bytes32 digest = _hash(voucher);\n        return ECDSA.recover(digest, voucher.signature);\n    }\n\n    function getNextTokenID() public view returns (uint256) {\n        if (_exists(currentTokenID + 1)) {\n            return currentTokenID + 2;\n        }\n        return currentTokenID + 1;\n    }\n\n    /**\n     * @dev increments the value of _currentTokenID\n     */\n    function _incrementTokenTypeId() private {\n        require(\n            currentTokenID <= MAX_PUBLIC_RANGE,\n            \"Max range has been reached\"\n        );\n        if (_exists(currentTokenID + 1)) {\n            currentTokenID += 2;\n        } else {\n            currentTokenID++;\n        }\n    }\n\n    function _incrementPresaleRange() private {\n        require(presaleRange() <= presaleLimit, \"Presale sold out\");\n        if (_exists(currentTokenID + 1)) {\n            _presaleRange += 2;\n        } else {\n            _presaleRange++;\n        }\n    }\n\n    function supportsInterface(bytes4 interfaceId)\n        public\n        view\n        virtual\n        override(AccessControl, ERC721)\n        returns (bool)\n    {\n        return\n            ERC721.supportsInterface(interfaceId) ||\n            AccessControl.supportsInterface(interfaceId);\n    }\n\n    function contractURI() public pure returns (string memory) {\n        return\n            \"https://gateway.pinata.cloud/ipfs/QmXNv9ApVynHdT72XQnBmD87MU2HWyEvyJyqcvWjd9Z9Jo\";\n    }\n\n    // Function to receive Ether. msg.data must be empty\n    receive() external payable {}\n\n    // Fallback function is called when msg.data is not empty\n    fallback() external payable {}\n}\n",
  "sourcePath": "/home/mohsin/Desktop/Solidity/contracts/GoulieNFT.sol",
  "compiler": {
    "name": "solc",
    "version": "0.8.0+commit.c7dfd78e.Emscripten.clang"
  },
  "schemaVersion": "3.4.3",
  "updatedAt": "2021-10-03T15:34:29.032Z",
  "devdoc": {
    "kind": "dev",
    "methods": {
      "approve(address,uint256)": {
        "details": "See {IERC721-approve}."
      },
      "balanceOf(address)": {
        "details": "See {IERC721-balanceOf}."
      },
      "getApproved(uint256)": {
        "details": "See {IERC721-getApproved}."
      },
      "getChainID()": {
        "details": "This is used to workaround an issue with ganache returning different values from the on-chain chainid() function and  the eth_chainId RPC method. See https://github.com/protocol/nft-website/issues/121 for context."
      },
      "getRoleAdmin(bytes32)": {
        "details": "Returns the admin role that controls `role`. See {grantRole} and {revokeRole}. To change a role's admin, use {_setRoleAdmin}."
      },
      "grantRole(bytes32,address)": {
        "details": "Grants `role` to `account`. If `account` had not been already granted `role`, emits a {RoleGranted} event. Requirements: - the caller must have ``role``'s admin role."
      },
      "hasRole(bytes32,address)": {
        "details": "Returns `true` if `account` has been granted `role`."
      },
      "isApprovedForAll(address,address)": {
        "details": "See {IERC721-isApprovedForAll}."
      },
      "name()": {
        "details": "See {IERC721Metadata-name}."
      },
      "owner()": {
        "details": "Returns the address of the current owner."
      },
      "ownerOf(uint256)": {
        "details": "See {IERC721-ownerOf}."
      },
      "renounceOwnership()": {
        "details": "Leaves the contract without owner. It will not be possible to call `onlyOwner` functions anymore. Can only be called by the current owner. NOTE: Renouncing ownership will leave the contract without an owner, thereby removing any functionality that is only available to the owner."
      },
      "renounceRole(bytes32,address)": {
        "details": "Revokes `role` from the calling account. Roles are often managed via {grantRole} and {revokeRole}: this function's purpose is to provide a mechanism for accounts to lose their privileges if they are compromised (such as when a trusted device is misplaced). If the calling account had been granted `role`, emits a {RoleRevoked} event. Requirements: - the caller must be `account`."
      },
      "revokeRole(bytes32,address)": {
        "details": "Revokes `role` from `account`. If `account` had been granted `role`, emits a {RoleRevoked} event. Requirements: - the caller must have ``role``'s admin role."
      },
      "safeTransferFrom(address,address,uint256)": {
        "details": "See {IERC721-safeTransferFrom}."
      },
      "safeTransferFrom(address,address,uint256,bytes)": {
        "details": "See {IERC721-safeTransferFrom}."
      },
      "setApprovalForAll(address,bool)": {
        "details": "See {IERC721-setApprovalForAll}."
      },
      "symbol()": {
        "details": "See {IERC721Metadata-symbol}."
      },
      "tokenURI(uint256)": {
        "details": "See {IERC721Metadata-tokenURI}."
      },
      "transferFrom(address,address,uint256)": {
        "details": "See {IERC721-transferFrom}."
      },
      "transferOwnership(address)": {
        "details": "Transfers ownership of the contract to a new account (`newOwner`). Can only be called by the current owner."
      }
    },
    "version": 1
  },
  "userdoc": {
    "kind": "user",
    "methods": {
      "availableToWithdraw()": {
        "notice": "Retuns the amount of Ether available to the caller to withdraw."
      },
      "getChainID()": {
        "notice": "Returns the chain id of the current blockchain."
      },
      "redeem(uint256,address,(bool,uint256,string,bytes)[])": {
        "notice": "allows the user to redeem NFTs in batch payments and funds are handled here Wrapper for _redeem"
      },
      "withdraw()": {
        "notice": "Transfers all pending withdrawal balance to the caller. Reverts if the caller is not an authorized minter."
      }
    },
    "version": 1
  }
}