{
  "contractName": "Market",
  "abi": [
    {
      "inputs": [
        {
          "internalType": "address",
          "name": "tokensAddress",
          "type": "address"
        }
      ],
      "stateMutability": "nonpayable",
      "type": "constructor"
    },
    {
      "anonymous": false,
      "inputs": [
        {
          "indexed": true,
          "internalType": "address",
          "name": "previousOwner",
          "type": "address"
        },
        {
          "indexed": true,
          "internalType": "address",
          "name": "newOwner",
          "type": "address"
        }
      ],
      "name": "OwnershipTransferred",
      "type": "event"
    },
    {
      "inputs": [
        {
          "internalType": "uint256",
          "name": "",
          "type": "uint256"
        }
      ],
      "name": "listings",
      "outputs": [
        {
          "internalType": "address",
          "name": "owner",
          "type": "address"
        },
        {
          "internalType": "uint256",
          "name": "buyoutPrice",
          "type": "uint256"
        }
      ],
      "stateMutability": "view",
      "type": "function"
    },
    {
      "inputs": [],
      "name": "owner",
      "outputs": [
        {
          "internalType": "address",
          "name": "",
          "type": "address"
        }
      ],
      "stateMutability": "view",
      "type": "function"
    },
    {
      "inputs": [],
      "name": "renounceOwnership",
      "outputs": [],
      "stateMutability": "nonpayable",
      "type": "function"
    },
    {
      "inputs": [
        {
          "internalType": "address",
          "name": "newOwner",
          "type": "address"
        }
      ],
      "name": "transferOwnership",
      "outputs": [],
      "stateMutability": "nonpayable",
      "type": "function"
    },
    {
      "inputs": [
        {
          "internalType": "uint256",
          "name": "tokenID",
          "type": "uint256"
        },
        {
          "internalType": "uint256",
          "name": "price",
          "type": "uint256"
        }
      ],
      "name": "list",
      "outputs": [],
      "stateMutability": "nonpayable",
      "type": "function"
    },
    {
      "inputs": [
        {
          "internalType": "uint256",
          "name": "tokenID",
          "type": "uint256"
        }
      ],
      "name": "buy",
      "outputs": [],
      "stateMutability": "payable",
      "type": "function"
    },
    {
      "inputs": [
        {
          "internalType": "uint256",
          "name": "id",
          "type": "uint256"
        }
      ],
      "name": "unlist",
      "outputs": [],
      "stateMutability": "nonpayable",
      "type": "function"
    }
  ],
  "bytecode": "0x60806040523480156200001157600080fd5b50604051620010bb380380620010bb833981810160405281019062000037919062000182565b620000576200004b6200009f60201b60201c565b620000a760201b60201c565b80600260006101000a81548173ffffffffffffffffffffffffffffffffffffffff021916908373ffffffffffffffffffffffffffffffffffffffff16021790555050620001fc565b600033905090565b60008060009054906101000a900473ffffffffffffffffffffffffffffffffffffffff169050816000806101000a81548173ffffffffffffffffffffffffffffffffffffffff021916908373ffffffffffffffffffffffffffffffffffffffff1602179055508173ffffffffffffffffffffffffffffffffffffffff168173ffffffffffffffffffffffffffffffffffffffff167f8be0079c531659141344cd1fd0a4f28419497f9722a3daafe3b4186f6b6457e060405160405180910390a35050565b6000815190506200017c81620001e2565b92915050565b6000602082840312156200019557600080fd5b6000620001a5848285016200016b565b91505092915050565b6000620001bb82620001c2565b9050919050565b600073ffffffffffffffffffffffffffffffffffffffff82169050919050565b620001ed81620001ae565b8114620001f957600080fd5b50565b610eaf806200020c6000396000f3fe6080604052600436106100705760003560e01c8063bf5a4dd31161004e578063bf5a4dd3146100e0578063d96a094a14610109578063de74e57b14610125578063f2fde38b1461016357610070565b806350fd736714610075578063715018a61461009e5780638da5cb5b146100b5575b600080fd5b34801561008157600080fd5b5061009c60048036038101906100979190610a7b565b61018c565b005b3480156100aa57600080fd5b506100b36102b3565b005b3480156100c157600080fd5b506100ca61033b565b6040516100d79190610bbc565b60405180910390f35b3480156100ec57600080fd5b5061010760048036038101906101029190610a52565b610364565b005b610123600480360381019061011e9190610a52565b610500565b005b34801561013157600080fd5b5061014c60048036038101906101479190610a52565b610703565b60405161015a929190610c0e565b60405180910390f35b34801561016f57600080fd5b5061018a60048036038101906101859190610a29565b610747565b005b60405180604001604052803373ffffffffffffffffffffffffffffffffffffffff168152602001828152506001600084815260200190815260200160002060008201518160000160006101000a81548173ffffffffffffffffffffffffffffffffffffffff021916908373ffffffffffffffffffffffffffffffffffffffff16021790555060208201518160010155905050600260009054906101000a900473ffffffffffffffffffffffffffffffffffffffff1673ffffffffffffffffffffffffffffffffffffffff166323b872dd3330856040518463ffffffff1660e01b815260040161027d93929190610bd7565b600060405180830381600087803b15801561029757600080fd5b505af11580156102ab573d6000803e3d6000fd5b505050505050565b6102bb61083f565b73ffffffffffffffffffffffffffffffffffffffff166102d961033b565b73ffffffffffffffffffffffffffffffffffffffff161461032f576040517f08c379a000000000000000000000000000000000000000000000000000000000815260040161032690610cb7565b60405180910390fd5b6103396000610847565b565b60008060009054906101000a900473ffffffffffffffffffffffffffffffffffffffff16905090565b60006001600083815260200190815260200160002060000160009054906101000a900473ffffffffffffffffffffffffffffffffffffffff1690508073ffffffffffffffffffffffffffffffffffffffff163373ffffffffffffffffffffffffffffffffffffffff16146103d757600080fd5b6040518060400160405280600073ffffffffffffffffffffffffffffffffffffffff16815260200160008152506001600084815260200190815260200160002060008201518160000160006101000a81548173ffffffffffffffffffffffffffffffffffffffff021916908373ffffffffffffffffffffffffffffffffffffffff16021790555060208201518160010155905050600260009054906101000a900473ffffffffffffffffffffffffffffffffffffffff1673ffffffffffffffffffffffffffffffffffffffff166323b872dd3083856040518463ffffffff1660e01b81526004016104ca93929190610bd7565b600060405180830381600087803b1580156104e457600080fd5b505af11580156104f8573d6000803e3d6000fd5b505050505050565b6000600160008381526020019081526020016000206040518060400160405290816000820160009054906101000a900473ffffffffffffffffffffffffffffffffffffffff1673ffffffffffffffffffffffffffffffffffffffff1673ffffffffffffffffffffffffffffffffffffffff16815260200160018201548152505090506040518060400160405280600073ffffffffffffffffffffffffffffffffffffffff16815260200160008152506001600084815260200190815260200160002060008201518160000160006101000a81548173ffffffffffffffffffffffffffffffffffffffff021916908373ffffffffffffffffffffffffffffffffffffffff160217905550602082015181600101559050508060200151341461065c576040517f08c379a000000000000000000000000000000000000000000000000000000000815260040161065390610c97565b60405180910390fd5b600260009054906101000a900473ffffffffffffffffffffffffffffffffffffffff1673ffffffffffffffffffffffffffffffffffffffff166323b872dd3033856040518463ffffffff1660e01b81526004016106bb93929190610bd7565b600060405180830381600087803b1580156106d557600080fd5b505af11580156106e9573d6000803e3d6000fd5b505050506106ff8160000151826020015161090b565b5050565b60016020528060005260406000206000915090508060000160009054906101000a900473ffffffffffffffffffffffffffffffffffffffff16908060010154905082565b61074f61083f565b73ffffffffffffffffffffffffffffffffffffffff1661076d61033b565b73ffffffffffffffffffffffffffffffffffffffff16146107c3576040517f08c379a00000000000000000000000000000000000000000000000000000000081526004016107ba90610cb7565b60405180910390fd5b600073ffffffffffffffffffffffffffffffffffffffff168173ffffffffffffffffffffffffffffffffffffffff161415610833576040517f08c379a000000000000000000000000000000000000000000000000000000000815260040161082a90610c37565b60405180910390fd5b61083c81610847565b50565b600033905090565b60008060009054906101000a900473ffffffffffffffffffffffffffffffffffffffff169050816000806101000a81548173ffffffffffffffffffffffffffffffffffffffff021916908373ffffffffffffffffffffffffffffffffffffffff1602179055508173ffffffffffffffffffffffffffffffffffffffff168173ffffffffffffffffffffffffffffffffffffffff167f8be0079c531659141344cd1fd0a4f28419497f9722a3daafe3b4186f6b6457e060405160405180910390a35050565b8047101561094e576040517f08c379a000000000000000000000000000000000000000000000000000000000815260040161094590610c77565b60405180910390fd5b60008273ffffffffffffffffffffffffffffffffffffffff168260405161097490610ba7565b60006040518083038185875af1925050503d80600081146109b1576040519150601f19603f3d011682016040523d82523d6000602084013e6109b6565b606091505b50509050806109fa576040517f08c379a00000000000000000000000000000000000000000000000000000000081526004016109f190610c57565b60405180910390fd5b505050565b600081359050610a0e81610e4b565b92915050565b600081359050610a2381610e62565b92915050565b600060208284031215610a3b57600080fd5b6000610a49848285016109ff565b91505092915050565b600060208284031215610a6457600080fd5b6000610a7284828501610a14565b91505092915050565b60008060408385031215610a8e57600080fd5b6000610a9c85828601610a14565b9250506020610aad85828601610a14565b9150509250929050565b610ac081610cf3565b82525050565b6000610ad3602683610ce2565b9150610ade82610d2f565b604082019050919050565b6000610af6603a83610ce2565b9150610b0182610d7e565b604082019050919050565b6000610b19601d83610ce2565b9150610b2482610dcd565b602082019050919050565b6000610b3c600b83610ce2565b9150610b4782610df6565b602082019050919050565b6000610b5f602083610ce2565b9150610b6a82610e1f565b602082019050919050565b6000610b82600083610cd7565b9150610b8d82610e48565b600082019050919050565b610ba181610d25565b82525050565b6000610bb282610b75565b9150819050919050565b6000602082019050610bd16000830184610ab7565b92915050565b6000606082019050610bec6000830186610ab7565b610bf96020830185610ab7565b610c066040830184610b98565b949350505050565b6000604082019050610c236000830185610ab7565b610c306020830184610b98565b9392505050565b60006020820190508181036000830152610c5081610ac6565b9050919050565b60006020820190508181036000830152610c7081610ae9565b9050919050565b60006020820190508181036000830152610c9081610b0c565b9050919050565b60006020820190508181036000830152610cb081610b2f565b9050919050565b60006020820190508181036000830152610cd081610b52565b9050919050565b600081905092915050565b600082825260208201905092915050565b6000610cfe82610d05565b9050919050565b600073ffffffffffffffffffffffffffffffffffffffff82169050919050565b6000819050919050565b7f4f776e61626c653a206e6577206f776e657220697320746865207a65726f206160008201527f6464726573730000000000000000000000000000000000000000000000000000602082015250565b7f416464726573733a20756e61626c6520746f2073656e642076616c75652c207260008201527f6563697069656e74206d61792068617665207265766572746564000000000000602082015250565b7f416464726573733a20696e73756666696369656e742062616c616e6365000000600082015250565b7f77726f6e672076616c7565000000000000000000000000000000000000000000600082015250565b7f4f776e61626c653a2063616c6c6572206973206e6f7420746865206f776e6572600082015250565b50565b610e5481610cf3565b8114610e5f57600080fd5b50565b610e6b81610d25565b8114610e7657600080fd5b5056fea264697066735822122025e5cf9a4ab78a1eb4e0d5fab79b8edbdfed1da1c49ae792978cb09b7b64c88a64736f6c63430008040033",
  "immutableReferences": {},
  "source": "//SPDX-License-Identifier: MIT\n\npragma solidity ^0.8.4;\n\nimport \"./utils.sol\";\n\ncontract Market is Ownable {\n  \n    struct Listing{\n        address owner;       // who owns the listed artifact\n        uint256 buyoutPrice; // price of the artifact in xdai\n    }\n\n    mapping(uint256 => Listing) public listings; // all listings \n    \n    IERC721 private DFTokens; \n        \n    constructor(address tokensAddress){\n        DFTokens = IERC721(tokensAddress);  \n    }\n\n\n    // sendValue from openZeppelin Address library https://github.com/OpenZeppelin/openzeppelin-contracts/blob/master/contracts/utils/Address.sol\n    function sendValue(address payable recipient, uint256 amount) internal {\n        require(address(this).balance >= amount, \"Address: insufficient balance\");\n        (bool success, ) = recipient.call{value: amount}(\"\");\n        require(success, \"Address: unable to send value, recipient may have reverted\");\n    }\n\n    function list(uint256 tokenID, uint256 price) external {\n        \n        listings[tokenID] = Listing({\n            owner: msg.sender,\n            buyoutPrice: price\n        });\n\n        DFTokens.transferFrom(msg.sender, address(this), tokenID);        \n    }\n\n    // buying function. User input is the price they pay\n    function buy(uint256 tokenID) external payable  {\n        Listing memory oldListing = listings[tokenID];\n        \n        listings[tokenID]= Listing({\n            owner: address(0),\n            buyoutPrice: 0\n        });\n        require (msg.value == oldListing.buyoutPrice, \"wrong value\");\n        DFTokens.transferFrom(address(this), msg.sender, tokenID);\n        sendValue(payable(oldListing.owner), oldListing.buyoutPrice);\n    }\n    \n    \n    // Unlist a token you listed\n    // Useful if you want your tokens back\n    function unlist (uint256 id) external {\n        address holder = listings[id].owner;\n        require(msg.sender == holder);\n        \n        listings[id]= Listing({\n            owner: address(0),\n            buyoutPrice: 0\n        });\n        \n        DFTokens.transferFrom(address(this), holder, id);\n    }\n\n}",
  "sourcePath": "/home/mohsin/Desktop/Webaverse/contracts/main/Market.sol",
  "compiler": {
    "name": "solc",
    "version": "0.8.4+commit.c7e474f2.Emscripten.clang"
  },
  "schemaVersion": "3.4.3",
  "updatedAt": "2021-10-09T17:23:43.040Z",
  "devdoc": {
    "kind": "dev",
    "methods": {
      "owner()": {
        "details": "Returns the address of the current owner."
      },
      "renounceOwnership()": {
        "details": "Leaves the contract without owner. It will not be possible to call `onlyOwner` functions anymore. Can only be called by the current owner. NOTE: Renouncing ownership will leave the contract without an owner, thereby removing any functionality that is only available to the owner."
      },
      "transferOwnership(address)": {
        "details": "Transfers ownership of the contract to a new account (`newOwner`). Can only be called by the current owner."
      }
    },
    "version": 1
  },
  "userdoc": {
    "kind": "user",
    "methods": {},
    "version": 1
  }
}