{
  "contractName": "WebaverseNFT",
  "abi": [
    {
      "inputs": [
        {
          "internalType": "address payable",
          "name": "minter",
          "type": "address"
        }
      ],
      "stateMutability": "nonpayable",
      "type": "constructor"
    },
    {
      "anonymous": false,
      "inputs": [
        {
          "indexed": true,
          "internalType": "address",
          "name": "owner",
          "type": "address"
        },
        {
          "indexed": true,
          "internalType": "address",
          "name": "approved",
          "type": "address"
        },
        {
          "indexed": true,
          "internalType": "uint256",
          "name": "tokenId",
          "type": "uint256"
        }
      ],
      "name": "Approval",
      "type": "event"
    },
    {
      "anonymous": false,
      "inputs": [
        {
          "indexed": true,
          "internalType": "address",
          "name": "owner",
          "type": "address"
        },
        {
          "indexed": true,
          "internalType": "address",
          "name": "operator",
          "type": "address"
        },
        {
          "indexed": false,
          "internalType": "bool",
          "name": "approved",
          "type": "bool"
        }
      ],
      "name": "ApprovalForAll",
      "type": "event"
    },
    {
      "anonymous": false,
      "inputs": [
        {
          "indexed": true,
          "internalType": "address",
          "name": "from",
          "type": "address"
        },
        {
          "indexed": true,
          "internalType": "address",
          "name": "to",
          "type": "address"
        },
        {
          "indexed": true,
          "internalType": "uint256",
          "name": "tokenId",
          "type": "uint256"
        }
      ],
      "name": "Transfer",
      "type": "event"
    },
    {
      "inputs": [],
      "name": "MINTER_ROLE",
      "outputs": [
        {
          "internalType": "bytes32",
          "name": "",
          "type": "bytes32"
        }
      ],
      "stateMutability": "view",
      "type": "function"
    },
    {
      "inputs": [
        {
          "internalType": "address",
          "name": "to",
          "type": "address"
        },
        {
          "internalType": "uint256",
          "name": "tokenId",
          "type": "uint256"
        }
      ],
      "name": "approve",
      "outputs": [],
      "stateMutability": "nonpayable",
      "type": "function"
    },
    {
      "inputs": [
        {
          "internalType": "address",
          "name": "owner",
          "type": "address"
        }
      ],
      "name": "balanceOf",
      "outputs": [
        {
          "internalType": "uint256",
          "name": "",
          "type": "uint256"
        }
      ],
      "stateMutability": "view",
      "type": "function"
    },
    {
      "inputs": [
        {
          "internalType": "uint256",
          "name": "tokenId",
          "type": "uint256"
        }
      ],
      "name": "getApproved",
      "outputs": [
        {
          "internalType": "address",
          "name": "",
          "type": "address"
        }
      ],
      "stateMutability": "view",
      "type": "function"
    },
    {
      "inputs": [
        {
          "internalType": "address",
          "name": "owner",
          "type": "address"
        },
        {
          "internalType": "address",
          "name": "operator",
          "type": "address"
        }
      ],
      "name": "isApprovedForAll",
      "outputs": [
        {
          "internalType": "bool",
          "name": "",
          "type": "bool"
        }
      ],
      "stateMutability": "view",
      "type": "function"
    },
    {
      "inputs": [],
      "name": "name",
      "outputs": [
        {
          "internalType": "string",
          "name": "",
          "type": "string"
        }
      ],
      "stateMutability": "view",
      "type": "function"
    },
    {
      "inputs": [
        {
          "internalType": "uint256",
          "name": "tokenId",
          "type": "uint256"
        }
      ],
      "name": "ownerOf",
      "outputs": [
        {
          "internalType": "address",
          "name": "",
          "type": "address"
        }
      ],
      "stateMutability": "view",
      "type": "function"
    },
    {
      "inputs": [
        {
          "internalType": "address",
          "name": "from",
          "type": "address"
        },
        {
          "internalType": "address",
          "name": "to",
          "type": "address"
        },
        {
          "internalType": "uint256",
          "name": "tokenId",
          "type": "uint256"
        }
      ],
      "name": "safeTransferFrom",
      "outputs": [],
      "stateMutability": "nonpayable",
      "type": "function"
    },
    {
      "inputs": [
        {
          "internalType": "address",
          "name": "from",
          "type": "address"
        },
        {
          "internalType": "address",
          "name": "to",
          "type": "address"
        },
        {
          "internalType": "uint256",
          "name": "tokenId",
          "type": "uint256"
        },
        {
          "internalType": "bytes",
          "name": "_data",
          "type": "bytes"
        }
      ],
      "name": "safeTransferFrom",
      "outputs": [],
      "stateMutability": "nonpayable",
      "type": "function"
    },
    {
      "inputs": [
        {
          "internalType": "address",
          "name": "operator",
          "type": "address"
        },
        {
          "internalType": "bool",
          "name": "approved",
          "type": "bool"
        }
      ],
      "name": "setApprovalForAll",
      "outputs": [],
      "stateMutability": "nonpayable",
      "type": "function"
    },
    {
      "inputs": [],
      "name": "symbol",
      "outputs": [
        {
          "internalType": "string",
          "name": "",
          "type": "string"
        }
      ],
      "stateMutability": "view",
      "type": "function"
    },
    {
      "inputs": [
        {
          "internalType": "address",
          "name": "from",
          "type": "address"
        },
        {
          "internalType": "address",
          "name": "to",
          "type": "address"
        },
        {
          "internalType": "uint256",
          "name": "tokenId",
          "type": "uint256"
        }
      ],
      "name": "transferFrom",
      "outputs": [],
      "stateMutability": "nonpayable",
      "type": "function"
    },
    {
      "inputs": [
        {
          "internalType": "address",
          "name": "account",
          "type": "address"
        },
        {
          "internalType": "uint256",
          "name": "tokenId",
          "type": "uint256"
        },
        {
          "internalType": "string",
          "name": "cid",
          "type": "string"
        }
      ],
      "name": "mint",
      "outputs": [],
      "stateMutability": "nonpayable",
      "type": "function"
    },
    {
      "inputs": [
        {
          "internalType": "uint256",
          "name": "tokenId",
          "type": "uint256"
        }
      ],
      "name": "tokenURI",
      "outputs": [
        {
          "internalType": "string",
          "name": "",
          "type": "string"
        }
      ],
      "stateMutability": "view",
      "type": "function"
    },
    {
      "inputs": [
        {
          "internalType": "address",
          "name": "claimer",
          "type": "address"
        },
        {
          "components": [
            {
              "internalType": "uint256",
              "name": "tokenId",
              "type": "uint256"
            },
            {
              "internalType": "uint256",
              "name": "nonce",
              "type": "uint256"
            },
            {
              "internalType": "string",
              "name": "uri",
              "type": "string"
            },
            {
              "internalType": "bytes",
              "name": "signature",
              "type": "bytes"
            }
          ],
          "internalType": "struct WebaverseNFT.NFTVoucher",
          "name": "voucher",
          "type": "tuple"
        }
      ],
      "name": "claim",
      "outputs": [
        {
          "internalType": "uint256",
          "name": "",
          "type": "uint256"
        }
      ],
      "stateMutability": "payable",
      "type": "function"
    },
    {
      "inputs": [],
      "name": "getChainID",
      "outputs": [
        {
          "internalType": "uint256",
          "name": "",
          "type": "uint256"
        }
      ],
      "stateMutability": "view",
      "type": "function"
    },
    {
      "inputs": [
        {
          "internalType": "bytes4",
          "name": "interfaceId",
          "type": "bytes4"
        }
      ],
      "name": "supportsInterface",
      "outputs": [
        {
          "internalType": "bool",
          "name": "",
          "type": "bool"
        }
      ],
      "stateMutability": "view",
      "type": "function"
    }
  ],
  "bytecode": "0x6101206040523480156200001257600080fd5b5060405162003aa838038062003aa88339818101604052810190620000389190620002cb565b6040518060400160405280601181526020017f5765626176657273652d766f75636865720000000000000000000000000000008152506040518060400160405280600181526020017f31000000000000000000000000000000000000000000000000000000000000008152506040518060400160405280600c81526020017f5765626176657273654e465400000000000000000000000000000000000000008152506040518060400160405280600481526020017f575652530000000000000000000000000000000000000000000000000000000081525081600090805190602001906200012892919062000204565b5080600190805190602001906200014192919062000204565b50505060008280519060200120905060008280519060200120905060007f8b73c3c69bb8fe3d512ecc4cf759cc79239f7b179b0ffacaa9a75d522b39400f90508260c081815250508160e081815250504660a08181525050620001ac818484620001c860201b60201c565b6080818152505080610100818152505050505050505062000462565b60008383834630604051602001620001e59594939291906200032a565b6040516020818303038152906040528051906020012090509392505050565b8280546200021290620003e3565b90600052602060002090601f01602090048101928262000236576000855562000282565b82601f106200025157805160ff191683800117855562000282565b8280016001018555821562000282579182015b828111156200028157825182559160200191906001019062000264565b5b50905062000291919062000295565b5090565b5b80821115620002b057600081600090555060010162000296565b5090565b600081519050620002c58162000448565b92915050565b600060208284031215620002de57600080fd5b6000620002ee84828501620002b4565b91505092915050565b620003028162000387565b82525050565b6200031381620003af565b82525050565b6200032481620003d9565b82525050565b600060a08201905062000341600083018862000308565b62000350602083018762000308565b6200035f604083018662000308565b6200036e606083018562000319565b6200037d6080830184620002f7565b9695505050505050565b60006200039482620003b9565b9050919050565b6000620003a882620003b9565b9050919050565b6000819050919050565b600073ffffffffffffffffffffffffffffffffffffffff82169050919050565b6000819050919050565b60006002820490506001821680620003fc57607f821691505b6020821081141562000413576200041262000419565b5b50919050565b7f4e487b7100000000000000000000000000000000000000000000000000000000600052602260045260246000fd5b62000453816200039b565b81146200045f57600080fd5b50565b60805160a05160c05160e05161010051613601620004a76000396000611d7501526000611db701526000611d9601526000611d2201526000611d4a01526136016000f3fe6080604052600436106100fe5760003560e01c806370a0823111610095578063c87b56dd11610064578063c87b56dd14610345578063d3fc986414610382578063d5391393146103ab578063dca354f0146103d6578063e985e9c514610406576100fe565b806370a082311461028b57806395d89b41146102c8578063a22cb465146102f3578063b88d4fde1461031c576100fe565b806323b872dd116100d157806323b872dd146101d157806342842e0e146101fa578063564b81ef146102235780636352211e1461024e576100fe565b806301ffc9a71461010357806306fdde0314610140578063081812fc1461016b578063095ea7b3146101a8575b600080fd5b34801561010f57600080fd5b5061012a60048036038101906101259190612402565b610443565b6040516101379190612dc1565b60405180910390f35b34801561014c57600080fd5b50610155610455565b6040516101629190612ed4565b60405180910390f35b34801561017757600080fd5b50610192600480360381019061018d9190612454565b6104e7565b60405161019f9190612d5a565b60405180910390f35b3480156101b457600080fd5b506101cf60048036038101906101ca919061235f565b61056c565b005b3480156101dd57600080fd5b506101f860048036038101906101f39190612205565b610684565b005b34801561020657600080fd5b50610221600480360381019061021c9190612205565b6106e4565b005b34801561022f57600080fd5b50610238610704565b6040516102459190613196565b60405180910390f35b34801561025a57600080fd5b5061027560048036038101906102709190612454565b610711565b6040516102829190612d5a565b60405180910390f35b34801561029757600080fd5b506102b260048036038101906102ad91906121a0565b6107c3565b6040516102bf9190613196565b60405180910390f35b3480156102d457600080fd5b506102dd61087b565b6040516102ea9190612ed4565b60405180910390f35b3480156102ff57600080fd5b5061031a600480360381019061031591906122cf565b61090d565b005b34801561032857600080fd5b50610343600480360381019061033e9190612254565b610a8e565b005b34801561035157600080fd5b5061036c60048036038101906103679190612454565b610af0565b6040516103799190612ed4565b60405180910390f35b34801561038e57600080fd5b506103a960048036038101906103a4919061239b565b610bdd565b005b3480156103b757600080fd5b506103c0610bf6565b6040516103cd9190612ddc565b60405180910390f35b6103f060048036038101906103eb919061230b565b610c1a565b6040516103fd9190613196565b60405180910390f35b34801561041257600080fd5b5061042d600480360381019061042891906121c9565b610d16565b60405161043a9190612dc1565b60405180910390f35b600061044e82610daa565b9050919050565b60606000805461046490613495565b80601f016020809104026020016040519081016040528092919081815260200182805461049090613495565b80156104dd5780601f106104b2576101008083540402835291602001916104dd565b820191906000526020600020905b8154815290600101906020018083116104c057829003601f168201915b5050505050905090565b60006104f282610e8c565b610531576040517f08c379a0000000000000000000000000000000000000000000000000000000008152600401610528906130d6565b60405180910390fd5b6004600083815260200190815260200160002060009054906101000a900473ffffffffffffffffffffffffffffffffffffffff169050919050565b600061057782610711565b90508073ffffffffffffffffffffffffffffffffffffffff168373ffffffffffffffffffffffffffffffffffffffff1614156105e8576040517f08c379a00000000000000000000000000000000000000000000000000000000081526004016105df90613136565b60405180910390fd5b8073ffffffffffffffffffffffffffffffffffffffff16610607610ef8565b73ffffffffffffffffffffffffffffffffffffffff161480610636575061063581610630610ef8565b610d16565b5b610675576040517f08c379a000000000000000000000000000000000000000000000000000000000815260040161066c90613036565b60405180910390fd5b61067f8383610f00565b505050565b61069561068f610ef8565b82610fb9565b6106d4576040517f08c379a00000000000000000000000000000000000000000000000000000000081526004016106cb90613176565b60405180910390fd5b6106df838383611097565b505050565b6106ff83838360405180602001604052806000815250610a8e565b505050565b6000804690508091505090565b6000806002600084815260200190815260200160002060009054906101000a900473ffffffffffffffffffffffffffffffffffffffff169050600073ffffffffffffffffffffffffffffffffffffffff168173ffffffffffffffffffffffffffffffffffffffff1614156107ba576040517f08c379a00000000000000000000000000000000000000000000000000000000081526004016107b190613076565b60405180910390fd5b80915050919050565b60008073ffffffffffffffffffffffffffffffffffffffff168273ffffffffffffffffffffffffffffffffffffffff161415610834576040517f08c379a000000000000000000000000000000000000000000000000000000000815260040161082b90613056565b60405180910390fd5b600360008373ffffffffffffffffffffffffffffffffffffffff1673ffffffffffffffffffffffffffffffffffffffff168152602001908152602001600020549050919050565b60606001805461088a90613495565b80601f01602080910402602001604051908101604052809291908181526020018280546108b690613495565b80156109035780601f106108d857610100808354040283529160200191610903565b820191906000526020600020905b8154815290600101906020018083116108e657829003601f168201915b5050505050905090565b610915610ef8565b73ffffffffffffffffffffffffffffffffffffffff168273ffffffffffffffffffffffffffffffffffffffff161415610983576040517f08c379a000000000000000000000000000000000000000000000000000000000815260040161097a90612fb6565b60405180910390fd5b8060056000610990610ef8565b73ffffffffffffffffffffffffffffffffffffffff1673ffffffffffffffffffffffffffffffffffffffff16815260200190815260200160002060008473ffffffffffffffffffffffffffffffffffffffff1673ffffffffffffffffffffffffffffffffffffffff16815260200190815260200160002060006101000a81548160ff0219169083151502179055508173ffffffffffffffffffffffffffffffffffffffff16610a3d610ef8565b73ffffffffffffffffffffffffffffffffffffffff167f17307eab39ab6107e8899845ad3d59bd9653f200f220920489ca2b5937696c3183604051610a829190612dc1565b60405180910390a35050565b610a9f610a99610ef8565b83610fb9565b610ade576040517f08c379a0000000000000000000000000000000000000000000000000000000008152600401610ad590613176565b60405180910390fd5b610aea848484846112f3565b50505050565b6060610afb82610e8c565b610b3a576040517f08c379a0000000000000000000000000000000000000000000000000000000008152600401610b31906130f6565b60405180910390fd5b600860008381526020019081526020016000208054610b5890613495565b80601f0160208091040260200160405190810160405280929190818152602001828054610b8490613495565b8015610bd15780601f10610ba657610100808354040283529160200191610bd1565b820191906000526020600020905b815481529060010190602001808311610bb457829003601f168201915b50505050509050919050565b610be7838361134f565b610bf1828261151d565b505050565b7f9f2df0fed2c77648de5860a4cc508cd0818c85b8b8a1ab4ceeef8d981c8956a681565b600080610c26836115f3565b9050610c358360000135610711565b73ffffffffffffffffffffffffffffffffffffffff168173ffffffffffffffffffffffffffffffffffffffff1614610ca2576040517f08c379a0000000000000000000000000000000000000000000000000000000008152600401610c9990613156565b60405180910390fd5b610cb181858560000135611097565b6001600760008373ffffffffffffffffffffffffffffffffffffffff1673ffffffffffffffffffffffffffffffffffffffff1681526020019081526020016000206000828254610d01919061333e565b92505081905550826000013591505092915050565b6000600560008473ffffffffffffffffffffffffffffffffffffffff1673ffffffffffffffffffffffffffffffffffffffff16815260200190815260200160002060008373ffffffffffffffffffffffffffffffffffffffff1673ffffffffffffffffffffffffffffffffffffffff16815260200190815260200160002060009054906101000a900460ff16905092915050565b60007f80ac58cd000000000000000000000000000000000000000000000000000000007bffffffffffffffffffffffffffffffffffffffffffffffffffffffff1916827bffffffffffffffffffffffffffffffffffffffffffffffffffffffff19161480610e7557507f5b5e139f000000000000000000000000000000000000000000000000000000007bffffffffffffffffffffffffffffffffffffffffffffffffffffffff1916827bffffffffffffffffffffffffffffffffffffffffffffffffffffffff1916145b80610e855750610e8482611665565b5b9050919050565b60008073ffffffffffffffffffffffffffffffffffffffff166002600084815260200190815260200160002060009054906101000a900473ffffffffffffffffffffffffffffffffffffffff1673ffffffffffffffffffffffffffffffffffffffff1614159050919050565b600033905090565b816004600083815260200190815260200160002060006101000a81548173ffffffffffffffffffffffffffffffffffffffff021916908373ffffffffffffffffffffffffffffffffffffffff160217905550808273ffffffffffffffffffffffffffffffffffffffff16610f7383610711565b73ffffffffffffffffffffffffffffffffffffffff167f8c5be1e5ebec7d5bd14f71427d1e84f3dd0314c0f7b2291e5b200ac8c7c3b92560405160405180910390a45050565b6000610fc482610e8c565b611003576040517f08c379a0000000000000000000000000000000000000000000000000000000008152600401610ffa90612ff6565b60405180910390fd5b600061100e83610711565b90508073ffffffffffffffffffffffffffffffffffffffff168473ffffffffffffffffffffffffffffffffffffffff16148061107d57508373ffffffffffffffffffffffffffffffffffffffff16611065846104e7565b73ffffffffffffffffffffffffffffffffffffffff16145b8061108e575061108d8185610d16565b5b91505092915050565b8273ffffffffffffffffffffffffffffffffffffffff166110b782610711565b73ffffffffffffffffffffffffffffffffffffffff161461110d576040517f08c379a000000000000000000000000000000000000000000000000000000000815260040161110490613116565b60405180910390fd5b600073ffffffffffffffffffffffffffffffffffffffff168273ffffffffffffffffffffffffffffffffffffffff16141561117d576040517f08c379a000000000000000000000000000000000000000000000000000000000815260040161117490612f96565b60405180910390fd5b6111888383836116cf565b611193600082610f00565b6001600360008573ffffffffffffffffffffffffffffffffffffffff1673ffffffffffffffffffffffffffffffffffffffff16815260200190815260200160002060008282546111e39190613394565b925050819055506001600360008473ffffffffffffffffffffffffffffffffffffffff1673ffffffffffffffffffffffffffffffffffffffff168152602001908152602001600020600082825461123a919061333e565b92505081905550816002600083815260200190815260200160002060006101000a81548173ffffffffffffffffffffffffffffffffffffffff021916908373ffffffffffffffffffffffffffffffffffffffff160217905550808273ffffffffffffffffffffffffffffffffffffffff168473ffffffffffffffffffffffffffffffffffffffff167fddf252ad1be2c89b69c2b068fc378daa952ba7f163c4a11628f55a4df523b3ef60405160405180910390a4505050565b6112fe848484611097565b61130a848484846116d4565b611349576040517f08c379a000000000000000000000000000000000000000000000000000000000815260040161134090612f36565b60405180910390fd5b50505050565b600073ffffffffffffffffffffffffffffffffffffffff168273ffffffffffffffffffffffffffffffffffffffff1614156113bf576040517f08c379a00000000000000000000000000000000000000000000000000000000081526004016113b6906130b6565b60405180910390fd5b6113c881610e8c565b15611408576040517f08c379a00000000000000000000000000000000000000000000000000000000081526004016113ff90612f56565b60405180910390fd5b611414600083836116cf565b6001600360008473ffffffffffffffffffffffffffffffffffffffff1673ffffffffffffffffffffffffffffffffffffffff1681526020019081526020016000206000828254611464919061333e565b92505081905550816002600083815260200190815260200160002060006101000a81548173ffffffffffffffffffffffffffffffffffffffff021916908373ffffffffffffffffffffffffffffffffffffffff160217905550808273ffffffffffffffffffffffffffffffffffffffff16600073ffffffffffffffffffffffffffffffffffffffff167fddf252ad1be2c89b69c2b068fc378daa952ba7f163c4a11628f55a4df523b3ef60405160405180910390a45050565b61152682610e8c565b611565576040517f08c379a000000000000000000000000000000000000000000000000000000000815260040161155c90612f76565b60405180910390fd5b600060086000848152602001908152602001600020805461158590613495565b9050146115c7576040517f08c379a00000000000000000000000000000000000000000000000000000000081526004016115be90613016565b60405180910390fd5b806008600084815260200190815260200160002090805190602001906115ee929190611fa9565b505050565b6000806115ff8361186b565b905061165d8184806060019061161591906131b1565b8080601f016020809104026020016040519081016040528093929190818152602001838380828437600081840152601f19601f820116905080830192505050505050506118f6565b915050919050565b60007f01ffc9a7000000000000000000000000000000000000000000000000000000007bffffffffffffffffffffffffffffffffffffffffffffffffffffffff1916827bffffffffffffffffffffffffffffffffffffffffffffffffffffffff1916149050919050565b505050565b60006116f58473ffffffffffffffffffffffffffffffffffffffff1661191d565b1561185e578373ffffffffffffffffffffffffffffffffffffffff1663150b7a0261171e610ef8565b8786866040518563ffffffff1660e01b81526004016117409493929190612d75565b602060405180830381600087803b15801561175a57600080fd5b505af192505050801561178b57506040513d601f19601f82011682018060405250810190611788919061242b565b60015b61180e573d80600081146117bb576040519150601f19603f3d011682016040523d82523d6000602084013e6117c0565b606091505b50600081511415611806576040517f08c379a00000000000000000000000000000000000000000000000000000000081526004016117fd90612f36565b60405180910390fd5b805181602001fd5b63150b7a0260e01b7bffffffffffffffffffffffffffffffffffffffffffffffffffffffff1916817bffffffffffffffffffffffffffffffffffffffffffffffffffffffff191614915050611863565b600190505b949350505050565b60006118ef7fb0eaf81bca918a519c657f3451dfd0b83c25af74a92aca0e7fbeb93b76c9b191836000013584602001358580604001906118ab9190613208565b6040516118b9929190612d0a565b60405180910390206040516020016118d49493929190612e4a565b60405160208183030381529060405280519060200120611930565b9050919050565b6000806000611905858561194a565b91509150611912816119cd565b819250505092915050565b600080823b905060008111915050919050565b600061194361193d611d1e565b83611de1565b9050919050565b60008060418351141561198c5760008060006020860151925060408601519150606086015160001a905061198087828585611e14565b945094505050506119c6565b6040835114156119bd5760008060208501519150604085015190506119b2868383611f21565b9350935050506119c6565b60006002915091505b9250929050565b60006004811115611a07577f4e487b7100000000000000000000000000000000000000000000000000000000600052602160045260246000fd5b816004811115611a40577f4e487b7100000000000000000000000000000000000000000000000000000000600052602160045260246000fd5b1415611a4b57611d1b565b60016004811115611a85577f4e487b7100000000000000000000000000000000000000000000000000000000600052602160045260246000fd5b816004811115611abe577f4e487b7100000000000000000000000000000000000000000000000000000000600052602160045260246000fd5b1415611aff576040517f08c379a0000000000000000000000000000000000000000000000000000000008152600401611af690612ef6565b60405180910390fd5b60026004811115611b39577f4e487b7100000000000000000000000000000000000000000000000000000000600052602160045260246000fd5b816004811115611b72577f4e487b7100000000000000000000000000000000000000000000000000000000600052602160045260246000fd5b1415611bb3576040517f08c379a0000000000000000000000000000000000000000000000000000000008152600401611baa90612f16565b60405180910390fd5b60036004811115611bed577f4e487b7100000000000000000000000000000000000000000000000000000000600052602160045260246000fd5b816004811115611c26577f4e487b7100000000000000000000000000000000000000000000000000000000600052602160045260246000fd5b1415611c67576040517f08c379a0000000000000000000000000000000000000000000000000000000008152600401611c5e90612fd6565b60405180910390fd5b600480811115611ca0577f4e487b7100000000000000000000000000000000000000000000000000000000600052602160045260246000fd5b816004811115611cd9577f4e487b7100000000000000000000000000000000000000000000000000000000600052602160045260246000fd5b1415611d1a576040517f08c379a0000000000000000000000000000000000000000000000000000000008152600401611d1190613096565b60405180910390fd5b5b50565b60007f0000000000000000000000000000000000000000000000000000000000000000461415611d70577f00000000000000000000000000000000000000000000000000000000000000009050611dde565b611ddb7f00000000000000000000000000000000000000000000000000000000000000007f00000000000000000000000000000000000000000000000000000000000000007f0000000000000000000000000000000000000000000000000000000000000000611f6f565b90505b90565b60008282604051602001611df6929190612d23565b60405160208183030381529060405280519060200120905092915050565b6000807f7fffffffffffffffffffffffffffffff5d576e7357a4501ddfe92f46681b20a08360001c1115611e4f576000600391509150611f18565b601b8560ff1614158015611e675750601c8560ff1614155b15611e79576000600491509150611f18565b600060018787878760405160008152602001604052604051611e9e9493929190612e8f565b6020604051602081039080840390855afa158015611ec0573d6000803e3d6000fd5b505050602060405103519050600073ffffffffffffffffffffffffffffffffffffffff168173ffffffffffffffffffffffffffffffffffffffff161415611f0f57600060019250925050611f18565b80600092509250505b94509492505050565b6000806000807f7fffffffffffffffffffffffffffffffffffffffffffffffffffffffffffffff85169150601b8560ff1c019050611f6187828885611e14565b935093505050935093915050565b60008383834630604051602001611f8a959493929190612df7565b6040516020818303038152906040528051906020012090509392505050565b828054611fb590613495565b90600052602060002090601f016020900481019282611fd7576000855561201e565b82601f10611ff057805160ff191683800117855561201e565b8280016001018555821561201e579182015b8281111561201d578251825591602001919060010190612002565b5b50905061202b919061202f565b5090565b5b80821115612048576000816000905550600101612030565b5090565b600061205f61205a84613290565b61325f565b90508281526020810184848401111561207757600080fd5b612082848285613453565b509392505050565b600061209d612098846132c0565b61325f565b9050828152602081018484840111156120b557600080fd5b6120c0848285613453565b509392505050565b6000813590506120d78161356f565b92915050565b6000813590506120ec81613586565b92915050565b6000813590506121018161359d565b92915050565b6000815190506121168161359d565b92915050565b600082601f83011261212d57600080fd5b813561213d84826020860161204c565b91505092915050565b600082601f83011261215757600080fd5b813561216784826020860161208a565b91505092915050565b60006080828403121561218257600080fd5b81905092915050565b60008135905061219a816135b4565b92915050565b6000602082840312156121b257600080fd5b60006121c0848285016120c8565b91505092915050565b600080604083850312156121dc57600080fd5b60006121ea858286016120c8565b92505060206121fb858286016120c8565b9150509250929050565b60008060006060848603121561221a57600080fd5b6000612228868287016120c8565b9350506020612239868287016120c8565b925050604061224a8682870161218b565b9150509250925092565b6000806000806080858703121561226a57600080fd5b6000612278878288016120c8565b9450506020612289878288016120c8565b935050604061229a8782880161218b565b925050606085013567ffffffffffffffff8111156122b757600080fd5b6122c38782880161211c565b91505092959194509250565b600080604083850312156122e257600080fd5b60006122f0858286016120c8565b9250506020612301858286016120dd565b9150509250929050565b6000806040838503121561231e57600080fd5b600061232c858286016120c8565b925050602083013567ffffffffffffffff81111561234957600080fd5b61235585828601612170565b9150509250929050565b6000806040838503121561237257600080fd5b6000612380858286016120c8565b92505060206123918582860161218b565b9150509250929050565b6000806000606084860312156123b057600080fd5b60006123be868287016120c8565b93505060206123cf8682870161218b565b925050604084013567ffffffffffffffff8111156123ec57600080fd5b6123f886828701612146565b9150509250925092565b60006020828403121561241457600080fd5b6000612422848285016120f2565b91505092915050565b60006020828403121561243d57600080fd5b600061244b84828501612107565b91505092915050565b60006020828403121561246657600080fd5b60006124748482850161218b565b91505092915050565b612486816133c8565b82525050565b612495816133da565b82525050565b6124a4816133e6565b82525050565b6124bb6124b6826133e6565b6134c7565b82525050565b60006124cd8385613317565b93506124da838584613453565b82840190509392505050565b60006124f1826132f0565b6124fb8185613306565b935061250b818560208601613462565b6125148161355e565b840191505092915050565b600061252a826132fb565b6125348185613322565b9350612544818560208601613462565b61254d8161355e565b840191505092915050565b6000612565601883613322565b91507f45434453413a20696e76616c6964207369676e617475726500000000000000006000830152602082019050919050565b60006125a5601f83613322565b91507f45434453413a20696e76616c6964207369676e6174757265206c656e677468006000830152602082019050919050565b60006125e5603283613322565b91507f4552433732313a207472616e7366657220746f206e6f6e20455243373231526560008301527f63656976657220696d706c656d656e74657200000000000000000000000000006020830152604082019050919050565b600061264b601c83613322565b91507f4552433732313a20746f6b656e20616c7265616479206d696e746564000000006000830152602082019050919050565b600061268b600283613333565b91507f19010000000000000000000000000000000000000000000000000000000000006000830152600282019050919050565b60006126cb602e83613322565b91507f53657474696e672055524920666f72206e6f6e2d6578697374656e7420746f6b60008301527f656e206e6f7420616c6c6f7765640000000000000000000000000000000000006020830152604082019050919050565b6000612731602483613322565b91507f4552433732313a207472616e7366657220746f20746865207a65726f2061646460008301527f72657373000000000000000000000000000000000000000000000000000000006020830152604082019050919050565b6000612797601983613322565b91507f4552433732313a20617070726f766520746f2063616c6c6572000000000000006000830152602082019050919050565b60006127d7602283613322565b91507f45434453413a20696e76616c6964207369676e6174757265202773272076616c60008301527f75650000000000000000000000000000000000000000000000000000000000006020830152604082019050919050565b600061283d602c83613322565b91507f4552433732313a206f70657261746f7220717565727920666f72206e6f6e657860008301527f697374656e7420746f6b656e00000000000000000000000000000000000000006020830152604082019050919050565b60006128a3601f83613322565b91507f5468697320746f6b656e27732055524920616c726561647920657869737473006000830152602082019050919050565b60006128e3603883613322565b91507f4552433732313a20617070726f76652063616c6c6572206973206e6f74206f7760008301527f6e6572206e6f7220617070726f76656420666f7220616c6c00000000000000006020830152604082019050919050565b6000612949602a83613322565b91507f4552433732313a2062616c616e636520717565727920666f7220746865207a6560008301527f726f2061646472657373000000000000000000000000000000000000000000006020830152604082019050919050565b60006129af602983613322565b91507f4552433732313a206f776e657220717565727920666f72206e6f6e657869737460008301527f656e7420746f6b656e00000000000000000000000000000000000000000000006020830152604082019050919050565b6000612a15602283613322565b91507f45434453413a20696e76616c6964207369676e6174757265202776272076616c60008301527f75650000000000000000000000000000000000000000000000000000000000006020830152604082019050919050565b6000612a7b602083613322565b91507f4552433732313a206d696e7420746f20746865207a65726f20616464726573736000830152602082019050919050565b6000612abb602c83613322565b91507f4552433732313a20617070726f76656420717565727920666f72206e6f6e657860008301527f697374656e7420746f6b656e00000000000000000000000000000000000000006020830152604082019050919050565b6000612b21601c83613322565b91507f517565727920666f72206e6f6e206578697374656e7420746f6b656e000000006000830152602082019050919050565b6000612b61602983613322565b91507f4552433732313a207472616e73666572206f6620746f6b656e2074686174206960008301527f73206e6f74206f776e00000000000000000000000000000000000000000000006020830152604082019050919050565b6000612bc7602183613322565b91507f4552433732313a20617070726f76616c20746f2063757272656e74206f776e6560008301527f72000000000000000000000000000000000000000000000000000000000000006020830152604082019050919050565b6000612c2d602783613322565b91507f417574686f72697a6174696f6e206661696c65643a20496e76616c696420736960008301527f676e6174757265000000000000000000000000000000000000000000000000006020830152604082019050919050565b6000612c93603183613322565b91507f4552433732313a207472616e736665722063616c6c6572206973206e6f74206f60008301527f776e6572206e6f7220617070726f7665640000000000000000000000000000006020830152604082019050919050565b612cf58161343c565b82525050565b612d0481613446565b82525050565b6000612d178284866124c1565b91508190509392505050565b6000612d2e8261267e565b9150612d3a82856124aa565b602082019150612d4a82846124aa565b6020820191508190509392505050565b6000602082019050612d6f600083018461247d565b92915050565b6000608082019050612d8a600083018761247d565b612d97602083018661247d565b612da46040830185612cec565b8181036060830152612db681846124e6565b905095945050505050565b6000602082019050612dd6600083018461248c565b92915050565b6000602082019050612df1600083018461249b565b92915050565b600060a082019050612e0c600083018861249b565b612e19602083018761249b565b612e26604083018661249b565b612e336060830185612cec565b612e40608083018461247d565b9695505050505050565b6000608082019050612e5f600083018761249b565b612e6c6020830186612cec565b612e796040830185612cec565b612e86606083018461249b565b95945050505050565b6000608082019050612ea4600083018761249b565b612eb16020830186612cfb565b612ebe604083018561249b565b612ecb606083018461249b565b95945050505050565b60006020820190508181036000830152612eee818461251f565b905092915050565b60006020820190508181036000830152612f0f81612558565b9050919050565b60006020820190508181036000830152612f2f81612598565b9050919050565b60006020820190508181036000830152612f4f816125d8565b9050919050565b60006020820190508181036000830152612f6f8161263e565b9050919050565b60006020820190508181036000830152612f8f816126be565b9050919050565b60006020820190508181036000830152612faf81612724565b9050919050565b60006020820190508181036000830152612fcf8161278a565b9050919050565b60006020820190508181036000830152612fef816127ca565b9050919050565b6000602082019050818103600083015261300f81612830565b9050919050565b6000602082019050818103600083015261302f81612896565b9050919050565b6000602082019050818103600083015261304f816128d6565b9050919050565b6000602082019050818103600083015261306f8161293c565b9050919050565b6000602082019050818103600083015261308f816129a2565b9050919050565b600060208201905081810360008301526130af81612a08565b9050919050565b600060208201905081810360008301526130cf81612a6e565b9050919050565b600060208201905081810360008301526130ef81612aae565b9050919050565b6000602082019050818103600083015261310f81612b14565b9050919050565b6000602082019050818103600083015261312f81612b54565b9050919050565b6000602082019050818103600083015261314f81612bba565b9050919050565b6000602082019050818103600083015261316f81612c20565b9050919050565b6000602082019050818103600083015261318f81612c86565b9050919050565b60006020820190506131ab6000830184612cec565b92915050565b600080833560016020038436030381126131ca57600080fd5b80840192508235915067ffffffffffffffff8211156131e857600080fd5b60208301925060018202360383131561320057600080fd5b509250929050565b6000808335600160200384360303811261322157600080fd5b80840192508235915067ffffffffffffffff82111561323f57600080fd5b60208301925060018202360383131561325757600080fd5b509250929050565b6000604051905081810181811067ffffffffffffffff821117156132865761328561352f565b5b8060405250919050565b600067ffffffffffffffff8211156132ab576132aa61352f565b5b601f19601f8301169050602081019050919050565b600067ffffffffffffffff8211156132db576132da61352f565b5b601f19601f8301169050602081019050919050565b600081519050919050565b600081519050919050565b600082825260208201905092915050565b600081905092915050565b600082825260208201905092915050565b600081905092915050565b60006133498261343c565b91506133548361343c565b9250827fffffffffffffffffffffffffffffffffffffffffffffffffffffffffffffffff03821115613389576133886134d1565b5b828201905092915050565b600061339f8261343c565b91506133aa8361343c565b9250828210156133bd576133bc6134d1565b5b828203905092915050565b60006133d38261341c565b9050919050565b60008115159050919050565b6000819050919050565b60007fffffffff0000000000000000000000000000000000000000000000000000000082169050919050565b600073ffffffffffffffffffffffffffffffffffffffff82169050919050565b6000819050919050565b600060ff82169050919050565b82818337600083830152505050565b60005b83811015613480578082015181840152602081019050613465565b8381111561348f576000848401525b50505050565b600060028204905060018216806134ad57607f821691505b602082108114156134c1576134c0613500565b5b50919050565b6000819050919050565b7f4e487b7100000000000000000000000000000000000000000000000000000000600052601160045260246000fd5b7f4e487b7100000000000000000000000000000000000000000000000000000000600052602260045260246000fd5b7f4e487b7100000000000000000000000000000000000000000000000000000000600052604160045260246000fd5b6000601f19601f8301169050919050565b613578816133c8565b811461358357600080fd5b50565b61358f816133da565b811461359a57600080fd5b50565b6135a6816133f0565b81146135b157600080fd5b50565b6135bd8161343c565b81146135c857600080fd5b5056fea2646970667358221220559e8a9e50f23ed4eaec7191c88827fc3f0300544cc769f1ab9aa581b098e93264736f6c63430008000033",
  "immutableReferences": {
    "11493": [
      {
        "length": 32,
        "start": 7498
      }
    ],
    "11495": [
      {
        "length": 32,
        "start": 7458
      }
    ],
    "11497": [
      {
        "length": 32,
        "start": 7574
      }
    ],
    "11499": [
      {
        "length": 32,
        "start": 7607
      }
    ],
    "11501": [
      {
        "length": 32,
        "start": 7541
      }
    ]
  },
  "source": "//SPDX-License-Identifier: Unlicense\npragma solidity ^0.8.0;\npragma abicoder v2; // required to accept structs as function parameters\n\nimport \"./utils.sol\";\n\ncontract WebaverseNFT is ERC721URIStorage, EIP712 {\n    bytes32 public constant MINTER_ROLE = keccak256(\"MINTER_ROLE\");\n    string private constant SIGNING_DOMAIN = \"Webaverse-voucher\";\n    string private constant SIGNATURE_VERSION = \"1\";\n\n    // stores the incrementing nonces for the signers to prevent replay attacks\n    mapping(address => uint256) nonces;\n\n    // mapping to store the URIs of all the NFTs\n    mapping(uint256 => string) private _tokenURIs;\n\n    constructor(address payable minter)\n        ERC721(\"WebaverseNFT\", \"WVRS\")\n        EIP712(SIGNING_DOMAIN, SIGNATURE_VERSION)\n    {}\n\n    // @notice Represents an un-minted NFT, which has not yet been recorded into the blockchain. A signed voucher can be redeemed for a real NFT using the redeem function.\n    struct NFTVoucher {\n        // @notice The id of the token to be redeemed. Must be unique - if another token with this ID already exists, the redeem function will revert.\n        uint256 tokenId;\n        // @notice The minimum price (in wei) that the NFT creator is willing to accept for the initial sale of this NFT.\n        uint256 nonce;\n        // @notice The metadata URI to associate with this token.\n        string uri;\n        // @notice the EIP-712 signature of all other fields in the NFTVoucher struct. For a voucher to be valid, it must be signed by an account with the MINTER_ROLE.\n        bytes signature;\n    }\n\n    function mint(\n        address account,\n        uint256 tokenId,\n        string memory cid\n    ) public {\n        _mint(account, tokenId);\n        _setURI(tokenId, cid);\n    }\n\n    function tokenURI(uint256 tokenId)\n        public\n        view\n        virtual\n        override\n        returns (string memory)\n    {\n        require(_exists(tokenId), \"Query for non existent token\");\n        return _tokenURIs[tokenId];\n    }\n\n    /// @notice Redeems an NFTVoucher for an actual NFT, creating it in the process.\n    /// @param claimer The address of the account which will receive the NFT upon success.\n    /// @param voucher A signed NFTVoucher that describes the NFT to be redeemed.\n    function claim(address claimer, NFTVoucher calldata voucher)\n        public\n        payable\n        returns (uint256)\n    {\n        // make sure signature is valid and get the address of the signer\n        address signer = _verify(voucher);\n\n        require(\n            signer == ownerOf(voucher.tokenId),\n            \"Authorization failed: Invalid signature\"\n        );\n\n        // make sure that the signer is authorized to mint NFTs\n        // require(hasRole(MINTER_ROLE, signer), \"Signature invalid or unauthorized\");\n\n        // make sure that the redeemer is paying enough to cover the buyer's cost\n        // require(msg.value >= voucher.minPrice, \"Insufficient funds to redeem\");\n\n        // transfer the token to the redeemer\n        _transfer(signer, claimer, voucher.tokenId);\n        nonces[signer] += 1;\n        return voucher.tokenId;\n    }\n\n    // Use the mapping _tokenURIs for storing the URIs of NFTs\n    function _setURI(uint256 tokenId, string memory cid) internal virtual {\n        require(\n            _exists(tokenId),\n            \"Setting URI for non-existent token not allowed\"\n        );\n        require(\n            bytes(_tokenURIs[tokenId]).length == 0,\n            \"This token's URI already exists\"\n        );\n        _tokenURIs[tokenId] = cid;\n    }\n\n    /// @notice Returns a hash of the given NFTVoucher, prepared using EIP712 typed data hashing rules.\n    /// @param voucher An NFTVoucher to hash.\n    function _hash(NFTVoucher calldata voucher)\n        internal\n        view\n        returns (bytes32)\n    {\n        return\n            _hashTypedDataV4(\n                keccak256(\n                    abi.encode(\n                        keccak256(\n                            \"NFTVoucher(uint256 tokenId,uint256 nonce,string uri)\"\n                        ),\n                        voucher.tokenId,\n                        voucher.nonce,\n                        keccak256(bytes(voucher.uri))\n                    )\n                )\n            );\n    }\n\n    /// @notice Returns the chain id of the current blockchain.\n    /// @dev This is used to workaround an issue with ganache returning different values from the on-chain chainid() function and\n    ///  the eth_chainId RPC method. See https://github.com/protocol/nft-website/issues/121 for context.\n    function getChainID() external view returns (uint256) {\n        uint256 id;\n        assembly {\n            id := chainid()\n        }\n        return id;\n    }\n\n    /// @notice Verifies the signature for a given NFTVoucher, returning the address of the signer.\n    /// @dev Will revert if the signature is invalid. Does not verify that the signer is authorized to mint NFTs.\n    /// @param voucher An NFTVoucher describing an unminted NFT.\n    function _verify(NFTVoucher calldata voucher)\n        internal\n        view\n        returns (address)\n    {\n        bytes32 digest = _hash(voucher);\n        return ECDSA.recover(digest, voucher.signature);\n    }\n\n    function supportsInterface(bytes4 interfaceId)\n        public\n        view\n        virtual\n        override(ERC721)\n        returns (bool)\n    {\n        return ERC721.supportsInterface(interfaceId);\n    }\n}\n",
  "sourcePath": "/home/mohsin/Desktop/Solidity/contracts/Webaverse/copy.sol",
  "compiler": {
    "name": "solc",
    "version": "0.8.0+commit.c7dfd78e.Emscripten.clang"
  },
  "schemaVersion": "3.4.3",
  "updatedAt": "2021-10-04T12:01:59.198Z",
  "devdoc": {
    "kind": "dev",
    "methods": {
      "approve(address,uint256)": {
        "details": "See {IERC721-approve}."
      },
      "balanceOf(address)": {
        "details": "See {IERC721-balanceOf}."
      },
      "claim(address,(uint256,uint256,string,bytes))": {
        "params": {
          "claimer": "The address of the account which will receive the NFT upon success.",
          "voucher": "A signed NFTVoucher that describes the NFT to be redeemed."
        }
      },
      "getApproved(uint256)": {
        "details": "See {IERC721-getApproved}."
      },
      "getChainID()": {
        "details": "This is used to workaround an issue with ganache returning different values from the on-chain chainid() function and  the eth_chainId RPC method. See https://github.com/protocol/nft-website/issues/121 for context."
      },
      "isApprovedForAll(address,address)": {
        "details": "See {IERC721-isApprovedForAll}."
      },
      "name()": {
        "details": "See {IERC721Metadata-name}."
      },
      "ownerOf(uint256)": {
        "details": "See {IERC721-ownerOf}."
      },
      "safeTransferFrom(address,address,uint256)": {
        "details": "See {IERC721-safeTransferFrom}."
      },
      "safeTransferFrom(address,address,uint256,bytes)": {
        "details": "See {IERC721-safeTransferFrom}."
      },
      "setApprovalForAll(address,bool)": {
        "details": "See {IERC721-setApprovalForAll}."
      },
      "supportsInterface(bytes4)": {
        "details": "See {IERC165-supportsInterface}."
      },
      "symbol()": {
        "details": "See {IERC721Metadata-symbol}."
      },
      "tokenURI(uint256)": {
        "details": "See {IERC721Metadata-tokenURI}."
      },
      "transferFrom(address,address,uint256)": {
        "details": "See {IERC721-transferFrom}."
      }
    },
    "version": 1
  },
  "userdoc": {
    "kind": "user",
    "methods": {
      "claim(address,(uint256,uint256,string,bytes))": {
        "notice": "Redeems an NFTVoucher for an actual NFT, creating it in the process."
      },
      "getChainID()": {
        "notice": "Returns the chain id of the current blockchain."
      }
    },
    "version": 1
  }
}