{
  "contractName": "WebaverseNFT",
  "abi": [
    {
      "inputs": [],
      "stateMutability": "nonpayable",
      "type": "constructor"
    },
    {
      "anonymous": false,
      "inputs": [
        {
          "indexed": true,
          "internalType": "address",
          "name": "owner",
          "type": "address"
        },
        {
          "indexed": true,
          "internalType": "address",
          "name": "approved",
          "type": "address"
        },
        {
          "indexed": true,
          "internalType": "uint256",
          "name": "tokenId",
          "type": "uint256"
        }
      ],
      "name": "Approval",
      "type": "event"
    },
    {
      "anonymous": false,
      "inputs": [
        {
          "indexed": true,
          "internalType": "address",
          "name": "owner",
          "type": "address"
        },
        {
          "indexed": true,
          "internalType": "address",
          "name": "operator",
          "type": "address"
        },
        {
          "indexed": false,
          "internalType": "bool",
          "name": "approved",
          "type": "bool"
        }
      ],
      "name": "ApprovalForAll",
      "type": "event"
    },
    {
      "anonymous": false,
      "inputs": [
        {
          "indexed": true,
          "internalType": "address",
          "name": "from",
          "type": "address"
        },
        {
          "indexed": true,
          "internalType": "address",
          "name": "to",
          "type": "address"
        },
        {
          "indexed": true,
          "internalType": "uint256",
          "name": "tokenId",
          "type": "uint256"
        }
      ],
      "name": "Transfer",
      "type": "event"
    },
    {
      "inputs": [
        {
          "internalType": "address",
          "name": "to",
          "type": "address"
        },
        {
          "internalType": "uint256",
          "name": "tokenId",
          "type": "uint256"
        }
      ],
      "name": "approve",
      "outputs": [],
      "stateMutability": "nonpayable",
      "type": "function"
    },
    {
      "inputs": [
        {
          "internalType": "address",
          "name": "owner",
          "type": "address"
        }
      ],
      "name": "balanceOf",
      "outputs": [
        {
          "internalType": "uint256",
          "name": "",
          "type": "uint256"
        }
      ],
      "stateMutability": "view",
      "type": "function"
    },
    {
      "inputs": [
        {
          "internalType": "uint256",
          "name": "",
          "type": "uint256"
        }
      ],
      "name": "burnedNonces",
      "outputs": [
        {
          "internalType": "bool",
          "name": "",
          "type": "bool"
        }
      ],
      "stateMutability": "view",
      "type": "function"
    },
    {
      "inputs": [
        {
          "internalType": "uint256",
          "name": "tokenId",
          "type": "uint256"
        }
      ],
      "name": "getApproved",
      "outputs": [
        {
          "internalType": "address",
          "name": "",
          "type": "address"
        }
      ],
      "stateMutability": "view",
      "type": "function"
    },
    {
      "inputs": [
        {
          "internalType": "address",
          "name": "owner",
          "type": "address"
        },
        {
          "internalType": "address",
          "name": "operator",
          "type": "address"
        }
      ],
      "name": "isApprovedForAll",
      "outputs": [
        {
          "internalType": "bool",
          "name": "",
          "type": "bool"
        }
      ],
      "stateMutability": "view",
      "type": "function"
    },
    {
      "inputs": [],
      "name": "name",
      "outputs": [
        {
          "internalType": "string",
          "name": "",
          "type": "string"
        }
      ],
      "stateMutability": "view",
      "type": "function"
    },
    {
      "inputs": [
        {
          "internalType": "uint256",
          "name": "tokenId",
          "type": "uint256"
        }
      ],
      "name": "ownerOf",
      "outputs": [
        {
          "internalType": "address",
          "name": "",
          "type": "address"
        }
      ],
      "stateMutability": "view",
      "type": "function"
    },
    {
      "inputs": [
        {
          "internalType": "address",
          "name": "from",
          "type": "address"
        },
        {
          "internalType": "address",
          "name": "to",
          "type": "address"
        },
        {
          "internalType": "uint256",
          "name": "tokenId",
          "type": "uint256"
        }
      ],
      "name": "safeTransferFrom",
      "outputs": [],
      "stateMutability": "nonpayable",
      "type": "function"
    },
    {
      "inputs": [
        {
          "internalType": "address",
          "name": "from",
          "type": "address"
        },
        {
          "internalType": "address",
          "name": "to",
          "type": "address"
        },
        {
          "internalType": "uint256",
          "name": "tokenId",
          "type": "uint256"
        },
        {
          "internalType": "bytes",
          "name": "_data",
          "type": "bytes"
        }
      ],
      "name": "safeTransferFrom",
      "outputs": [],
      "stateMutability": "nonpayable",
      "type": "function"
    },
    {
      "inputs": [
        {
          "internalType": "address",
          "name": "operator",
          "type": "address"
        },
        {
          "internalType": "bool",
          "name": "approved",
          "type": "bool"
        }
      ],
      "name": "setApprovalForAll",
      "outputs": [],
      "stateMutability": "nonpayable",
      "type": "function"
    },
    {
      "inputs": [],
      "name": "symbol",
      "outputs": [
        {
          "internalType": "string",
          "name": "",
          "type": "string"
        }
      ],
      "stateMutability": "view",
      "type": "function"
    },
    {
      "inputs": [
        {
          "internalType": "address",
          "name": "from",
          "type": "address"
        },
        {
          "internalType": "address",
          "name": "to",
          "type": "address"
        },
        {
          "internalType": "uint256",
          "name": "tokenId",
          "type": "uint256"
        }
      ],
      "name": "transferFrom",
      "outputs": [],
      "stateMutability": "nonpayable",
      "type": "function"
    },
    {
      "inputs": [
        {
          "internalType": "address",
          "name": "account",
          "type": "address"
        },
        {
          "internalType": "uint256",
          "name": "tokenId",
          "type": "uint256"
        },
        {
          "internalType": "string",
          "name": "uri",
          "type": "string"
        }
      ],
      "name": "mint",
      "outputs": [],
      "stateMutability": "nonpayable",
      "type": "function"
    },
    {
      "inputs": [
        {
          "internalType": "uint256",
          "name": "tokenId",
          "type": "uint256"
        }
      ],
      "name": "tokenURI",
      "outputs": [
        {
          "internalType": "string",
          "name": "",
          "type": "string"
        }
      ],
      "stateMutability": "view",
      "type": "function"
    },
    {
      "inputs": [
        {
          "internalType": "address",
          "name": "claimer",
          "type": "address"
        },
        {
          "components": [
            {
              "internalType": "uint256",
              "name": "tokenId",
              "type": "uint256"
            },
            {
              "internalType": "uint256",
              "name": "nonce",
              "type": "uint256"
            },
            {
              "internalType": "uint256",
              "name": "expiry",
              "type": "uint256"
            },
            {
              "internalType": "bytes",
              "name": "signature",
              "type": "bytes"
            }
          ],
          "internalType": "struct WebaverseNFT.NFTVoucher",
          "name": "voucher",
          "type": "tuple"
        }
      ],
      "name": "claim",
      "outputs": [
        {
          "internalType": "uint256",
          "name": "",
          "type": "uint256"
        }
      ],
      "stateMutability": "nonpayable",
      "type": "function"
    },
    {
      "inputs": [
        {
          "internalType": "address",
          "name": "claimer",
          "type": "address"
        },
        {
          "internalType": "address",
          "name": "contractAddress",
          "type": "address"
        },
        {
          "components": [
            {
              "internalType": "uint256",
              "name": "tokenId",
              "type": "uint256"
            },
            {
              "internalType": "uint256",
              "name": "nonce",
              "type": "uint256"
            },
            {
              "internalType": "uint256",
              "name": "expiry",
              "type": "uint256"
            },
            {
              "internalType": "bytes",
              "name": "signature",
              "type": "bytes"
            }
          ],
          "internalType": "struct WebaverseNFT.NFTVoucher",
          "name": "voucher",
          "type": "tuple"
        }
      ],
      "name": "externalClaim",
      "outputs": [
        {
          "internalType": "uint256",
          "name": "",
          "type": "uint256"
        }
      ],
      "stateMutability": "nonpayable",
      "type": "function"
    },
    {
      "inputs": [],
      "name": "getChainID",
      "outputs": [
        {
          "internalType": "uint256",
          "name": "",
          "type": "uint256"
        }
      ],
      "stateMutability": "view",
      "type": "function"
    },
    {
      "inputs": [
        {
          "internalType": "bytes4",
          "name": "interfaceId",
          "type": "bytes4"
        }
      ],
      "name": "supportsInterface",
      "outputs": [
        {
          "internalType": "bool",
          "name": "",
          "type": "bool"
        }
      ],
      "stateMutability": "view",
      "type": "function"
    }
  ],
  "bytecode": "0x6101206040523480156200001257600080fd5b506040518060400160405280601181526020017f5765626176657273652d766f75636865720000000000000000000000000000008152506040518060400160405280600181526020017f31000000000000000000000000000000000000000000000000000000000000008152506040518060400160405280600c81526020017f5765626176657273654e465400000000000000000000000000000000000000008152506040518060400160405280600481526020017f5756525300000000000000000000000000000000000000000000000000000000815250816000908051906020019062000103929190620001de565b5080600190805190602001906200011c929190620001de565b50505060008280519060200120905060008280519060200120905060007f8b73c3c69bb8fe3d512ecc4cf759cc79239f7b179b0ffacaa9a75d522b39400f90508260c081815250508160e081815250504660a0818152505062000187818484620001a260201b60201c565b608081815250508061010081815250505050505050620003cb565b60008383834630604051602001620001bf959493929190620002c1565b6040516020818303038152906040528051906020012090509392505050565b828054620001ec9062000366565b90600052602060002090601f0160209004810192826200021057600085556200025c565b82601f106200022b57805160ff19168380011785556200025c565b828001600101855582156200025c579182015b828111156200025b5782518255916020019190600101906200023e565b5b5090506200026b91906200026f565b5090565b5b808211156200028a57600081600090555060010162000270565b5090565b62000299816200031e565b82525050565b620002aa8162000332565b82525050565b620002bb816200035c565b82525050565b600060a082019050620002d860008301886200029f565b620002e760208301876200029f565b620002f660408301866200029f565b620003056060830185620002b0565b6200031460808301846200028e565b9695505050505050565b60006200032b826200033c565b9050919050565b6000819050919050565b600073ffffffffffffffffffffffffffffffffffffffff82169050919050565b6000819050919050565b600060028204905060018216806200037f57607f821691505b602082108114156200039657620003956200039c565b5b50919050565b7f4e487b7100000000000000000000000000000000000000000000000000000000600052602260045260246000fd5b60805160a05160c05160e05161010051613dc962000410600039600061215f015260006121a1015260006121800152600061210c015260006121340152613dc96000f3fe608060405234801561001057600080fd5b50600436106101165760003560e01c80636eb26346116100a2578063a22cb46511610071578063a22cb46514610319578063b88d4fde14610335578063c87b56dd14610351578063d3fc986414610381578063e985e9c51461039d57610116565b80636eb263461461026b57806370a082311461029b5780637e2499cc146102cb57806395d89b41146102fb57610116565b806323b872dd116100e957806323b872dd146101b557806337d74fa6146101d157806342842e0e14610201578063564b81ef1461021d5780636352211e1461023b57610116565b806301ffc9a71461011b57806306fdde031461014b578063081812fc14610169578063095ea7b314610199575b600080fd5b61013560048036038101906101309190612891565b6103cd565b6040516101429190612e66565b60405180910390f35b6101536103df565b6040516101609190612f5e565b60405180910390f35b610183600480360381019061017e91906128e3565b610471565b6040516101909190612dc8565b60405180910390f35b6101b360048036038101906101ae91906127ee565b6104f6565b005b6101cf60048036038101906101ca9190612694565b61060e565b005b6101eb60048036038101906101e6919061262d565b61066e565b6040516101f891906132c0565b60405180910390f35b61021b60048036038101906102169190612694565b6109cb565b005b6102256109eb565b60405161023291906132c0565b60405180910390f35b610255600480360381019061025091906128e3565b6109f8565b6040516102629190612dc8565b60405180910390f35b6102856004803603810190610280919061279a565b610aaa565b60405161029291906132c0565b60405180910390f35b6102b560048036038101906102b0919061259f565b610c23565b6040516102c291906132c0565b60405180910390f35b6102e560048036038101906102e091906128e3565b610cdb565b6040516102f29190612e66565b60405180910390f35b610303610cfb565b6040516103109190612f5e565b60405180910390f35b610333600480360381019061032e919061275e565b610d8d565b005b61034f600480360381019061034a91906126e3565b610f0e565b005b61036b600480360381019061036691906128e3565b610f70565b6040516103789190612f5e565b60405180910390f35b61039b6004803603810190610396919061282a565b6110bf565b005b6103b760048036038101906103b291906125f1565b611121565b6040516103c49190612e66565b60405180910390f35b60006103d8826111b5565b9050919050565b6060600080546103ee90613553565b80601f016020809104026020016040519081016040528092919081815260200182805461041a90613553565b80156104675780601f1061043c57610100808354040283529160200191610467565b820191906000526020600020905b81548152906001019060200180831161044a57829003601f168201915b5050505050905090565b600061047c82611297565b6104bb576040517f08c379a00000000000000000000000000000000000000000000000000000000081526004016104b290613200565b60405180910390fd5b6004600083815260200190815260200160002060009054906101000a900473ffffffffffffffffffffffffffffffffffffffff169050919050565b6000610501826109f8565b90508073ffffffffffffffffffffffffffffffffffffffff168373ffffffffffffffffffffffffffffffffffffffff161415610572576040517f08c379a000000000000000000000000000000000000000000000000000000000815260040161056990613260565b60405180910390fd5b8073ffffffffffffffffffffffffffffffffffffffff16610591611303565b73ffffffffffffffffffffffffffffffffffffffff1614806105c057506105bf816105ba611303565b611121565b5b6105ff576040517f08c379a00000000000000000000000000000000000000000000000000000000081526004016105f690613140565b60405180910390fd5b610609838361130b565b505050565b61061f610619611303565b826113c4565b61065e576040517f08c379a0000000000000000000000000000000000000000000000000000000008152600401610655906132a0565b60405180910390fd5b6106698383836114a2565b505050565b600080839050600061067f846116fe565b90508173ffffffffffffffffffffffffffffffffffffffff16636352211e85600001356040518263ffffffff1660e01b81526004016106be91906132c0565b60206040518083038186803b1580156106d657600080fd5b505afa1580156106ea573d6000803e3d6000fd5b505050506040513d601f19601f8201168201806040525081019061070e91906125c8565b73ffffffffffffffffffffffffffffffffffffffff168173ffffffffffffffffffffffffffffffffffffffff161461077b576040517f08c379a000000000000000000000000000000000000000000000000000000000815260040161077290613280565b60405180910390fd5b3073ffffffffffffffffffffffffffffffffffffffff168273ffffffffffffffffffffffffffffffffffffffff1663081812fc86600001356040518263ffffffff1660e01b81526004016107cf91906132c0565b60206040518083038186803b1580156107e757600080fd5b505afa1580156107fb573d6000803e3d6000fd5b505050506040513d601f19601f8201168201806040525081019061081f91906125c8565b73ffffffffffffffffffffffffffffffffffffffff1614610875576040517f08c379a000000000000000000000000000000000000000000000000000000000815260040161086c90613240565b60405180910390fd5b83604001354211156108bc576040517f08c379a00000000000000000000000000000000000000000000000000000000081526004016108b390613000565b60405180910390fd5b600760008560200135815260200190815260200160002060009054906101000a900460ff16610920576040517f08c379a000000000000000000000000000000000000000000000000000000000815260040161091790613120565b60405180910390fd5b8173ffffffffffffffffffffffffffffffffffffffff166323b872dd828887600001356040518463ffffffff1660e01b815260040161096193929190612de3565b600060405180830381600087803b15801561097b57600080fd5b505af115801561098f573d6000803e3d6000fd5b5050505060001515600760008660200135815260200190815260200160002060009054906101000a905050508360000135925050509392505050565b6109e683838360405180602001604052806000815250610f0e565b505050565b6000804690508091505090565b6000806002600084815260200190815260200160002060009054906101000a900473ffffffffffffffffffffffffffffffffffffffff169050600073ffffffffffffffffffffffffffffffffffffffff168173ffffffffffffffffffffffffffffffffffffffff161415610aa1576040517f08c379a0000000000000000000000000000000000000000000000000000000008152600401610a98906131a0565b60405180910390fd5b80915050919050565b600080610ab6836116fe565b9050610ac583600001356109f8565b73ffffffffffffffffffffffffffffffffffffffff168173ffffffffffffffffffffffffffffffffffffffff1614610b32576040517f08c379a0000000000000000000000000000000000000000000000000000000008152600401610b2990613280565b60405180910390fd5b8260400135421115610b79576040517f08c379a0000000000000000000000000000000000000000000000000000000008152600401610b7090613000565b60405180910390fd5b600760008460200135815260200190815260200160002060009054906101000a900460ff1615610bde576040517f08c379a0000000000000000000000000000000000000000000000000000000008152600401610bd590613120565b60405180910390fd5b610bed818585600001356114a2565b60001515600760008560200135815260200190815260200160002060009054906101000a90505050826000013591505092915050565b60008073ffffffffffffffffffffffffffffffffffffffff168273ffffffffffffffffffffffffffffffffffffffff161415610c94576040517f08c379a0000000000000000000000000000000000000000000000000000000008152600401610c8b90613180565b60405180910390fd5b600360008373ffffffffffffffffffffffffffffffffffffffff1673ffffffffffffffffffffffffffffffffffffffff168152602001908152602001600020549050919050565b60076020528060005260406000206000915054906101000a900460ff1681565b606060018054610d0a90613553565b80601f0160208091040260200160405190810160405280929190818152602001828054610d3690613553565b8015610d835780601f10610d5857610100808354040283529160200191610d83565b820191906000526020600020905b815481529060010190602001808311610d6657829003601f168201915b5050505050905090565b610d95611303565b73ffffffffffffffffffffffffffffffffffffffff168273ffffffffffffffffffffffffffffffffffffffff161415610e03576040517f08c379a0000000000000000000000000000000000000000000000000000000008152600401610dfa90613080565b60405180910390fd5b8060056000610e10611303565b73ffffffffffffffffffffffffffffffffffffffff1673ffffffffffffffffffffffffffffffffffffffff16815260200190815260200160002060008473ffffffffffffffffffffffffffffffffffffffff1673ffffffffffffffffffffffffffffffffffffffff16815260200190815260200160002060006101000a81548160ff0219169083151502179055508173ffffffffffffffffffffffffffffffffffffffff16610ebd611303565b73ffffffffffffffffffffffffffffffffffffffff167f17307eab39ab6107e8899845ad3d59bd9653f200f220920489ca2b5937696c3183604051610f029190612e66565b60405180910390a35050565b610f1f610f19611303565b836113c4565b610f5e576040517f08c379a0000000000000000000000000000000000000000000000000000000008152600401610f55906132a0565b60405180910390fd5b610f6a84848484611770565b50505050565b6060610f7b82611297565b610fba576040517f08c379a0000000000000000000000000000000000000000000000000000000008152600401610fb190612fc0565b60405180910390fd5b6000600860008481526020019081526020016000208054610fda90613553565b90501161101c576040517f08c379a0000000000000000000000000000000000000000000000000000000008152600401611013906130a0565b60405180910390fd5b60086000838152602001908152602001600020805461103a90613553565b80601f016020809104026020016040519081016040528092919081815260200182805461106690613553565b80156110b35780601f10611088576101008083540402835291602001916110b3565b820191906000526020600020905b81548152906001019060200180831161109657829003601f168201915b50505050509050919050565b6110c882611297565b15611108576040517f08c379a00000000000000000000000000000000000000000000000000000000081526004016110ff90613160565b60405180910390fd5b61111283836117cc565b61111c828261199a565b505050565b6000600560008473ffffffffffffffffffffffffffffffffffffffff1673ffffffffffffffffffffffffffffffffffffffff16815260200190815260200160002060008373ffffffffffffffffffffffffffffffffffffffff1673ffffffffffffffffffffffffffffffffffffffff16815260200190815260200160002060009054906101000a900460ff16905092915050565b60007f80ac58cd000000000000000000000000000000000000000000000000000000007bffffffffffffffffffffffffffffffffffffffffffffffffffffffff1916827bffffffffffffffffffffffffffffffffffffffffffffffffffffffff1916148061128057507f5b5e139f000000000000000000000000000000000000000000000000000000007bffffffffffffffffffffffffffffffffffffffffffffffffffffffff1916827bffffffffffffffffffffffffffffffffffffffffffffffffffffffff1916145b80611290575061128f82611a70565b5b9050919050565b60008073ffffffffffffffffffffffffffffffffffffffff166002600084815260200190815260200160002060009054906101000a900473ffffffffffffffffffffffffffffffffffffffff1673ffffffffffffffffffffffffffffffffffffffff1614159050919050565b600033905090565b816004600083815260200190815260200160002060006101000a81548173ffffffffffffffffffffffffffffffffffffffff021916908373ffffffffffffffffffffffffffffffffffffffff160217905550808273ffffffffffffffffffffffffffffffffffffffff1661137e836109f8565b73ffffffffffffffffffffffffffffffffffffffff167f8c5be1e5ebec7d5bd14f71427d1e84f3dd0314c0f7b2291e5b200ac8c7c3b92560405160405180910390a45050565b60006113cf82611297565b61140e576040517f08c379a0000000000000000000000000000000000000000000000000000000008152600401611405906130e0565b60405180910390fd5b6000611419836109f8565b90508073ffffffffffffffffffffffffffffffffffffffff168473ffffffffffffffffffffffffffffffffffffffff16148061148857508373ffffffffffffffffffffffffffffffffffffffff1661147084610471565b73ffffffffffffffffffffffffffffffffffffffff16145b8061149957506114988185611121565b5b91505092915050565b8273ffffffffffffffffffffffffffffffffffffffff166114c2826109f8565b73ffffffffffffffffffffffffffffffffffffffff1614611518576040517f08c379a000000000000000000000000000000000000000000000000000000000815260040161150f90613220565b60405180910390fd5b600073ffffffffffffffffffffffffffffffffffffffff168273ffffffffffffffffffffffffffffffffffffffff161415611588576040517f08c379a000000000000000000000000000000000000000000000000000000000815260040161157f90613060565b60405180910390fd5b611593838383611ada565b61159e60008261130b565b6001600360008573ffffffffffffffffffffffffffffffffffffffff1673ffffffffffffffffffffffffffffffffffffffff16815260200190815260200160002060008282546115ee9190613452565b925050819055506001600360008473ffffffffffffffffffffffffffffffffffffffff1673ffffffffffffffffffffffffffffffffffffffff168152602001908152602001600020600082825461164591906133fc565b92505081905550816002600083815260200190815260200160002060006101000a81548173ffffffffffffffffffffffffffffffffffffffff021916908373ffffffffffffffffffffffffffffffffffffffff160217905550808273ffffffffffffffffffffffffffffffffffffffff168473ffffffffffffffffffffffffffffffffffffffff167fddf252ad1be2c89b69c2b068fc378daa952ba7f163c4a11628f55a4df523b3ef60405160405180910390a4505050565b60008061170a83611adf565b90506117688184806060019061172091906132db565b8080601f016020809104026020016040519081016040528093929190818152602001838380828437600081840152601f19601f82011690508083019250505050505050611b49565b915050919050565b61177b8484846114a2565b61178784848484611b70565b6117c6576040517f08c379a00000000000000000000000000000000000000000000000000000000081526004016117bd90612fe0565b60405180910390fd5b50505050565b600073ffffffffffffffffffffffffffffffffffffffff168273ffffffffffffffffffffffffffffffffffffffff16141561183c576040517f08c379a0000000000000000000000000000000000000000000000000000000008152600401611833906131e0565b60405180910390fd5b61184581611297565b15611885576040517f08c379a000000000000000000000000000000000000000000000000000000000815260040161187c90613020565b60405180910390fd5b61189160008383611ada565b6001600360008473ffffffffffffffffffffffffffffffffffffffff1673ffffffffffffffffffffffffffffffffffffffff16815260200190815260200160002060008282546118e191906133fc565b92505081905550816002600083815260200190815260200160002060006101000a81548173ffffffffffffffffffffffffffffffffffffffff021916908373ffffffffffffffffffffffffffffffffffffffff160217905550808273ffffffffffffffffffffffffffffffffffffffff16600073ffffffffffffffffffffffffffffffffffffffff167fddf252ad1be2c89b69c2b068fc378daa952ba7f163c4a11628f55a4df523b3ef60405160405180910390a45050565b6119a382611297565b6119e2576040517f08c379a00000000000000000000000000000000000000000000000000000000081526004016119d990613040565b60405180910390fd5b6000600860008481526020019081526020016000208054611a0290613553565b905014611a44576040517f08c379a0000000000000000000000000000000000000000000000000000000008152600401611a3b90613100565b60405180910390fd5b80600860008481526020019081526020016000209080519060200190611a6b929190612393565b505050565b60007f01ffc9a7000000000000000000000000000000000000000000000000000000007bffffffffffffffffffffffffffffffffffffffffffffffffffffffff1916827bffffffffffffffffffffffffffffffffffffffffffffffffffffffff1916149050919050565b505050565b6000611b427fa71ded31e2bec61339bad6247783eb9b59b4ad6bc34cbc5a94eadbb2825c4722836000013584602001358560400135604051602001611b279493929190612ed4565b60405160208183030381529060405280519060200120611d07565b9050919050565b6000806000611b588585611d21565b91509150611b6581611da4565b819250505092915050565b6000611b918473ffffffffffffffffffffffffffffffffffffffff166120f5565b15611cfa578373ffffffffffffffffffffffffffffffffffffffff1663150b7a02611bba611303565b8786866040518563ffffffff1660e01b8152600401611bdc9493929190612e1a565b602060405180830381600087803b158015611bf657600080fd5b505af1925050508015611c2757506040513d601f19601f82011682018060405250810190611c2491906128ba565b60015b611caa573d8060008114611c57576040519150601f19603f3d011682016040523d82523d6000602084013e611c5c565b606091505b50600081511415611ca2576040517f08c379a0000000000000000000000000000000000000000000000000000000008152600401611c9990612fe0565b60405180910390fd5b805181602001fd5b63150b7a0260e01b7bffffffffffffffffffffffffffffffffffffffffffffffffffffffff1916817bffffffffffffffffffffffffffffffffffffffffffffffffffffffff191614915050611cff565b600190505b949350505050565b6000611d1a611d14612108565b836121cb565b9050919050565b600080604183511415611d635760008060006020860151925060408601519150606086015160001a9050611d57878285856121fe565b94509450505050611d9d565b604083511415611d94576000806020850151915060408501519050611d8986838361230b565b935093505050611d9d565b60006002915091505b9250929050565b60006004811115611dde577f4e487b7100000000000000000000000000000000000000000000000000000000600052602160045260246000fd5b816004811115611e17577f4e487b7100000000000000000000000000000000000000000000000000000000600052602160045260246000fd5b1415611e22576120f2565b60016004811115611e5c577f4e487b7100000000000000000000000000000000000000000000000000000000600052602160045260246000fd5b816004811115611e95577f4e487b7100000000000000000000000000000000000000000000000000000000600052602160045260246000fd5b1415611ed6576040517f08c379a0000000000000000000000000000000000000000000000000000000008152600401611ecd90612f80565b60405180910390fd5b60026004811115611f10577f4e487b7100000000000000000000000000000000000000000000000000000000600052602160045260246000fd5b816004811115611f49577f4e487b7100000000000000000000000000000000000000000000000000000000600052602160045260246000fd5b1415611f8a576040517f08c379a0000000000000000000000000000000000000000000000000000000008152600401611f8190612fa0565b60405180910390fd5b60036004811115611fc4577f4e487b7100000000000000000000000000000000000000000000000000000000600052602160045260246000fd5b816004811115611ffd577f4e487b7100000000000000000000000000000000000000000000000000000000600052602160045260246000fd5b141561203e576040517f08c379a0000000000000000000000000000000000000000000000000000000008152600401612035906130c0565b60405180910390fd5b600480811115612077577f4e487b7100000000000000000000000000000000000000000000000000000000600052602160045260246000fd5b8160048111156120b0577f4e487b7100000000000000000000000000000000000000000000000000000000600052602160045260246000fd5b14156120f1576040517f08c379a00000000000000000000000000000000000000000000000000000000081526004016120e8906131c0565b60405180910390fd5b5b50565b600080823b905060008111915050919050565b60007f000000000000000000000000000000000000000000000000000000000000000046141561215a577f000000000000000000000000000000000000000000000000000000000000000090506121c8565b6121c57f00000000000000000000000000000000000000000000000000000000000000007f00000000000000000000000000000000000000000000000000000000000000007f0000000000000000000000000000000000000000000000000000000000000000612359565b90505b90565b600082826040516020016121e0929190612d91565b60405160208183030381529060405280519060200120905092915050565b6000807f7fffffffffffffffffffffffffffffff5d576e7357a4501ddfe92f46681b20a08360001c1115612239576000600391509150612302565b601b8560ff16141580156122515750601c8560ff1614155b15612263576000600491509150612302565b6000600187878787604051600081526020016040526040516122889493929190612f19565b6020604051602081039080840390855afa1580156122aa573d6000803e3d6000fd5b505050602060405103519050600073ffffffffffffffffffffffffffffffffffffffff168173ffffffffffffffffffffffffffffffffffffffff1614156122f957600060019250925050612302565b80600092509250505b94509492505050565b6000806000807f7fffffffffffffffffffffffffffffffffffffffffffffffffffffffffffffff85169150601b8560ff1c01905061234b878288856121fe565b935093505050935093915050565b60008383834630604051602001612374959493929190612e81565b6040516020818303038152906040528051906020012090509392505050565b82805461239f90613553565b90600052602060002090601f0160209004810192826123c15760008555612408565b82601f106123da57805160ff1916838001178555612408565b82800160010185558215612408579182015b828111156124075782518255916020019190600101906123ec565b5b5090506124159190612419565b5090565b5b8082111561243257600081600090555060010161241a565b5090565b600061244961244484613357565b613332565b90508281526020810184848401111561246157600080fd5b61246c848285613511565b509392505050565b600061248761248284613388565b613332565b90508281526020810184848401111561249f57600080fd5b6124aa848285613511565b509392505050565b6000813590506124c181613d37565b92915050565b6000815190506124d681613d37565b92915050565b6000813590506124eb81613d4e565b92915050565b60008135905061250081613d65565b92915050565b60008151905061251581613d65565b92915050565b600082601f83011261252c57600080fd5b813561253c848260208601612436565b91505092915050565b600082601f83011261255657600080fd5b8135612566848260208601612474565b91505092915050565b60006080828403121561258157600080fd5b81905092915050565b60008135905061259981613d7c565b92915050565b6000602082840312156125b157600080fd5b60006125bf848285016124b2565b91505092915050565b6000602082840312156125da57600080fd5b60006125e8848285016124c7565b91505092915050565b6000806040838503121561260457600080fd5b6000612612858286016124b2565b9250506020612623858286016124b2565b9150509250929050565b60008060006060848603121561264257600080fd5b6000612650868287016124b2565b9350506020612661868287016124b2565b925050604084013567ffffffffffffffff81111561267e57600080fd5b61268a8682870161256f565b9150509250925092565b6000806000606084860312156126a957600080fd5b60006126b7868287016124b2565b93505060206126c8868287016124b2565b92505060406126d98682870161258a565b9150509250925092565b600080600080608085870312156126f957600080fd5b6000612707878288016124b2565b9450506020612718878288016124b2565b93505060406127298782880161258a565b925050606085013567ffffffffffffffff81111561274657600080fd5b6127528782880161251b565b91505092959194509250565b6000806040838503121561277157600080fd5b600061277f858286016124b2565b9250506020612790858286016124dc565b9150509250929050565b600080604083850312156127ad57600080fd5b60006127bb858286016124b2565b925050602083013567ffffffffffffffff8111156127d857600080fd5b6127e48582860161256f565b9150509250929050565b6000806040838503121561280157600080fd5b600061280f858286016124b2565b92505060206128208582860161258a565b9150509250929050565b60008060006060848603121561283f57600080fd5b600061284d868287016124b2565b935050602061285e8682870161258a565b925050604084013567ffffffffffffffff81111561287b57600080fd5b61288786828701612545565b9150509250925092565b6000602082840312156128a357600080fd5b60006128b1848285016124f1565b91505092915050565b6000602082840312156128cc57600080fd5b60006128da84828501612506565b91505092915050565b6000602082840312156128f557600080fd5b60006129038482850161258a565b91505092915050565b61291581613486565b82525050565b61292481613498565b82525050565b612933816134a4565b82525050565b61294a612945826134a4565b6135b6565b82525050565b600061295b826133b9565b61296581856133cf565b9350612975818560208601613520565b61297e8161364d565b840191505092915050565b6000612994826133c4565b61299e81856133e0565b93506129ae818560208601613520565b6129b78161364d565b840191505092915050565b60006129cf6018836133e0565b91506129da8261365e565b602082019050919050565b60006129f2601f836133e0565b91506129fd82613687565b602082019050919050565b6000612a156026836133e0565b9150612a20826136b0565b604082019050919050565b6000612a386032836133e0565b9150612a43826136ff565b604082019050919050565b6000612a5b601b836133e0565b9150612a668261374e565b602082019050919050565b6000612a7e601c836133e0565b9150612a8982613777565b602082019050919050565b6000612aa16002836133f1565b9150612aac826137a0565b600282019050919050565b6000612ac4602e836133e0565b9150612acf826137c9565b604082019050919050565b6000612ae76024836133e0565b9150612af282613818565b604082019050919050565b6000612b0a6019836133e0565b9150612b1582613867565b602082019050919050565b6000612b2d6023836133e0565b9150612b3882613890565b604082019050919050565b6000612b506022836133e0565b9150612b5b826138df565b604082019050919050565b6000612b73602c836133e0565b9150612b7e8261392e565b604082019050919050565b6000612b96601f836133e0565b9150612ba18261397d565b602082019050919050565b6000612bb96013836133e0565b9150612bc4826139a6565b602082019050919050565b6000612bdc6038836133e0565b9150612be7826139cf565b604082019050919050565b6000612bff601b836133e0565b9150612c0a82613a1e565b602082019050919050565b6000612c22602a836133e0565b9150612c2d82613a47565b604082019050919050565b6000612c456029836133e0565b9150612c5082613a96565b604082019050919050565b6000612c686022836133e0565b9150612c7382613ae5565b604082019050919050565b6000612c8b6020836133e0565b9150612c9682613b34565b602082019050919050565b6000612cae602c836133e0565b9150612cb982613b5d565b604082019050919050565b6000612cd16029836133e0565b9150612cdc82613bac565b604082019050919050565b6000612cf4602c836133e0565b9150612cff82613bfb565b604082019050919050565b6000612d176021836133e0565b9150612d2282613c4a565b604082019050919050565b6000612d3a6027836133e0565b9150612d4582613c99565b604082019050919050565b6000612d5d6031836133e0565b9150612d6882613ce8565b604082019050919050565b612d7c816134fa565b82525050565b612d8b81613504565b82525050565b6000612d9c82612a94565b9150612da88285612939565b602082019150612db88284612939565b6020820191508190509392505050565b6000602082019050612ddd600083018461290c565b92915050565b6000606082019050612df8600083018661290c565b612e05602083018561290c565b612e126040830184612d73565b949350505050565b6000608082019050612e2f600083018761290c565b612e3c602083018661290c565b612e496040830185612d73565b8181036060830152612e5b8184612950565b905095945050505050565b6000602082019050612e7b600083018461291b565b92915050565b600060a082019050612e96600083018861292a565b612ea3602083018761292a565b612eb0604083018661292a565b612ebd6060830185612d73565b612eca608083018461290c565b9695505050505050565b6000608082019050612ee9600083018761292a565b612ef66020830186612d73565b612f036040830185612d73565b612f106060830184612d73565b95945050505050565b6000608082019050612f2e600083018761292a565b612f3b6020830186612d82565b612f48604083018561292a565b612f55606083018461292a565b95945050505050565b60006020820190508181036000830152612f788184612989565b905092915050565b60006020820190508181036000830152612f99816129c2565b9050919050565b60006020820190508181036000830152612fb9816129e5565b9050919050565b60006020820190508181036000830152612fd981612a08565b9050919050565b60006020820190508181036000830152612ff981612a2b565b9050919050565b6000602082019050818103600083015261301981612a4e565b9050919050565b6000602082019050818103600083015261303981612a71565b9050919050565b6000602082019050818103600083015261305981612ab7565b9050919050565b6000602082019050818103600083015261307981612ada565b9050919050565b6000602082019050818103600083015261309981612afd565b9050919050565b600060208201905081810360008301526130b981612b20565b9050919050565b600060208201905081810360008301526130d981612b43565b9050919050565b600060208201905081810360008301526130f981612b66565b9050919050565b6000602082019050818103600083015261311981612b89565b9050919050565b6000602082019050818103600083015261313981612bac565b9050919050565b6000602082019050818103600083015261315981612bcf565b9050919050565b6000602082019050818103600083015261317981612bf2565b9050919050565b6000602082019050818103600083015261319981612c15565b9050919050565b600060208201905081810360008301526131b981612c38565b9050919050565b600060208201905081810360008301526131d981612c5b565b9050919050565b600060208201905081810360008301526131f981612c7e565b9050919050565b6000602082019050818103600083015261321981612ca1565b9050919050565b6000602082019050818103600083015261323981612cc4565b9050919050565b6000602082019050818103600083015261325981612ce7565b9050919050565b6000602082019050818103600083015261327981612d0a565b9050919050565b6000602082019050818103600083015261329981612d2d565b9050919050565b600060208201905081810360008301526132b981612d50565b9050919050565b60006020820190506132d56000830184612d73565b92915050565b600080833560016020038436030381126132f457600080fd5b80840192508235915067ffffffffffffffff82111561331257600080fd5b60208301925060018202360383131561332a57600080fd5b509250929050565b600061333c61334d565b90506133488282613585565b919050565b6000604051905090565b600067ffffffffffffffff8211156133725761337161361e565b5b61337b8261364d565b9050602081019050919050565b600067ffffffffffffffff8211156133a3576133a261361e565b5b6133ac8261364d565b9050602081019050919050565b600081519050919050565b600081519050919050565b600082825260208201905092915050565b600082825260208201905092915050565b600081905092915050565b6000613407826134fa565b9150613412836134fa565b9250827fffffffffffffffffffffffffffffffffffffffffffffffffffffffffffffffff03821115613447576134466135c0565b5b828201905092915050565b600061345d826134fa565b9150613468836134fa565b92508282101561347b5761347a6135c0565b5b828203905092915050565b6000613491826134da565b9050919050565b60008115159050919050565b6000819050919050565b60007fffffffff0000000000000000000000000000000000000000000000000000000082169050919050565b600073ffffffffffffffffffffffffffffffffffffffff82169050919050565b6000819050919050565b600060ff82169050919050565b82818337600083830152505050565b60005b8381101561353e578082015181840152602081019050613523565b8381111561354d576000848401525b50505050565b6000600282049050600182168061356b57607f821691505b6020821081141561357f5761357e6135ef565b5b50919050565b61358e8261364d565b810181811067ffffffffffffffff821117156135ad576135ac61361e565b5b80604052505050565b6000819050919050565b7f4e487b7100000000000000000000000000000000000000000000000000000000600052601160045260246000fd5b7f4e487b7100000000000000000000000000000000000000000000000000000000600052602260045260246000fd5b7f4e487b7100000000000000000000000000000000000000000000000000000000600052604160045260246000fd5b6000601f19601f8301169050919050565b7f45434453413a20696e76616c6964207369676e61747572650000000000000000600082015250565b7f45434453413a20696e76616c6964207369676e6174757265206c656e67746800600082015250565b7f746f6b656e5552493a20517565727920666f72206e6f6e206578697374656e7460008201527f20746f6b656e0000000000000000000000000000000000000000000000000000602082015250565b7f4552433732313a207472616e7366657220746f206e6f6e20455243373231526560008201527f63656976657220696d706c656d656e7465720000000000000000000000000000602082015250565b7f566f75636865722068617320616c726561647920657870697265640000000000600082015250565b7f4552433732313a20746f6b656e20616c7265616479206d696e74656400000000600082015250565b7f1901000000000000000000000000000000000000000000000000000000000000600082015250565b7f53657474696e672055524920666f72206e6f6e2d6578697374656e7420746f6b60008201527f656e206e6f7420616c6c6f776564000000000000000000000000000000000000602082015250565b7f4552433732313a207472616e7366657220746f20746865207a65726f2061646460008201527f7265737300000000000000000000000000000000000000000000000000000000602082015250565b7f4552433732313a20617070726f766520746f2063616c6c657200000000000000600082015250565b7f4572726f723a20555249206f66207468697320746f6b656e206973206e6f742060008201527f7365740000000000000000000000000000000000000000000000000000000000602082015250565b7f45434453413a20696e76616c6964207369676e6174757265202773272076616c60008201527f7565000000000000000000000000000000000000000000000000000000000000602082015250565b7f4552433732313a206f70657261746f7220717565727920666f72206e6f6e657860008201527f697374656e7420746f6b656e0000000000000000000000000000000000000000602082015250565b7f5468697320746f6b656e27732055524920616c72656164792065786973747300600082015250565b7f496e76616c6964206e6f6e63652076616c756500000000000000000000000000600082015250565b7f4552433732313a20617070726f76652063616c6c6572206973206e6f74206f7760008201527f6e6572206e6f7220617070726f76656420666f7220616c6c0000000000000000602082015250565b7f4572726f723a20546f6b656e20616c7265616479206578697374730000000000600082015250565b7f4552433732313a2062616c616e636520717565727920666f7220746865207a6560008201527f726f206164647265737300000000000000000000000000000000000000000000602082015250565b7f4552433732313a206f776e657220717565727920666f72206e6f6e657869737460008201527f656e7420746f6b656e0000000000000000000000000000000000000000000000602082015250565b7f45434453413a20696e76616c6964207369676e6174757265202776272076616c60008201527f7565000000000000000000000000000000000000000000000000000000000000602082015250565b7f4552433732313a206d696e7420746f20746865207a65726f2061646472657373600082015250565b7f4552433732313a20617070726f76656420717565727920666f72206e6f6e657860008201527f697374656e7420746f6b656e0000000000000000000000000000000000000000602082015250565b7f4552433732313a207472616e73666572206f6620746f6b656e2074686174206960008201527f73206e6f74206f776e0000000000000000000000000000000000000000000000602082015250565b7f5468697320636f6e747261637420686173206e6f20617070726f76616c20666f60008201527f72207468697320746f6b656e0000000000000000000000000000000000000000602082015250565b7f4552433732313a20617070726f76616c20746f2063757272656e74206f776e6560008201527f7200000000000000000000000000000000000000000000000000000000000000602082015250565b7f417574686f72697a6174696f6e206661696c65643a20496e76616c696420736960008201527f676e617475726500000000000000000000000000000000000000000000000000602082015250565b7f4552433732313a207472616e736665722063616c6c6572206973206e6f74206f60008201527f776e6572206e6f7220617070726f766564000000000000000000000000000000602082015250565b613d4081613486565b8114613d4b57600080fd5b50565b613d5781613498565b8114613d6257600080fd5b50565b613d6e816134ae565b8114613d7957600080fd5b50565b613d85816134fa565b8114613d9057600080fd5b5056fea2646970667358221220cbd2e584becd5a198493f83a3cd89d755a2583151348eebbf7ef2453ffbd97a664736f6c63430008040033",
  "immutableReferences": {
    "2379": [
      {
        "length": 32,
        "start": 8500
      }
    ],
    "2381": [
      {
        "length": 32,
        "start": 8460
      }
    ],
    "2383": [
      {
        "length": 32,
        "start": 8576
      }
    ],
    "2385": [
      {
        "length": 32,
        "start": 8609
      }
    ],
    "2387": [
      {
        "length": 32,
        "start": 8543
      }
    ]
  },
  "source": "//SPDX-License-Identifier: Unlicense\npragma solidity ^0.8.0;\npragma abicoder v2; // required to accept structs as function parameters\n\nimport \"@openzeppelin/contracts/access/AccessControl.sol\";\nimport \"@openzeppelin/contracts/token/ERC721/ERC721.sol\";\nimport \"@openzeppelin/contracts/token/ERC721/extensions/ERC721URIStorage.sol\";\nimport \"@openzeppelin/contracts/utils/cryptography/ECDSA.sol\";\nimport \"@openzeppelin/contracts/utils/cryptography/draft-EIP712.sol\";\n\ncontract WebaverseNFT is ERC721URIStorage, EIP712 {\n    string private constant SIGNING_DOMAIN = \"Webaverse-voucher\";\n    string private constant SIGNATURE_VERSION = \"1\";\n\n    // mapping to store the bunred nonces for the signers to prevent replay attacks\n    mapping(uint256 => bool) public burnedNonces;\n\n    // mapping to store the URIs of all the NFTs\n    mapping(uint256 => string) private _tokenURIs;\n\n    constructor()\n        ERC721(\"WebaverseNFT\", \"WVRS\")\n        EIP712(SIGNING_DOMAIN, SIGNATURE_VERSION)\n    {}\n\n    // Represents a schema to claim an NFT, which has already been minted on blockchain. A signed voucher can be redeemed for a real NFT using the claim function.\n    struct NFTVoucher {\n        // The id of the token to be redeemed. Must be unique - if another token with this ID already exists, the claim function will revert.\n        uint256 tokenId;\n        // The valid nonce value of the NFT creator, fetched through _nonces mapping.\n        uint256 nonce;\n        // The time period for which the voucher is valid.\n        uint256 expiry;\n        // The EIP-712 signature of all other fields in the NFTVoucher struct. For a voucher to be valid, it must be signed by the owner account.\n        bytes signature;\n    }\n\n    /**\n     * @notice Mints the a single NFT with given parameters.\n     * @param account The address on which the NFT will be minted.\n     * @param tokenId The integer id of the NFT.\n     * @param uri The URL of the NFT.\n     * @notice 'tokenId' must be unique and must not overlap any existing tokenId.\n     * @notice 'uri' should be a metadata json object stored on IPFS or HTTP server.\n     **/\n    function mint(\n        address account,\n        uint256 tokenId,\n        string memory uri\n    ) public {\n        require(!_exists(tokenId), \"Error: Token already exists\");\n        _mint(account, tokenId);\n        _setURI(tokenId, uri);\n    }\n\n    /**\n     * @notice View function that takes the unique tokenId and returns the uri against it.\n     * @param tokenId The integer id of the NFT.\n     * @dev The token being queried should already exist.\n     * @dev URI of the token should already be set.\n     * @return 'uri' URL of the the NFT against the given 'tokenId'.\n     **/\n    function tokenURI(uint256 tokenId)\n        public\n        view\n        virtual\n        override\n        returns (string memory)\n    {\n        require(_exists(tokenId), \"tokenURI: Query for non existent token\");\n        require(\n            bytes(_tokenURIs[tokenId]).length > 0,\n            \"Error: URI of this token is not set\"\n        );\n        return _tokenURIs[tokenId];\n    }\n\n    /**\n     * @notice Redeems an NFTVoucher for an actual NFT, authorized by the owner.\n     * @param claimer The address of the account which will receive the NFT upon success.\n     * @param voucher A signed NFTVoucher that describes the NFT to be redeemed.\n     * @dev Verification through ECDSA signature of 'typed' data.\n     * @dev Voucher must contain valid signature, nonce, and expiry.\n     **/\n    function claim(address claimer, NFTVoucher calldata voucher)\n        public\n        returns (uint256)\n    {\n        // make sure signature is valid and get the address of the signer\n        address signer = _verify(voucher);\n\n        require(\n            signer == ownerOf(voucher.tokenId),\n            \"Authorization failed: Invalid signature\"\n        );\n\n        require(\n            block.timestamp <= voucher.expiry,\n            \"Voucher has already expired\"\n        );\n\n        require(!burnedNonces[voucher.nonce], \"Invalid nonce value\");\n        // transfer the token to the claimer\n        _transfer(signer, claimer, voucher.tokenId);\n        burnedNonces[voucher.nonce] == false;\n        return voucher.tokenId;\n    }\n\n    /**\n     * @notice Redeems an NFTVoucher for an actual NFT, authorized by the owner from an external contract.\n     * @param claimer The address of the account which will receive the NFT upon success.\n     * @param contractAddress The address of the contract from which the token is being transferred\n     * @param voucher A signed NFTVoucher that describes the NFT to be redeemed.\n     * @dev Verification through ECDSA signature of 'typed' data.\n     * @dev Voucher must contain valid signature, nonce, and expiry.\n     **/\n    function externalClaim(\n        address claimer,\n        address contractAddress,\n        NFTVoucher calldata voucher\n    ) public returns (uint256) {\n        IERC721 externalContractAddress = IERC721(contractAddress);\n        // make sure signature is valid and get the address of the signer\n        address signer = _verify(voucher);\n\n        require(\n            signer == externalContractAddress.ownerOf(voucher.tokenId),\n            \"Authorization failed: Invalid signature\"\n        );\n        require(\n            externalContractAddress.getApproved(voucher.tokenId) ==\n                address(this),\n            \"This contract has no approval for this token\"\n        );\n        require(\n            block.timestamp <= voucher.expiry,\n            \"Voucher has already expired\"\n        );\n        require(burnedNonces[voucher.nonce], \"Invalid nonce value\");\n\n        // transfer the token to the claimer\n        externalContractAddress.transferFrom(signer, claimer, voucher.tokenId);\n        burnedNonces[voucher.nonce] == false;\n        return voucher.tokenId;\n    }\n\n    /**\n     * @notice Use the mapping _tokenURIs for storing the URIs of NFTs.\n     * @param tokenId The address of the account which will receive the NFT upon success.\n     * @param uri The URL of the NFT, through which the content of the NFT can be accessed.\n     * @dev Token must be minted before setting the URI.\n     **/\n    function _setURI(uint256 tokenId, string memory uri) internal virtual {\n        require(\n            _exists(tokenId),\n            \"Setting URI for non-existent token not allowed\"\n        );\n        require(\n            bytes(_tokenURIs[tokenId]).length == 0,\n            \"This token's URI already exists\"\n        );\n        _tokenURIs[tokenId] = uri;\n    }\n\n    /**\n     * @notice Returns a hash of the given NFTVoucher, prepared using EIP712 typed data hashing rules.\n     * @param voucher An NFTVoucher to hash.\n     * @return bytes32 digest of the voucher used for the verification of the signature.\n     **/\n    function _hash(NFTVoucher calldata voucher)\n        internal\n        view\n        returns (bytes32)\n    {\n        return\n            _hashTypedDataV4(\n                keccak256(\n                    abi.encode(\n                        keccak256(\n                            \"NFTVoucher(uint256 tokenId,uint256 nonce,uint256 expiry)\"\n                        ),\n                        voucher.tokenId,\n                        voucher.nonce,\n                        voucher.expiry\n                    )\n                )\n            );\n    }\n\n    /**\n     * @notice Using low level assembly call to fetch the chain id of the blockchain.\n     * @return Returns the chain id of the current blockchain.\n     **/\n    function getChainID() external view returns (uint256) {\n        uint256 id;\n        assembly {\n            id := chainid()\n        }\n        return id;\n    }\n\n    /**\n     * @notice Verifies the signature for a given NFTVoucher, returning the address of the signer.\n     * @param voucher An NFTVoucher describing an NFT.\n     * @dev Will revert if the signature is invalid. Does not verify that the signer is authorized to mint NFTs.\n     * @return returns the address of the signer on succesful verification.\n     **/\n    function _verify(NFTVoucher calldata voucher)\n        internal\n        view\n        returns (address)\n    {\n        bytes32 digest = _hash(voucher);\n        return ECDSA.recover(digest, voucher.signature);\n    }\n\n    function supportsInterface(bytes4 interfaceId)\n        public\n        view\n        virtual\n        override(ERC721)\n        returns (bool)\n    {\n        return ERC721.supportsInterface(interfaceId);\n    }\n}\n",
  "sourcePath": "/home/mohsin/Desktop/Webaverse/contracts/main/webaverse.sol",
  "compiler": {
    "name": "solc",
    "version": "0.8.4+commit.c7e474f2.Emscripten.clang"
  },
  "schemaVersion": "3.4.3",
  "updatedAt": "2021-10-09T17:23:43.212Z",
  "devdoc": {
    "kind": "dev",
    "methods": {
      "approve(address,uint256)": {
        "details": "See {IERC721-approve}."
      },
      "balanceOf(address)": {
        "details": "See {IERC721-balanceOf}."
      },
      "claim(address,(uint256,uint256,uint256,bytes))": {
        "details": "Verification through ECDSA signature of 'typed' data.Voucher must contain valid signature, nonce, and expiry.*",
        "params": {
          "claimer": "The address of the account which will receive the NFT upon success.",
          "voucher": "A signed NFTVoucher that describes the NFT to be redeemed."
        }
      },
      "externalClaim(address,address,(uint256,uint256,uint256,bytes))": {
        "details": "Verification through ECDSA signature of 'typed' data.Voucher must contain valid signature, nonce, and expiry.*",
        "params": {
          "claimer": "The address of the account which will receive the NFT upon success.",
          "contractAddress": "The address of the contract from which the token is being transferred",
          "voucher": "A signed NFTVoucher that describes the NFT to be redeemed."
        }
      },
      "getApproved(uint256)": {
        "details": "See {IERC721-getApproved}."
      },
      "getChainID()": {
        "returns": {
          "_0": "Returns the chain id of the current blockchain.*"
        }
      },
      "isApprovedForAll(address,address)": {
        "details": "See {IERC721-isApprovedForAll}."
      },
      "mint(address,uint256,string)": {
        "params": {
          "account": "The address on which the NFT will be minted.",
          "tokenId": "The integer id of the NFT.",
          "uri": "The URL of the NFT."
        }
      },
      "name()": {
        "details": "See {IERC721Metadata-name}."
      },
      "ownerOf(uint256)": {
        "details": "See {IERC721-ownerOf}."
      },
      "safeTransferFrom(address,address,uint256)": {
        "details": "See {IERC721-safeTransferFrom}."
      },
      "safeTransferFrom(address,address,uint256,bytes)": {
        "details": "See {IERC721-safeTransferFrom}."
      },
      "setApprovalForAll(address,bool)": {
        "details": "See {IERC721-setApprovalForAll}."
      },
      "supportsInterface(bytes4)": {
        "details": "See {IERC165-supportsInterface}."
      },
      "symbol()": {
        "details": "See {IERC721Metadata-symbol}."
      },
      "tokenURI(uint256)": {
        "details": "The token being queried should already exist.URI of the token should already be set.",
        "params": {
          "tokenId": "The integer id of the NFT."
        },
        "returns": {
          "_0": "'uri' URL of the the NFT against the given 'tokenId'.*"
        }
      },
      "transferFrom(address,address,uint256)": {
        "details": "See {IERC721-transferFrom}."
      }
    },
    "version": 1
  },
  "userdoc": {
    "kind": "user",
    "methods": {
      "claim(address,(uint256,uint256,uint256,bytes))": {
        "notice": "Redeems an NFTVoucher for an actual NFT, authorized by the owner."
      },
      "externalClaim(address,address,(uint256,uint256,uint256,bytes))": {
        "notice": "Redeems an NFTVoucher for an actual NFT, authorized by the owner from an external contract."
      },
      "getChainID()": {
        "notice": "Using low level assembly call to fetch the chain id of the blockchain."
      },
      "mint(address,uint256,string)": {
        "notice": "Mints the a single NFT with given parameters.'tokenId' must be unique and must not overlap any existing tokenId.'uri' should be a metadata json object stored on IPFS or HTTP server.*"
      },
      "tokenURI(uint256)": {
        "notice": "View function that takes the unique tokenId and returns the uri against it."
      }
    },
    "version": 1
  }
}